{
  "contractName": "BBDispute",
  "abi": [
    {
      "constant": true,
      "inputs": [],
      "name": "bbo",
      "outputs": [
        {
          "name": "",
          "type": "address"
        }
      ],
      "payable": false,
      "stateMutability": "view",
      "type": "function"
    },
    {
      "constant": true,
      "inputs": [],
      "name": "bbs",
      "outputs": [
        {
          "name": "",
          "type": "address"
        }
      ],
      "payable": false,
      "stateMutability": "view",
      "type": "function"
    },
    {
      "constant": true,
      "inputs": [],
      "name": "payment",
      "outputs": [
        {
          "name": "",
          "type": "address"
        }
      ],
      "payable": false,
      "stateMutability": "view",
      "type": "function"
    },
    {
      "constant": true,
      "inputs": [],
      "name": "votingHelper",
      "outputs": [
        {
          "name": "",
          "type": "address"
        }
      ],
      "payable": false,
      "stateMutability": "view",
      "type": "function"
    },
    {
      "constant": false,
      "inputs": [],
      "name": "renounceOwnership",
      "outputs": [],
      "payable": false,
      "stateMutability": "nonpayable",
      "type": "function"
    },
    {
      "constant": false,
      "inputs": [
        {
          "name": "BBOAddress",
          "type": "address"
        }
      ],
      "name": "setBBO",
      "outputs": [],
      "payable": false,
      "stateMutability": "nonpayable",
      "type": "function"
    },
    {
      "constant": true,
      "inputs": [],
      "name": "owner",
      "outputs": [
        {
          "name": "",
          "type": "address"
        }
      ],
      "payable": false,
      "stateMutability": "view",
      "type": "function"
    },
    {
      "constant": false,
      "inputs": [
        {
          "name": "anyToken",
          "type": "address"
        }
      ],
      "name": "emergencyERC20Drain",
      "outputs": [],
      "payable": false,
      "stateMutability": "nonpayable",
      "type": "function"
    },
    {
      "constant": false,
      "inputs": [
        {
          "name": "storageAddress",
          "type": "address"
        }
      ],
      "name": "setStorage",
      "outputs": [],
      "payable": false,
      "stateMutability": "nonpayable",
      "type": "function"
    },
    {
      "constant": false,
      "inputs": [
        {
          "name": "_newOwner",
          "type": "address"
        }
      ],
      "name": "transferOwnership",
      "outputs": [],
      "payable": false,
      "stateMutability": "nonpayable",
      "type": "function"
    },
    {
      "constant": true,
      "inputs": [],
      "name": "voting",
      "outputs": [
        {
          "name": "",
          "type": "address"
        }
      ],
      "payable": false,
      "stateMutability": "view",
      "type": "function"
    },
    {
      "anonymous": false,
      "inputs": [
        {
          "indexed": true,
          "name": "jobID",
          "type": "uint256"
        },
        {
          "indexed": false,
          "name": "winner",
          "type": "uint256"
        }
      ],
      "name": "DisputeFinalized",
      "type": "event"
    },
    {
      "anonymous": false,
      "inputs": [
        {
          "indexed": true,
          "name": "jobID",
          "type": "uint256"
        },
        {
          "indexed": true,
          "name": "creator",
          "type": "address"
        },
        {
          "indexed": true,
          "name": "pollID",
          "type": "uint256"
        }
      ],
      "name": "DisputeStarted",
      "type": "event"
    },
    {
      "anonymous": false,
      "inputs": [
        {
          "indexed": true,
          "name": "jobID",
          "type": "uint256"
        },
        {
          "indexed": true,
          "name": "creator",
          "type": "address"
        },
        {
          "indexed": true,
          "name": "pollID",
          "type": "uint256"
        }
      ],
      "name": "DisputeAgainsted",
      "type": "event"
    },
    {
      "anonymous": false,
      "inputs": [
        {
          "indexed": true,
          "name": "jobID",
          "type": "uint256"
        },
        {
          "indexed": true,
          "name": "creator",
          "type": "address"
        },
        {
          "indexed": false,
          "name": "whiteFlag",
          "type": "bool"
        }
      ],
      "name": "DisputeUpdated",
      "type": "event"
    },
    {
      "anonymous": false,
      "inputs": [
        {
          "indexed": true,
          "name": "previousOwner",
          "type": "address"
        }
      ],
      "name": "OwnershipRenounced",
      "type": "event"
    },
    {
      "anonymous": false,
      "inputs": [
        {
          "indexed": true,
          "name": "previousOwner",
          "type": "address"
        },
        {
          "indexed": true,
          "name": "newOwner",
          "type": "address"
        }
      ],
      "name": "OwnershipTransferred",
      "type": "event"
    },
    {
      "constant": false,
      "inputs": [
        {
          "name": "p",
          "type": "address"
        }
      ],
      "name": "setPayment",
      "outputs": [],
      "payable": false,
      "stateMutability": "nonpayable",
      "type": "function"
    },
    {
      "constant": false,
      "inputs": [
        {
          "name": "p",
          "type": "address"
        }
      ],
      "name": "setVoting",
      "outputs": [],
      "payable": false,
      "stateMutability": "nonpayable",
      "type": "function"
    },
    {
      "constant": false,
      "inputs": [
        {
          "name": "p",
          "type": "address"
        }
      ],
      "name": "setVotingHelper",
      "outputs": [],
      "payable": false,
      "stateMutability": "nonpayable",
      "type": "function"
    },
    {
      "constant": true,
      "inputs": [
        {
          "name": "jobID",
          "type": "uint256"
        }
      ],
      "name": "isAgaintsDispute",
      "outputs": [
        {
          "name": "r",
          "type": "bool"
        }
      ],
      "payable": false,
      "stateMutability": "view",
      "type": "function"
    },
    {
      "constant": true,
      "inputs": [
        {
          "name": "jobID",
          "type": "uint256"
        }
      ],
      "name": "getPollID",
      "outputs": [
        {
          "name": "r",
          "type": "uint256"
        }
      ],
      "payable": false,
      "stateMutability": "view",
      "type": "function"
    },
    {
      "constant": false,
      "inputs": [
        {
          "name": "jobID",
          "type": "uint256"
        }
      ],
      "name": "finalizeDispute",
      "outputs": [],
      "payable": false,
      "stateMutability": "nonpayable",
      "type": "function"
    },
    {
      "constant": false,
      "inputs": [
        {
          "name": "jobID",
          "type": "uint256"
        },
        {
          "name": "proofHash",
          "type": "bytes"
        }
      ],
      "name": "startDispute",
      "outputs": [],
      "payable": false,
      "stateMutability": "nonpayable",
      "type": "function"
    },
    {
      "constant": false,
      "inputs": [
        {
          "name": "jobID",
          "type": "uint256"
        },
        {
          "name": "againstProofHash",
          "type": "bytes"
        }
      ],
      "name": "againstDispute",
      "outputs": [],
      "payable": false,
      "stateMutability": "nonpayable",
      "type": "function"
    },
    {
      "constant": false,
      "inputs": [
        {
          "name": "jobID",
          "type": "uint256"
        },
        {
          "name": "whiteFlag",
          "type": "bool"
        }
      ],
      "name": "updateDispute",
      "outputs": [],
      "payable": false,
      "stateMutability": "nonpayable",
      "type": "function"
    },
    {
      "constant": false,
      "inputs": [
        {
          "name": "jobID",
          "type": "uint256"
        }
      ],
      "name": "claimReward",
      "outputs": [],
      "payable": false,
      "stateMutability": "nonpayable",
      "type": "function"
    },
    {
      "constant": true,
      "inputs": [
        {
          "name": "jobID",
          "type": "uint256"
        }
      ],
      "name": "calcReward",
      "outputs": [
        {
          "name": "numReward",
          "type": "uint256"
        },
        {
          "name": "win",
          "type": "bool"
        }
      ],
      "payable": false,
      "stateMutability": "view",
      "type": "function"
    }
  ],
  "bytecode": "0x60806040526000600160006101000a81548173ffffffffffffffffffffffffffffffffffffffff021916908373ffffffffffffffffffffffffffffffffffffffff1602179055506000600260006101000a81548173ffffffffffffffffffffffffffffffffffffffff021916908373ffffffffffffffffffffffffffffffffffffffff1602179055506000600360006101000a81548173ffffffffffffffffffffffffffffffffffffffff021916908373ffffffffffffffffffffffffffffffffffffffff1602179055506000600460006101000a81548173ffffffffffffffffffffffffffffffffffffffff021916908373ffffffffffffffffffffffffffffffffffffffff1602179055506000600560006101000a81548173ffffffffffffffffffffffffffffffffffffffff021916908373ffffffffffffffffffffffffffffffffffffffff160217905550336000806101000a81548173ffffffffffffffffffffffffffffffffffffffff021916908373ffffffffffffffffffffffffffffffffffffffff1602179055506152208061019d6000396000f300608060405260043610610128576000357c0100000000000000000000000000000000000000000000000000000000900463ffffffff1680631e89bf061461012d5780631fde23a41461018457806323740339146101db57806342f6487a1461021c57806343dc798b146102735780634e508ea4146102ca5780634f6fd7691461033d578063544c465c1461038257806356989a83146103ce578063715018a6146103fb5780637937f46d146104125780637ecd6f76146104555780638da5cb5b146104c857806390e8d82f1461051f5780639137c1a7146105625780639ab06fcb146105a5578063ae169a50146105e8578063c4d0795114610615578063e193289f14610658578063f2fde38b1461069b578063f81b0506146106de578063fce1ccca14610717575b600080fd5b34801561013957600080fd5b5061014261076e565b604051808273ffffffffffffffffffffffffffffffffffffffff1673ffffffffffffffffffffffffffffffffffffffff16815260200191505060405180910390f35b34801561019057600080fd5b50610199610794565b604051808273ffffffffffffffffffffffffffffffffffffffff1673ffffffffffffffffffffffffffffffffffffffff16815260200191505060405180910390f35b3480156101e757600080fd5b50610206600480360381019080803590602001909291905050506107ba565b6040518082815260200191505060405180910390f35b34801561022857600080fd5b506102316108d5565b604051808273ffffffffffffffffffffffffffffffffffffffff1673ffffffffffffffffffffffffffffffffffffffff16815260200191505060405180910390f35b34801561027f57600080fd5b506102886108fb565b604051808273ffffffffffffffffffffffffffffffffffffffff1673ffffffffffffffffffffffffffffffffffffffff16815260200191505060405180910390f35b3480156102d657600080fd5b5061033b60048036038101908080359060200190929190803590602001908201803590602001908080601f0160208091040260200160405190810160405280939291908181526020018383808284378201915050505050509192919290505050610921565b005b34801561034957600080fd5b5061036860048036038101908080359060200190929190505050610afb565b604051808215151515815260200191505060405180910390f35b34801561038e57600080fd5b506103ad60048036038101908080359060200190929190505050610c88565b60405180838152602001821515151581526020019250505060405180910390f35b3480156103da57600080fd5b506103f960048036038101908080359060200190929190505050611377565b005b34801561040757600080fd5b50610410611fbd565b005b34801561041e57600080fd5b50610453600480360381019080803573ffffffffffffffffffffffffffffffffffffffff1690602001909291905050506120bf565b005b34801561046157600080fd5b506104c660048036038101908080359060200190929190803590602001908201803590602001908080601f016020809104026020016040519081016040528093929190818152602001838380828437820191505050505050919291929050505061215e565b005b3480156104d457600080fd5b506104dd6122c2565b604051808273ffffffffffffffffffffffffffffffffffffffff1673ffffffffffffffffffffffffffffffffffffffff16815260200191505060405180910390f35b34801561052b57600080fd5b50610560600480360381019080803573ffffffffffffffffffffffffffffffffffffffff1690602001909291905050506122e7565b005b34801561056e57600080fd5b506105a3600480360381019080803573ffffffffffffffffffffffffffffffffffffffff1690602001909291905050506125fb565b005b3480156105b157600080fd5b506105e6600480360381019080803573ffffffffffffffffffffffffffffffffffffffff16906020019092919050505061269a565b005b3480156105f457600080fd5b5061061360048036038101908080359060200190929190505050612739565b005b34801561062157600080fd5b50610656600480360381019080803573ffffffffffffffffffffffffffffffffffffffff169060200190929190505050612999565b005b34801561066457600080fd5b50610699600480360381019080803573ffffffffffffffffffffffffffffffffffffffff169060200190929190505050612a38565b005b3480156106a757600080fd5b506106dc600480360381019080803573ffffffffffffffffffffffffffffffffffffffff169060200190929190505050612ad7565b005b3480156106ea57600080fd5b5061071560048036038101908080359060200190929190803515159060200190929190505050612b96565b005b34801561072357600080fd5b5061072c6136d7565b604051808273ffffffffffffffffffffffffffffffffffffffff1673ffffffffffffffffffffffffffffffffffffffff16815260200191505060405180910390f35b600260009054906101000a900473ffffffffffffffffffffffffffffffffffffffff1681565b600160009054906101000a900473ffffffffffffffffffffffffffffffffffffffff1681565b6000600160009054906101000a900473ffffffffffffffffffffffffffffffffffffffff1673ffffffffffffffffffffffffffffffffffffffff1663bd02d0f5610839846040805190810160405280600781526020017f504f4c4c5f4944000000000000000000000000000000000000000000000000008152506136fd565b6040518263ffffffff167c0100000000000000000000000000000000000000000000000000000000028152600401808260001916600019168152602001915050602060405180830381600087803b15801561089357600080fd5b505af11580156108a7573d6000803e3d6000fd5b505050506040513d60208110156108bd57600080fd5b81019080805190602001909291905050509050919050565b600360009054906101000a900473ffffffffffffffffffffffffffffffffffffffff1681565b600560009054906101000a900473ffffffffffffffffffffffffffffffffffffffff1681565b60008061092d846107ba565b915060008211151561093e57600080fd5b6001151561094b856137de565b151514151561095957600080fd5b6001151561096685613a43565b151514151561097457600080fd5b600160009054906101000a900473ffffffffffffffffffffffffffffffffffffffff1673ffffffffffffffffffffffffffffffffffffffff166321f8a7216109f1866040805190810160405280600c81526020017f504f4c4c5f5354415254454400000000000000000000000000000000000000008152506136fd565b6040518263ffffffff167c0100000000000000000000000000000000000000000000000000000000028152600401808260001916600019168152602001915050602060405180830381600087803b158015610a4b57600080fd5b505af1158015610a5f573d6000803e3d6000fd5b505050506040513d6020811015610a7557600080fd5b8101908080519060200190929190505050905060008173ffffffffffffffffffffffffffffffffffffffff1614151515610aae57600080fd5b3373ffffffffffffffffffffffffffffffffffffffff168173ffffffffffffffffffffffffffffffffffffffff1614151515610ae957600080fd5b610af584848484613cb5565b50505050565b60006060600560009054906101000a900473ffffffffffffffffffffffffffffffffffffffff1673ffffffffffffffffffffffffffffffffffffffff1663c888fcc3610b46856107ba565b6040518263ffffffff167c010000000000000000000000000000000000000000000000000000000002815260040180828152602001915050600060405180830381600087803b158015610b9857600080fd5b505af1158015610bac573d6000803e3d6000fd5b505050506040513d6000823e3d601f19601f820116820180604052506040811015610bd657600080fd5b810190808051640100000000811115610bee57600080fd5b82810190506020810184811115610c0457600080fd5b8151856020820283011164010000000082111715610c2157600080fd5b50509291906020018051640100000000811115610c3d57600080fd5b82810190506020810184811115610c5357600080fd5b8151856020820283011164010000000082111715610c7057600080fd5b50509291905050505090506002815111915050919050565b600080600080600080600080600080610ca08b6107ba565b975060001515600160009054906101000a900473ffffffffffffffffffffffffffffffffffffffff1673ffffffffffffffffffffffffffffffffffffffff16637ae1cfca610d248b6040805190810160405280600e81526020017f5245574152445f434c41494d454400000000000000000000000000000000000081525033614053565b6040518263ffffffff167c0100000000000000000000000000000000000000000000000000000000028152600401808260001916600019168152602001915050602060405180830381600087803b158015610d7e57600080fd5b505af1158015610d92573d6000803e3d6000fd5b505050506040513d6020811015610da857600080fd5b81019080805190602001909291905050501515141561136a57600560009054906101000a900473ffffffffffffffffffffffffffffffffffffffff1673ffffffffffffffffffffffffffffffffffffffff16630c03fbd7338a6040518363ffffffff167c0100000000000000000000000000000000000000000000000000000000028152600401808373ffffffffffffffffffffffffffffffffffffffff1673ffffffffffffffffffffffffffffffffffffffff16815260200182815260200192505050602060405180830381600087803b158015610e8657600080fd5b505af1158015610e9a573d6000803e3d6000fd5b505050506040513d6020811015610eb057600080fd5b81019080805190602001909291905050509650600160009054906101000a900473ffffffffffffffffffffffffffffffffffffffff1673ffffffffffffffffffffffffffffffffffffffff166321f8a721610f408d6040805190810160405280600c81526020017f504f4c4c5f5354415254454400000000000000000000000000000000000000008152506136fd565b6040518263ffffffff167c0100000000000000000000000000000000000000000000000000000000028152600401808260001916600019168152602001915050602060405180830381600087803b158015610f9a57600080fd5b505af1158015610fae573d6000803e3d6000fd5b505050506040513d6020811015610fc457600080fd5b81019080805190602001909291905050509550600560009054906101000a900473ffffffffffffffffffffffffffffffffffffffff1673ffffffffffffffffffffffffffffffffffffffff1663b6990ee1896040518263ffffffff167c01000000000000000000000000000000000000000000000000000000000281526004018082815260200191505060a060405180830381600087803b15801561106857600080fd5b505af115801561107c573d6000803e3d6000fd5b505050506040513d60a081101561109257600080fd5b810190808051906020019092919080519060200190929190805190602001909291908051906020019092919080519060200190929190505050955095509550509450600115158515151480156110ec575060011515831515145b15611365576000871180156111015750603282115b1561124c57600160009054906101000a900473ffffffffffffffffffffffffffffffffffffffff1673ffffffffffffffffffffffffffffffffffffffff1663bd02d0f56111858d6040805190810160405280600e81526020017f5354414b45445f4445504f5349540000000000000000000000000000000000008152508c8b614178565b6040518263ffffffff167c0100000000000000000000000000000000000000000000000000000000028152600401808260001916600019168152602001915050602060405180830381600087803b1580156111df57600080fd5b505af11580156111f3573d6000803e3d6000fd5b505050506040513d602081101561120957600080fd5b8101908080519060200190929190505050905061124184611233838a6142a690919063ffffffff16565b6142de90919063ffffffff16565b995060019850611360565b600160009054906101000a900473ffffffffffffffffffffffffffffffffffffffff1673ffffffffffffffffffffffffffffffffffffffff1663bd02d0f56112c86040805190810160405280600b81526020017f42424f5f524557415244530000000000000000000000000000000000000000008152506142f4565b6040518263ffffffff167c0100000000000000000000000000000000000000000000000000000000028152600401808260001916600019168152602001915050602060405180830381600087803b15801561132257600080fd5b505af1158015611336573d6000803e3d6000fd5b505050506040513d602081101561134c57600080fd5b810190808051906020019092919050505099505b611369565b8298505b5b5050505050505050915091565b600080600080600080600080600061138e8a6107ba565b9850600560009054906101000a900473ffffffffffffffffffffffffffffffffffffffff1673ffffffffffffffffffffffffffffffffffffffff1663b6990ee18a6040518263ffffffff167c01000000000000000000000000000000000000000000000000000000000281526004018082815260200191505060a060405180830381600087803b15801561142157600080fd5b505af1158015611435573d6000803e3d6000fd5b505050506040513d60a081101561144b57600080fd5b8101908080519060200190929190805190602001909291908051906020019092919080519060200190929190805190602001909291905050509950505097509750600115156114998b613a43565b15151415156114a757600080fd5b600160009054906101000a900473ffffffffffffffffffffffffffffffffffffffff1673ffffffffffffffffffffffffffffffffffffffff166321f8a7216115248c6040805190810160405280600c81526020017f504f4c4c5f5354415254454400000000000000000000000000000000000000008152506136fd565b6040518263ffffffff167c0100000000000000000000000000000000000000000000000000000000028152600401808260001916600019168152602001915050602060405180830381600087803b15801561157e57600080fd5b505af1158015611592573d6000803e3d6000fd5b505050506040513d60208110156115a857600080fd5b81019080805190602001909291905050509450600073ffffffffffffffffffffffffffffffffffffffff168573ffffffffffffffffffffffffffffffffffffffff16141515156115f757600080fd5b600560009054906101000a900473ffffffffffffffffffffffffffffffffffffffff1673ffffffffffffffffffffffffffffffffffffffff1663b85fb20f8a6040518263ffffffff167c01000000000000000000000000000000000000000000000000000000000281526004018082815260200191505060a060405180830381600087803b15801561168857600080fd5b505af115801561169c573d6000803e3d6000fd5b505050506040513d60a08110156116b257600080fd5b81019080805190602001909291908051906020019092919080519060200190929190805190602001909291908051906020019092919050505050509550505042841115151561170057600080fd5b600160009054906101000a900473ffffffffffffffffffffffffffffffffffffffff1673ffffffffffffffffffffffffffffffffffffffff1663bd02d0f561177f8c6040805190810160405280600e81526020017f5354414b45445f4445504f5349540000000000000000000000000000000000008152508d8a614178565b6040518263ffffffff167c0100000000000000000000000000000000000000000000000000000000028152600401808260001916600019168152602001915050602060405180830381600087803b1580156117d957600080fd5b505af11580156117ed573d6000803e3d6000fd5b505050506040513d602081101561180357600080fd5b8101908080519060200190929190505050925061181f8a610afb565b1515611a2157600160009054906101000a900473ffffffffffffffffffffffffffffffffffffffff1673ffffffffffffffffffffffffffffffffffffffff1663ca446dd96118a28c6040805190810160405280600e81526020017f444953505554455f57494e4e45520000000000000000000000000000000000008152506136fd565b876040518363ffffffff167c01000000000000000000000000000000000000000000000000000000000281526004018083600019166000191681526020018273ffffffffffffffffffffffffffffffffffffffff1673ffffffffffffffffffffffffffffffffffffffff16815260200192505050600060405180830381600087803b15801561193057600080fd5b505af1158015611944573d6000803e3d6000fd5b50505050600360009054906101000a900473ffffffffffffffffffffffffffffffffffffffff1673ffffffffffffffffffffffffffffffffffffffff166356989a838b6040518263ffffffff167c010000000000000000000000000000000000000000000000000000000002815260040180828152602001915050602060405180830381600087803b1580156119d957600080fd5b505af11580156119ed573d6000803e3d6000fd5b505050506040513d6020811015611a0357600080fd5b81019080805190602001909291905050501515611a1c57fe5b611f79565b60011515881515141515611a3457600080fd5b600160009054906101000a900473ffffffffffffffffffffffffffffffffffffffff1673ffffffffffffffffffffffffffffffffffffffff166321f8a721611a7b8c6143cc565b6040518263ffffffff167c0100000000000000000000000000000000000000000000000000000000028152600401808260001916600019168152602001915050602060405180830381600087803b158015611ad557600080fd5b505af1158015611ae9573d6000803e3d6000fd5b505050506040513d6020811015611aff57600080fd5b81019080805190602001909291905050509150600160009054906101000a900473ffffffffffffffffffffffffffffffffffffffff1673ffffffffffffffffffffffffffffffffffffffff166321f8a721611b8f8c6040805190810160405280600a81526020017f465245454c414e434552000000000000000000000000000000000000000000008152506136fd565b6040518263ffffffff167c0100000000000000000000000000000000000000000000000000000000028152600401808260001916600019168152602001915050602060405180830381600087803b158015611be957600080fd5b505af1158015611bfd573d6000803e3d6000fd5b505050506040513d6020811015611c1357600080fd5b810190808051906020019092919050505090506000871480611c355750603286145b15611d3757600160009054906101000a900473ffffffffffffffffffffffffffffffffffffffff1673ffffffffffffffffffffffffffffffffffffffff1663e2a4853a611cb78c6040805190810160405280600a81526020017f4a4f425f535441545553000000000000000000000000000000000000000000008152506136fd565b60046040518363ffffffff167c010000000000000000000000000000000000000000000000000000000002815260040180836000191660001916815260200182815260200192505050600060405180830381600087803b158015611d1a57600080fd5b505af1158015611d2e573d6000803e3d6000fd5b50505050611f78565b600160009054906101000a900473ffffffffffffffffffffffffffffffffffffffff1673ffffffffffffffffffffffffffffffffffffffff1663ca446dd9611db48c6040805190810160405280600e81526020017f444953505554455f57494e4e45520000000000000000000000000000000000008152506136fd565b60018a14611dfc578473ffffffffffffffffffffffffffffffffffffffff168873ffffffffffffffffffffffffffffffffffffffff1614611df55784611df7565b835b611dfe565b875b6040518363ffffffff167c01000000000000000000000000000000000000000000000000000000000281526004018083600019166000191681526020018273ffffffffffffffffffffffffffffffffffffffff1673ffffffffffffffffffffffffffffffffffffffff16815260200192505050600060405180830381600087803b158015611e8b57600080fd5b505af1158015611e9f573d6000803e3d6000fd5b50505050600360009054906101000a900473ffffffffffffffffffffffffffffffffffffffff1673ffffffffffffffffffffffffffffffffffffffff166356989a838b6040518263ffffffff167c010000000000000000000000000000000000000000000000000000000002815260040180828152602001915050602060405180830381600087803b158015611f3457600080fd5b505af1158015611f48573d6000803e3d6000fd5b505050506040513d6020811015611f5e57600080fd5b81019080805190602001909291905050501515611f7757fe5b5b5b897f22628b04f751425420531455ea6f4c72908cb490253def3f4c4762c099f30ee9886040518082815260200191505060405180910390a250505050505050505050565b6000809054906101000a900473ffffffffffffffffffffffffffffffffffffffff1673ffffffffffffffffffffffffffffffffffffffff163373ffffffffffffffffffffffffffffffffffffffff1614151561201857600080fd5b6000809054906101000a900473ffffffffffffffffffffffffffffffffffffffff1673ffffffffffffffffffffffffffffffffffffffff167ff8df31144d9c2f0f6b59d69b8b98abd5459d07f2742c4df920b25aae33c6482060405160405180910390a260008060006101000a81548173ffffffffffffffffffffffffffffffffffffffff021916908373ffffffffffffffffffffffffffffffffffffffff160217905550565b6000809054906101000a900473ffffffffffffffffffffffffffffffffffffffff1673ffffffffffffffffffffffffffffffffffffffff163373ffffffffffffffffffffffffffffffffffffffff1614151561211a57600080fd5b80600260006101000a81548173ffffffffffffffffffffffffffffffffffffffff021916908373ffffffffffffffffffffffffffffffffffffffff16021790555050565b6001151561216b83614457565b151514151561217957600080fd5b60011515612186836137de565b151514151561219457600080fd5b6000600160009054906101000a900473ffffffffffffffffffffffffffffffffffffffff1673ffffffffffffffffffffffffffffffffffffffff1663bd02d0f5612213856040805190810160405280600781526020017f504f4c4c5f4944000000000000000000000000000000000000000000000000008152506136fd565b6040518263ffffffff167c0100000000000000000000000000000000000000000000000000000000028152600401808260001916600019168152602001915050602060405180830381600087803b15801561226d57600080fd5b505af1158015612281573d6000803e3d6000fd5b505050506040513d602081101561229757600080fd5b81019080805190602001909291905050501415156122b457600080fd5b6122be82826146c9565b5050565b6000809054906101000a900473ffffffffffffffffffffffffffffffffffffffff1681565b6000809054906101000a900473ffffffffffffffffffffffffffffffffffffffff1673ffffffffffffffffffffffffffffffffffffffff163373ffffffffffffffffffffffffffffffffffffffff1614151561234257600080fd5b60003073ffffffffffffffffffffffffffffffffffffffff163111156123e2576000809054906101000a900473ffffffffffffffffffffffffffffffffffffffff1673ffffffffffffffffffffffffffffffffffffffff166108fc3073ffffffffffffffffffffffffffffffffffffffff16319081150290604051600060405180830381858888f193505050501580156123e0573d6000803e3d6000fd5b505b600073ffffffffffffffffffffffffffffffffffffffff168173ffffffffffffffffffffffffffffffffffffffff161415156125f8578073ffffffffffffffffffffffffffffffffffffffff1663a9059cbb6000809054906101000a900473ffffffffffffffffffffffffffffffffffffffff168373ffffffffffffffffffffffffffffffffffffffff166370a08231306040518263ffffffff167c0100000000000000000000000000000000000000000000000000000000028152600401808273ffffffffffffffffffffffffffffffffffffffff1673ffffffffffffffffffffffffffffffffffffffff168152602001915050602060405180830381600087803b1580156124f157600080fd5b505af1158015612505573d6000803e3d6000fd5b505050506040513d602081101561251b57600080fd5b81019080805190602001909291905050506040518363ffffffff167c0100000000000000000000000000000000000000000000000000000000028152600401808373ffffffffffffffffffffffffffffffffffffffff1673ffffffffffffffffffffffffffffffffffffffff16815260200182815260200192505050602060405180830381600087803b1580156125b157600080fd5b505af11580156125c5573d6000803e3d6000fd5b505050506040513d60208110156125db57600080fd5b810190808051906020019092919050505015156125f757600080fd5b5b50565b6000809054906101000a900473ffffffffffffffffffffffffffffffffffffffff1673ffffffffffffffffffffffffffffffffffffffff163373ffffffffffffffffffffffffffffffffffffffff1614151561265657600080fd5b80600160006101000a81548173ffffffffffffffffffffffffffffffffffffffff021916908373ffffffffffffffffffffffffffffffffffffffff16021790555050565b6000809054906101000a900473ffffffffffffffffffffffffffffffffffffffff1673ffffffffffffffffffffffffffffffffffffffff163373ffffffffffffffffffffffffffffffffffffffff161415156126f557600080fd5b80600360006101000a81548173ffffffffffffffffffffffffffffffffffffffff021916908373ffffffffffffffffffffffffffffffffffffffff16021790555050565b600080612745836107ba565b915060008211151561275657600080fd5b60011515600160009054906101000a900473ffffffffffffffffffffffffffffffffffffffff1673ffffffffffffffffffffffffffffffffffffffff16637ae1cfca6127d8856040805190810160405280600e81526020017f5245574152445f434c41494d454400000000000000000000000000000000000081525033614053565b6040518263ffffffff167c0100000000000000000000000000000000000000000000000000000000028152600401808260001916600019168152602001915050602060405180830381600087803b15801561283257600080fd5b505af1158015612846573d6000803e3d6000fd5b505050506040513d602081101561285c57600080fd5b810190808051906020019092919050505015151415151561287c57600080fd5b61288583610c88565b50905060008111151561289757600080fd5b600160009054906101000a900473ffffffffffffffffffffffffffffffffffffffff1673ffffffffffffffffffffffffffffffffffffffff1663abfdcced612915846040805190810160405280600e81526020017f5245574152445f434c41494d454400000000000000000000000000000000000081525033614053565b60016040518363ffffffff167c01000000000000000000000000000000000000000000000000000000000281526004018083600019166000191681526020018215151515815260200192505050600060405180830381600087803b15801561297c57600080fd5b505af1158015612990573d6000803e3d6000fd5b50505050505050565b6000809054906101000a900473ffffffffffffffffffffffffffffffffffffffff1673ffffffffffffffffffffffffffffffffffffffff163373ffffffffffffffffffffffffffffffffffffffff161415156129f457600080fd5b80600460006101000a81548173ffffffffffffffffffffffffffffffffffffffff021916908373ffffffffffffffffffffffffffffffffffffffff16021790555050565b6000809054906101000a900473ffffffffffffffffffffffffffffffffffffffff1673ffffffffffffffffffffffffffffffffffffffff163373ffffffffffffffffffffffffffffffffffffffff16141515612a9357600080fd5b80600560006101000a81548173ffffffffffffffffffffffffffffffffffffffff021916908373ffffffffffffffffffffffffffffffffffffffff16021790555050565b600073ffffffffffffffffffffffffffffffffffffffff166000809054906101000a900473ffffffffffffffffffffffffffffffffffffffff1673ffffffffffffffffffffffffffffffffffffffff16141515612b8a576000809054906101000a900473ffffffffffffffffffffffffffffffffffffffff1673ffffffffffffffffffffffffffffffffffffffff163373ffffffffffffffffffffffffffffffffffffffff16141515612b8957600080fd5b5b612b93816150fa565b50565b60008060008060008060008060011515612baf8b6137de565b1515141515612bbd57600080fd5b60011515612bca8b613a43565b1515141515612bd857600080fd5b612be18a6107ba565b9750600560009054906101000a900473ffffffffffffffffffffffffffffffffffffffff1673ffffffffffffffffffffffffffffffffffffffff1663b6990ee1896040518263ffffffff167c01000000000000000000000000000000000000000000000000000000000281526004018082815260200191505060a060405180830381600087803b158015612c7457600080fd5b505af1158015612c88573d6000803e3d6000fd5b505050506040513d60a0811015612c9e57600080fd5b810190808051906020019092919080519060200190929190805190602001909291908051906020019092919080519060200190929190505050509850505096506001151586151514151515612cf257600080fd5b60011515871515141515612d0557600080fd5b600160009054906101000a900473ffffffffffffffffffffffffffffffffffffffff1673ffffffffffffffffffffffffffffffffffffffff166321f8a721612d4c8c6143cc565b6040518263ffffffff167c0100000000000000000000000000000000000000000000000000000000028152600401808260001916600019168152602001915050602060405180830381600087803b158015612da657600080fd5b505af1158015612dba573d6000803e3d6000fd5b505050506040513d6020811015612dd057600080fd5b81019080805190602001909291905050509450600160009054906101000a900473ffffffffffffffffffffffffffffffffffffffff1673ffffffffffffffffffffffffffffffffffffffff166321f8a721612e608c6040805190810160405280600a81526020017f465245454c414e434552000000000000000000000000000000000000000000008152506136fd565b6040518263ffffffff167c0100000000000000000000000000000000000000000000000000000000028152600401808260001916600019168152602001915050602060405180830381600087803b158015612eba57600080fd5b505af1158015612ece573d6000803e3d6000fd5b505050506040513d6020811015612ee457600080fd5b8101908080519060200190929190505050935060011515891515141561334257600160009054906101000a900473ffffffffffffffffffffffffffffffffffffffff1673ffffffffffffffffffffffffffffffffffffffff1663ca446dd9612f818c6040805190810160405280600e81526020017f444953505554455f57494e4e45520000000000000000000000000000000000008152506136fd565b8773ffffffffffffffffffffffffffffffffffffffff163373ffffffffffffffffffffffffffffffffffffffff1614612fba5787612fbc565b865b6040518363ffffffff167c01000000000000000000000000000000000000000000000000000000000281526004018083600019166000191681526020018273ffffffffffffffffffffffffffffffffffffffff1673ffffffffffffffffffffffffffffffffffffffff16815260200192505050600060405180830381600087803b15801561304957600080fd5b505af115801561305d573d6000803e3d6000fd5b50505050600160009054906101000a900473ffffffffffffffffffffffffffffffffffffffff1673ffffffffffffffffffffffffffffffffffffffff1663bd02d0f56130e08c6040805190810160405280600e81526020017f5354414b45445f4445504f5349540000000000000000000000000000000000008152508c8a614178565b6040518263ffffffff167c0100000000000000000000000000000000000000000000000000000000028152600401808260001916600019168152602001915050602060405180830381600087803b15801561313a57600080fd5b505af115801561314e573d6000803e3d6000fd5b505050506040513d602081101561316457600080fd5b81019080805190602001909291905050509250600460009054906101000a900473ffffffffffffffffffffffffffffffffffffffff1673ffffffffffffffffffffffffffffffffffffffff1663b0cbea9f8960016000806040518563ffffffff167c01000000000000000000000000000000000000000000000000000000000281526004018085815260200184151515158152602001838152602001828152602001945050505050602060405180830381600087803b15801561322657600080fd5b505af115801561323a573d6000803e3d6000fd5b505050506040513d602081101561325057600080fd5b8101908080519060200190929190505050151561326957fe5b600360009054906101000a900473ffffffffffffffffffffffffffffffffffffffff1673ffffffffffffffffffffffffffffffffffffffff166356989a838b6040518263ffffffff167c010000000000000000000000000000000000000000000000000000000002815260040180828152602001915050602060405180830381600087803b1580156132fa57600080fd5b505af115801561330e573d6000803e3d6000fd5b505050506040513d602081101561332457600080fd5b8101908080519060200190929190505050151561333d57fe5b613678565b600160009054906101000a900473ffffffffffffffffffffffffffffffffffffffff1673ffffffffffffffffffffffffffffffffffffffff1663bd02d0f56133be6040805190810160405280600f81526020017f434f4d4d49545f4455524154494f4e00000000000000000000000000000000008152506142f4565b6040518263ffffffff167c0100000000000000000000000000000000000000000000000000000000028152600401808260001916600019168152602001915050602060405180830381600087803b15801561341857600080fd5b505af115801561342c573d6000803e3d6000fd5b505050506040513d602081101561344257600080fd5b8101908080519060200190929190505050915060008211151561346457600080fd5b600160009054906101000a900473ffffffffffffffffffffffffffffffffffffffff1673ffffffffffffffffffffffffffffffffffffffff1663bd02d0f56134e06040805190810160405280600f81526020017f52455645414c5f4455524154494f4e00000000000000000000000000000000008152506142f4565b6040518263ffffffff167c0100000000000000000000000000000000000000000000000000000000028152600401808260001916600019168152602001915050602060405180830381600087803b15801561353a57600080fd5b505af115801561354e573d6000803e3d6000fd5b505050506040513d602081101561356457600080fd5b8101908080519060200190929190505050905060008111151561358657600080fd5b600460009054906101000a900473ffffffffffffffffffffffffffffffffffffffff1673ffffffffffffffffffffffffffffffffffffffff1663b0cbea9f89600085856040518563ffffffff167c01000000000000000000000000000000000000000000000000000000000281526004018085815260200184151515158152602001838152602001828152602001945050505050602060405180830381600087803b15801561363457600080fd5b505af1158015613648573d6000803e3d6000fd5b505050506040513d602081101561365e57600080fd5b8101908080519060200190929190505050151561367757fe5b5b3373ffffffffffffffffffffffffffffffffffffffff168a7f68a603f0e539410f1a050040d440940ace3ca22853ca93f5b6f034fb075e11e98b604051808215151515815260200191505060405180910390a350505050505050505050565b600460009054906101000a900473ffffffffffffffffffffffffffffffffffffffff1681565b600082826040516020018083815260200182805190602001908083835b60208310151561373f578051825260208201915060208101905060208303925061371a565b6001836020036101000a038019825116818451168082178552505050505050905001925050506040516020818303038152906040526040518082805190602001908083835b6020831015156137a95780518252602082019150602081019050602083039250613784565b6001836020036101000a0380198251168184511680821785525050505050509050019150506040518091039020905092915050565b6000806000600160009054906101000a900473ffffffffffffffffffffffffffffffffffffffff1673ffffffffffffffffffffffffffffffffffffffff166321f8a72161382a866143cc565b6040518263ffffffff167c0100000000000000000000000000000000000000000000000000000000028152600401808260001916600019168152602001915050602060405180830381600087803b15801561388457600080fd5b505af1158015613898573d6000803e3d6000fd5b505050506040513d60208110156138ae57600080fd5b81019080805190602001909291905050509150600160009054906101000a900473ffffffffffffffffffffffffffffffffffffffff1673ffffffffffffffffffffffffffffffffffffffff166321f8a72161393e866040805190810160405280600a81526020017f465245454c414e434552000000000000000000000000000000000000000000008152506136fd565b6040518263ffffffff167c0100000000000000000000000000000000000000000000000000000000028152600401808260001916600019168152602001915050602060405180830381600087803b15801561399857600080fd5b505af11580156139ac573d6000803e3d6000fd5b505050506040513d60208110156139c257600080fd5b810190808051906020019092919050505090508173ffffffffffffffffffffffffffffffffffffffff163373ffffffffffffffffffffffffffffffffffffffff161480613a3a57508073ffffffffffffffffffffffffffffffffffffffff163373ffffffffffffffffffffffffffffffffffffffff16145b92505050919050565b6000806000600160009054906101000a900473ffffffffffffffffffffffffffffffffffffffff1673ffffffffffffffffffffffffffffffffffffffff1663bd02d0f5613ac5866040805190810160405280600a81526020017f4a4f425f535441545553000000000000000000000000000000000000000000008152506136fd565b6040518263ffffffff167c0100000000000000000000000000000000000000000000000000000000028152600401808260001916600019168152602001915050602060405180830381600087803b158015613b1f57600080fd5b505af1158015613b33573d6000803e3d6000fd5b505050506040513d6020811015613b4957600080fd5b81019080805190602001909291905050509150600160009054906101000a900473ffffffffffffffffffffffffffffffffffffffff1673ffffffffffffffffffffffffffffffffffffffff166321f8a721613bd9866040805190810160405280600e81526020017f444953505554455f57494e4e45520000000000000000000000000000000000008152506136fd565b6040518263ffffffff167c0100000000000000000000000000000000000000000000000000000000028152600401808260001916600019168152602001915050602060405180830381600087803b158015613c3357600080fd5b505af1158015613c47573d6000803e3d6000fd5b505050506040513d6020811015613c5d57600080fd5b81019080805190602001909291905050509050600682148015613cac5750600073ffffffffffffffffffffffffffffffffffffffff168173ffffffffffffffffffffffffffffffffffffffff16145b92505050919050565b6000600160009054906101000a900473ffffffffffffffffffffffffffffffffffffffff1673ffffffffffffffffffffffffffffffffffffffff1663bd02d0f5613d36876040805190810160405280600e81526020017f5354414b45445f4445504f5349540000000000000000000000000000000000008152508787614178565b6040518263ffffffff167c0100000000000000000000000000000000000000000000000000000000028152600401808260001916600019168152602001915050602060405180830381600087803b158015613d9057600080fd5b505af1158015613da4573d6000803e3d6000fd5b505050506040513d6020811015613dba57600080fd5b81019080805190602001909291905050509050600160009054906101000a900473ffffffffffffffffffffffffffffffffffffffff1673ffffffffffffffffffffffffffffffffffffffff1663e2a4853a613e4c876040805190810160405280600e81526020017f5354414b45445f4445504f5349540000000000000000000000000000000000008152508733614178565b836040518363ffffffff167c010000000000000000000000000000000000000000000000000000000002815260040180836000191660001916815260200182815260200192505050600060405180830381600087803b158015613eae57600080fd5b505af1158015613ec2573d6000803e3d6000fd5b50505050600460009054906101000a900473ffffffffffffffffffffffffffffffffffffffff1673ffffffffffffffffffffffffffffffffffffffff1663cbff158f84866040518363ffffffff167c01000000000000000000000000000000000000000000000000000000000281526004018083815260200180602001828103825283818151815260200191508051906020019080838360005b83811015613f77578082015181840152602081019050613f5c565b50505050905090810190601f168015613fa45780820380516001836020036101000a031916815260200191505b509350505050602060405180830381600087803b158015613fc457600080fd5b505af1158015613fd8573d6000803e3d6000fd5b505050506040513d6020811015613fee57600080fd5b8101908080519060200190929190505050151561400757fe5b823373ffffffffffffffffffffffffffffffffffffffff16867f1ec1841355a829900349eab019b38df1850976493e967a0fbfcb435fef05470460405160405180910390a45050505050565b60008383836040516020018084815260200183805190602001908083835b6020831015156140965780518252602082019150602081019050602083039250614071565b6001836020036101000a0380198251168184511680821785525050505050509050018273ffffffffffffffffffffffffffffffffffffffff1673ffffffffffffffffffffffffffffffffffffffff166c0100000000000000000000000002815260140193505050506040516020818303038152906040526040518082805190602001908083835b602083101515614142578051825260208201915060208101905060208303925061411d565b6001836020036101000a038019825116818451168082178552505050505050905001915050604051809103902090509392505050565b6000848484846040516020018085815260200184805190602001908083835b6020831015156141bc5780518252602082019150602081019050602083039250614197565b6001836020036101000a0380198251168184511680821785525050505050509050018381526020018273ffffffffffffffffffffffffffffffffffffffff1673ffffffffffffffffffffffffffffffffffffffff166c010000000000000000000000000281526014019450505050506040516020818303038152906040526040518082805190602001908083835b60208310151561426f578051825260208201915060208101905060208303925061424a565b6001836020036101000a03801982511681845116808217855250505050505090500191505060405180910390209050949350505050565b6000808314156142b957600090506142d8565b81830290508183828115156142ca57fe5b041415156142d457fe5b8090505b92915050565b600081838115156142eb57fe5b04905092915050565b6000816040516020018082805190602001908083835b60208310151561432f578051825260208201915060208101905060208303925061430a565b6001836020036101000a0380198251168184511680821785525050505050509050019150506040516020818303038152906040526040518082805190602001908083835b6020831015156143985780518252602082019150602081019050602083039250614373565b6001836020036101000a03801982511681845116808217855250505050505090500191505060405180910390209050919050565b600081604051602001808281526020019150506040516020818303038152906040526040518082805190602001908083835b60208310151561442357805182526020820191506020810190506020830392506143fe565b6001836020036101000a03801982511681845116808217855250505050505090500191505060405180910390209050919050565b6000806000600160009054906101000a900473ffffffffffffffffffffffffffffffffffffffff1673ffffffffffffffffffffffffffffffffffffffff1663bd02d0f56144d9866040805190810160405280600a81526020017f4a4f425f535441545553000000000000000000000000000000000000000000008152506136fd565b6040518263ffffffff167c0100000000000000000000000000000000000000000000000000000000028152600401808260001916600019168152602001915050602060405180830381600087803b15801561453357600080fd5b505af1158015614547573d6000803e3d6000fd5b505050506040513d602081101561455d57600080fd5b81019080805190602001909291905050509150600160009054906101000a900473ffffffffffffffffffffffffffffffffffffffff1673ffffffffffffffffffffffffffffffffffffffff166321f8a7216145ed866040805190810160405280600e81526020017f444953505554455f57494e4e45520000000000000000000000000000000000008152506136fd565b6040518263ffffffff167c0100000000000000000000000000000000000000000000000000000000028152600401808260001916600019168152602001915050602060405180830381600087803b15801561464757600080fd5b505af115801561465b573d6000803e3d6000fd5b505050506040513d602081101561467157600080fd5b810190808051906020019092919050505090506004821480156146c05750600073ffffffffffffffffffffffffffffffffffffffff168173ffffffffffffffffffffffffffffffffffffffff16145b92505050919050565b6000806000806000600160009054906101000a900473ffffffffffffffffffffffffffffffffffffffff1673ffffffffffffffffffffffffffffffffffffffff1663bd02d0f561474d6040805190810160405280601181526020017f45564944454e43455f4455524154494f4e0000000000000000000000000000008152506142f4565b6040518263ffffffff167c0100000000000000000000000000000000000000000000000000000000028152600401808260001916600019168152602001915050602060405180830381600087803b1580156147a757600080fd5b505af11580156147bb573d6000803e3d6000fd5b505050506040513d60208110156147d157600080fd5b810190808051906020019092919050505094506000851115156147f357600080fd5b600160009054906101000a900473ffffffffffffffffffffffffffffffffffffffff1673ffffffffffffffffffffffffffffffffffffffff1663bd02d0f561486f6040805190810160405280600f81526020017f434f4d4d49545f4455524154494f4e00000000000000000000000000000000008152506142f4565b6040518263ffffffff167c0100000000000000000000000000000000000000000000000000000000028152600401808260001916600019168152602001915050602060405180830381600087803b1580156148c957600080fd5b505af11580156148dd573d6000803e3d6000fd5b505050506040513d60208110156148f357600080fd5b8101908080519060200190929190505050935060008411151561491557600080fd5b600160009054906101000a900473ffffffffffffffffffffffffffffffffffffffff1673ffffffffffffffffffffffffffffffffffffffff1663bd02d0f56149916040805190810160405280600f81526020017f52455645414c5f4455524154494f4e00000000000000000000000000000000008152506142f4565b6040518263ffffffff167c0100000000000000000000000000000000000000000000000000000000028152600401808260001916600019168152602001915050602060405180830381600087803b1580156149eb57600080fd5b505af11580156149ff573d6000803e3d6000fd5b505050506040513d6020811015614a1557600080fd5b81019080805190602001909291905050509250600083111515614a3757600080fd5b600160009054906101000a900473ffffffffffffffffffffffffffffffffffffffff1673ffffffffffffffffffffffffffffffffffffffff1663bd02d0f5614ab36040805190810160405280600e81526020017f5354414b45445f4445504f5349540000000000000000000000000000000000008152506142f4565b6040518263ffffffff167c0100000000000000000000000000000000000000000000000000000000028152600401808260001916600019168152602001915050602060405180830381600087803b158015614b0d57600080fd5b505af1158015614b21573d6000803e3d6000fd5b505050506040513d6020811015614b3757600080fd5b81019080805190602001909291905050509150600460009054906101000a900473ffffffffffffffffffffffffffffffffffffffff1673ffffffffffffffffffffffffffffffffffffffff1663bd002e1e878787876040518563ffffffff167c01000000000000000000000000000000000000000000000000000000000281526004018080602001858152602001848152602001838152602001828103825286818151815260200191508051906020019080838360005b83811015614c09578082015181840152602081019050614bee565b50505050905090810190601f168015614c365780820380516001836020036101000a031916815260200191505b5095505050505050602060405180830381600087803b158015614c5857600080fd5b505af1158015614c6c573d6000803e3d6000fd5b505050506040513d6020811015614c8257600080fd5b81019080805190602001909291905050509050600081111515614ca157fe5b600160009054906101000a900473ffffffffffffffffffffffffffffffffffffffff1673ffffffffffffffffffffffffffffffffffffffff1663e2a4853a614d1e896040805190810160405280600781526020017f504f4c4c5f4944000000000000000000000000000000000000000000000000008152506136fd565b836040518363ffffffff167c010000000000000000000000000000000000000000000000000000000002815260040180836000191660001916815260200182815260200192505050600060405180830381600087803b158015614d8057600080fd5b505af1158015614d94573d6000803e3d6000fd5b50505050600160009054906101000a900473ffffffffffffffffffffffffffffffffffffffff1673ffffffffffffffffffffffffffffffffffffffff1663e2a4853a614e15896040805190810160405280600a81526020017f4a4f425f535441545553000000000000000000000000000000000000000000008152506136fd565b60066040518363ffffffff167c010000000000000000000000000000000000000000000000000000000002815260040180836000191660001916815260200182815260200192505050600060405180830381600087803b158015614e7857600080fd5b505af1158015614e8c573d6000803e3d6000fd5b50505050600160009054906101000a900473ffffffffffffffffffffffffffffffffffffffff1673ffffffffffffffffffffffffffffffffffffffff1663e2a4853a614f0f896040805190810160405280600e81526020017f5354414b45445f4445504f5349540000000000000000000000000000000000008152508533614178565b846040518363ffffffff167c010000000000000000000000000000000000000000000000000000000002815260040180836000191660001916815260200182815260200192505050600060405180830381600087803b158015614f7157600080fd5b505af1158015614f85573d6000803e3d6000fd5b50505050600160009054906101000a900473ffffffffffffffffffffffffffffffffffffffff1673ffffffffffffffffffffffffffffffffffffffff1663ca446dd9615006896040805190810160405280600c81526020017f504f4c4c5f5354415254454400000000000000000000000000000000000000008152506136fd565b336040518363ffffffff167c01000000000000000000000000000000000000000000000000000000000281526004018083600019166000191681526020018273ffffffffffffffffffffffffffffffffffffffff1673ffffffffffffffffffffffffffffffffffffffff16815260200192505050600060405180830381600087803b15801561509457600080fd5b505af11580156150a8573d6000803e3d6000fd5b50505050803373ffffffffffffffffffffffffffffffffffffffff16887f86b18b26ad4e3b30d21c7f8f4686a93c2fdb18ddbe81038db4b7e49afe078e9160405160405180910390a450505050505050565b600073ffffffffffffffffffffffffffffffffffffffff168173ffffffffffffffffffffffffffffffffffffffff161415151561513657600080fd5b8073ffffffffffffffffffffffffffffffffffffffff166000809054906101000a900473ffffffffffffffffffffffffffffffffffffffff1673ffffffffffffffffffffffffffffffffffffffff167f8be0079c531659141344cd1fd0a4f28419497f9722a3daafe3b4186f6b6457e060405160405180910390a3806000806101000a81548173ffffffffffffffffffffffffffffffffffffffff021916908373ffffffffffffffffffffffffffffffffffffffff160217905550505600a165627a7a723058205863a0cece4ff4d4533b5426293d857bc9e81c73ec02005c517b05bc119ed1a90029",
  "source": "pragma solidity ^0.4.24;\n\nimport './BBStandard.sol';\nimport './BBLib.sol';\nimport './BBFreelancerPayment.sol';\nimport './BBVoting.sol';\nimport './BBVotingHelper.sol';\n\ncontract BBDispute is BBStandard{\n  BBFreelancerPayment public payment = BBFreelancerPayment(0x0);\n  BBVoting public voting = BBVoting(0x0);\n  BBVotingHelper public votingHelper = BBVotingHelper(0x0);\n  \n  function setPayment(address p) onlyOwner public  {\n    payment = BBFreelancerPayment(p);\n  }\n\n  function setVoting(address p) onlyOwner public  {\n    voting = BBVoting(p);\n  }\n  function setVotingHelper(address p) onlyOwner public  {\n    votingHelper = BBVotingHelper(p);\n  }\n  \n  event DisputeFinalized(uint256 indexed jobID, uint256 winner);\n  event DisputeStarted(uint256 indexed jobID, address indexed creator, uint256 indexed pollID);\n  event DisputeAgainsted(uint256 indexed jobID, address indexed creator, uint256 indexed pollID);\n  event DisputeUpdated(uint256 indexed jobID, address indexed creator, bool whiteFlag);\n\n  function canCreatePoll(uint256 jobID) private constant returns (bool r){\n    address jobOwner = bbs.getAddress(BBLib.toB32(jobID));\n    address freelancer = bbs.getAddress(BBLib.toB32(jobID, 'FREELANCER'));\n    r = (msg.sender==jobOwner || msg.sender==freelancer);\n  }\n  function isDisputeJob(uint256 jobID) private constant returns(bool r){\n    uint256 jobStatus = bbs.getUint(BBLib.toB32(jobID ,'JOB_STATUS'));\n    address winner = bbs.getAddress(BBLib.toB32(jobID,'DISPUTE_WINNER'));\n    r = (jobStatus == 4 && winner==address(0x0));\n  }\n  function isDisputingJob(uint256 jobID) private constant returns(bool r){\n    uint256 jobStatus = bbs.getUint(BBLib.toB32(jobID ,'JOB_STATUS'));\n    address winner = bbs.getAddress(BBLib.toB32(jobID,'DISPUTE_WINNER'));\n    r = (jobStatus == 6 && winner==address(0x0));\n  }\n  function isAgaintsDispute(uint256 jobID) public constant returns(bool r){\n    (uint256[] memory opts,) = votingHelper.getPollResult(getPollID(jobID));\n    r = opts.length>2;\n  }\n  function getPollID(uint256 jobID) public constant returns(uint256 r){\n    r = bbs.getUint(BBLib.toB32(jobID,'POLL_ID'));\n  }\n  /**\n  * @dev finalizeDispute for poll\n  * @param jobID Job ID\n  * \n  */\n  function finalizeDispute(uint256 jobID) public\n  {\n    uint256 pID = getPollID(jobID);\n    (bool isFinished, uint256 winner,,, uint256 quorum) = votingHelper.getPollWinner(pID);\n    require(isDisputingJob(jobID)==true);\n    address creator = bbs.getAddress(BBLib.toB32(jobID, 'POLL_STARTED'));\n    require(creator!=address(0x0));\n    (,,uint256 addPollOptionEndDate,,) = votingHelper.getPollStage(pID);\n    require(addPollOptionEndDate <= now);\n    //TODO\n    uint256 bboStake = bbs.getUint(BBLib.toB32(jobID, 'STAKED_DEPOSIT', pID,creator));\n    // check if not have against proof\n    if(!isAgaintsDispute(jobID)){      \n      // set winner to creator \n      bbs.setAddress(BBLib.toB32(jobID, 'DISPUTE_WINNER'),creator);\n      // refun staked for \n      //require(bbo.transfer(creator,bboStake));\n      // cal finalizePayment\n      assert(payment.finalizeDispute(jobID));\n    }else{\n      require(isFinished == true);\n      address jobOwner = bbs.getAddress(BBLib.toB32(jobID));\n      address freelancer = bbs.getAddress(BBLib.toB32(jobID,'FREELANCER'));\n      if(winner == 0 || quorum == 50){\n        // cancel poll\n        //assert(voting.updatePoll(pID, true, 0, 0));\n        // refun money staked\n         //require(bbo.transfer(jobOwner,bboStake));\n         //require(bbo.transfer(freelancer,bboStake));\n        // status to 4\n        bbs.setUint(BBLib.toB32(jobID, 'JOB_STATUS'), 4);\n        //TODO reset POLL\n      }else{\n\n        bbs.setAddress(BBLib.toB32(jobID, 'DISPUTE_WINNER'), (winner==1)?creator:(creator==jobOwner)?freelancer:jobOwner);\n        //refun money staked for winner\n        //require(bbo.transfer(bbs.getAddress(BBLib.toB32(jobID,'DISPUTE_WINNER')), bboStake));\n        // cal finalizePayment\n        assert(payment.finalizeDispute(jobID));\n      }\n    }\n    emit DisputeFinalized(jobID, winner);\n\n  }\n\n  /**\n  * @dev startDispute\n  * @param jobID Job ID\n  * @param proofHash Hash of Proof \n  * \n  */\n  function startDispute(uint256 jobID, bytes proofHash) public \n  {\n    require(isDisputeJob(jobID)==true);\n    require(canCreatePoll(jobID)==true);\n    require(bbs.getUint(BBLib.toB32(jobID, 'POLL_ID'))==0);\n    return doStartPoll(jobID, proofHash);\n  }\n  function doStartPoll(uint256 jobID, bytes proofHash) private {\n\n    uint evidenceDuration = bbs.getUint(BBLib.toB32('EVIDENCE_DURATION'));\n    require(evidenceDuration > 0);\n    uint commitDuration = bbs.getUint(BBLib.toB32('COMMIT_DURATION'));\n    require(commitDuration > 0);\n    uint revealDuration = bbs.getUint(BBLib.toB32('REVEAL_DURATION'));\n    require(revealDuration > 0);\n    // require sender must staked \n    uint256 bboStake = bbs.getUint(BBLib.toB32('STAKED_DEPOSIT'));\n    //require(bbo.transferFrom(msg.sender, address(this), bboStake));\n    // startPoll\n    uint256 pollID = voting.startPoll(proofHash, evidenceDuration, commitDuration, revealDuration);\n    assert(pollID>0);\n    // save poll\n    bbs.setUint(BBLib.toB32(jobID, 'POLL_ID'), pollID);\n    //set status to 6\n    bbs.setUint(BBLib.toB32(jobID ,'JOB_STATUS'), 6);\n    // save staked tokens\n    bbs.setUint(BBLib.toB32(jobID, 'STAKED_DEPOSIT', pollID, msg.sender), bboStake);\n    // save startPoll address\n    bbs.setAddress(BBLib.toB32(jobID, 'POLL_STARTED'), msg.sender);\n    emit DisputeStarted(jobID, msg.sender, pollID);\n  }\n  /**\n  * @dev againstDispute\n  * @param jobID Job ID\n  * @param againstProofHash Hash of Against Proof \n  * \n  */\n  function againstDispute(uint256 jobID, bytes againstProofHash) public \n  {\n    uint256 pID = getPollID(jobID);\n    require(pID > 0);\n    require(canCreatePoll(jobID)==true);\n    require(isDisputingJob(jobID)==true);\n\n    address creator = bbs.getAddress(BBLib.toB32(jobID, 'POLL_STARTED'));\n    require(creator!=0x0);\n    require(creator!=msg.sender);\n    return doAgainstPoll(jobID, againstProofHash, pID, creator);\n  }\n  function doAgainstPoll(uint256 jobID, bytes againstProofHash, uint256 pID, address creator) internal \n  {\n    // require sender must staked bbo equal the creator\n    uint256 bboStake = bbs.getUint(BBLib.toB32(jobID, 'STAKED_DEPOSIT', pID, creator));\n    //require(bbo.transferFrom(msg.sender, address(this), bboStake));\n    bbs.setUint(BBLib.toB32(jobID, 'STAKED_DEPOSIT',pID,msg.sender), bboStake);\n    assert(voting.addPollOption(pID,againstProofHash));\n    emit DisputeAgainsted(jobID, msg.sender, pID);\n  } \n\n  function updateDispute(uint256 jobID,bool whiteFlag) public {\n    require(canCreatePoll(jobID)==true);\n    require(isDisputingJob(jobID)==true);\n    uint256 pollID = getPollID(jobID);\n    (bool isFinished,,, bool hasVote,) = votingHelper.getPollWinner(pollID);\n    require(hasVote!=true);\n    require(isFinished==true);\n    address jobOwner = bbs.getAddress(BBLib.toB32(jobID));\n    address freelancer = bbs.getAddress(BBLib.toB32(jobID,'FREELANCER'));\n    if(whiteFlag == true){\n      bbs.setAddress(BBLib.toB32(jobID, 'DISPUTE_WINNER'), (msg.sender==jobOwner)?freelancer:jobOwner);\n      uint256 bboStake = bbs.getUint(BBLib.toB32(jobID, 'STAKED_DEPOSIT', pollID,jobOwner));\n      //refun money staked for users\n      //require(bbo.transfer(jobOwner, bboStake));\n      //require(bbo.transfer(freelancer, bboStake));\n      // cal finalizePayment\n      assert(voting.updatePoll(pollID, true, 0, 0));\n      assert(payment.finalizeDispute(jobID));\n      \n    }else{\n      uint commitDuration = bbs.getUint(BBLib.toB32('COMMIT_DURATION'));\n      require(commitDuration > 0);\n      uint revealDuration = bbs.getUint(BBLib.toB32('REVEAL_DURATION'));\n      require(revealDuration > 0);\n      assert(voting.updatePoll(pollID, false, commitDuration, revealDuration));\n\n    }\n    emit DisputeUpdated(jobID, msg.sender, whiteFlag);\n  }\n\n  /**\n  * @dev claimReward for poll\n  * @param jobID Job Hash\n  *\n  */\n  function claimReward(uint256 jobID) public {\n    uint256 pollID = getPollID(jobID);\n    require(pollID > 0);\n    //require(bbs.getUint(BBLib.toB32(pollID ,'REVEAL_ENDDATE'))<=now);\n    require(bbs.getBool(BBLib.toB32(pollID ,'REWARD_CLAIMED', msg.sender))!= true);\n    (uint256 numReward,) = calcReward(jobID);\n    require (numReward > 0);\n    // set claimed to true\n    bbs.setBool(BBLib.toB32(pollID ,'REWARD_CLAIMED',msg.sender), true);\n    // todo senBBO\n    //require(bbo.transfer(msg.sender, numReward));\n  }\n  /**\n  * @dev calcReward calculate the reward\n  * @param jobID Job Hash\n  *\n  */\n  function calcReward(uint256 jobID) constant public returns(uint256 numReward, bool win){\n    uint256 pollID = getPollID(jobID);\n    if(bbs.getBool(BBLib.toB32(pollID ,'REWARD_CLAIMED', msg.sender))== false){\n      uint256 userVotes =  votingHelper.getNumPassingTokens(msg.sender, pollID);\n      address creator = bbs.getAddress(BBLib.toB32(jobID, 'POLL_STARTED'));\n      (bool isFinished,, uint256 winnerVotes, bool hasVote, uint256 quorum) = votingHelper.getPollWinner(pollID);\n      if(isFinished==true && hasVote == true){\n        if(userVotes>0 && quorum > 50){\n          uint256 bboStake = bbs.getUint(BBLib.toB32(jobID, 'STAKED_DEPOSIT', pollID,creator));\n          numReward = userVotes.mul(bboStake).div(winnerVotes); // (vote/totalVotes) * staked\n          win = true;\n        }else{\n          numReward = bbs.getUint(BBLib.toB32('BBO_REWARDS'));\n        }\n      }else\n        win = hasVote;\n    }\n  }\n}\n",
  "sourcePath": "/Users/trantho/Code/SmartContract/digital-contracts/src/contracts/BBDispute.sol",
  "compiler": {
    "name": "solc",
    "version": "0.4.24+commit.e67f0147.Emscripten.clang"
  },
  "schemaVersion": "2.0.1",
  "updatedAt": "2018-12-22T03:21:10.417Z"
}