{
  "contractName": "BBDispute",
  "abi": [
    {
      "constant": true,
      "inputs": [],
      "name": "bbo",
      "outputs": [
        {
          "name": "",
          "type": "address"
        }
      ],
      "payable": false,
      "stateMutability": "view",
      "type": "function"
    },
    {
      "constant": true,
      "inputs": [],
      "name": "bbs",
      "outputs": [
        {
          "name": "",
          "type": "address"
        }
      ],
      "payable": false,
      "stateMutability": "view",
      "type": "function"
    },
    {
      "constant": true,
      "inputs": [],
      "name": "payment",
      "outputs": [
        {
          "name": "",
          "type": "address"
        }
      ],
      "payable": false,
      "stateMutability": "view",
      "type": "function"
    },
    {
      "constant": true,
      "inputs": [],
      "name": "votingHelper",
      "outputs": [
        {
          "name": "",
          "type": "address"
        }
      ],
      "payable": false,
      "stateMutability": "view",
      "type": "function"
    },
    {
      "constant": false,
      "inputs": [],
      "name": "renounceOwnership",
      "outputs": [],
      "payable": false,
      "stateMutability": "nonpayable",
      "type": "function"
    },
    {
      "constant": false,
      "inputs": [
        {
          "name": "BBOAddress",
          "type": "address"
        }
      ],
      "name": "setBBO",
      "outputs": [],
      "payable": false,
      "stateMutability": "nonpayable",
      "type": "function"
    },
    {
      "constant": true,
      "inputs": [],
      "name": "owner",
      "outputs": [
        {
          "name": "",
          "type": "address"
        }
      ],
      "payable": false,
      "stateMutability": "view",
      "type": "function"
    },
    {
      "constant": false,
      "inputs": [
        {
          "name": "anyToken",
          "type": "address"
        }
      ],
      "name": "emergencyERC20Drain",
      "outputs": [],
      "payable": false,
      "stateMutability": "nonpayable",
      "type": "function"
    },
    {
      "constant": false,
      "inputs": [
        {
          "name": "storageAddress",
          "type": "address"
        }
      ],
      "name": "setStorage",
      "outputs": [],
      "payable": false,
      "stateMutability": "nonpayable",
      "type": "function"
    },
    {
      "constant": false,
      "inputs": [
        {
          "name": "_newOwner",
          "type": "address"
        }
      ],
      "name": "transferOwnership",
      "outputs": [],
      "payable": false,
      "stateMutability": "nonpayable",
      "type": "function"
    },
    {
      "constant": true,
      "inputs": [],
      "name": "voting",
      "outputs": [
        {
          "name": "",
          "type": "address"
        }
      ],
      "payable": false,
      "stateMutability": "view",
      "type": "function"
    },
    {
      "anonymous": false,
      "inputs": [
        {
          "indexed": true,
          "name": "jobID",
          "type": "uint256"
        },
        {
          "indexed": false,
          "name": "winner",
          "type": "uint256"
        }
      ],
      "name": "DisputeFinalized",
      "type": "event"
    },
    {
      "anonymous": false,
      "inputs": [
        {
          "indexed": true,
          "name": "jobID",
          "type": "uint256"
        },
        {
          "indexed": true,
          "name": "creator",
          "type": "address"
        },
        {
          "indexed": true,
          "name": "pollID",
          "type": "uint256"
        }
      ],
      "name": "DisputeStarted",
      "type": "event"
    },
    {
      "anonymous": false,
      "inputs": [
        {
          "indexed": true,
          "name": "jobID",
          "type": "uint256"
        },
        {
          "indexed": true,
          "name": "creator",
          "type": "address"
        },
        {
          "indexed": true,
          "name": "pollID",
          "type": "uint256"
        }
      ],
      "name": "DisputeAgainsted",
      "type": "event"
    },
    {
      "anonymous": false,
      "inputs": [
        {
          "indexed": true,
          "name": "jobID",
          "type": "uint256"
        },
        {
          "indexed": true,
          "name": "creator",
          "type": "address"
        },
        {
          "indexed": false,
          "name": "whiteFlag",
          "type": "bool"
        }
      ],
      "name": "DisputeUpdated",
      "type": "event"
    },
    {
      "anonymous": false,
      "inputs": [
        {
          "indexed": true,
          "name": "previousOwner",
          "type": "address"
        }
      ],
      "name": "OwnershipRenounced",
      "type": "event"
    },
    {
      "anonymous": false,
      "inputs": [
        {
          "indexed": true,
          "name": "previousOwner",
          "type": "address"
        },
        {
          "indexed": true,
          "name": "newOwner",
          "type": "address"
        }
      ],
      "name": "OwnershipTransferred",
      "type": "event"
    },
    {
      "constant": false,
      "inputs": [
        {
          "name": "p",
          "type": "address"
        }
      ],
      "name": "setPayment",
      "outputs": [],
      "payable": false,
      "stateMutability": "nonpayable",
      "type": "function"
    },
    {
      "constant": false,
      "inputs": [
        {
          "name": "p",
          "type": "address"
        }
      ],
      "name": "setVoting",
      "outputs": [],
      "payable": false,
      "stateMutability": "nonpayable",
      "type": "function"
    },
    {
      "constant": false,
      "inputs": [
        {
          "name": "p",
          "type": "address"
        }
      ],
      "name": "setVotingHelper",
      "outputs": [],
      "payable": false,
      "stateMutability": "nonpayable",
      "type": "function"
    },
    {
      "constant": true,
      "inputs": [
        {
          "name": "jobID",
          "type": "uint256"
        }
      ],
      "name": "isAgaintsDispute",
      "outputs": [
        {
          "name": "r",
          "type": "bool"
        }
      ],
      "payable": false,
      "stateMutability": "view",
      "type": "function"
    },
    {
      "constant": true,
      "inputs": [
        {
          "name": "jobID",
          "type": "uint256"
        }
      ],
      "name": "getPollID",
      "outputs": [
        {
          "name": "r",
          "type": "uint256"
        }
      ],
      "payable": false,
      "stateMutability": "view",
      "type": "function"
    },
    {
      "constant": false,
      "inputs": [
        {
          "name": "jobID",
          "type": "uint256"
        }
      ],
      "name": "finalizeDispute",
      "outputs": [],
      "payable": false,
      "stateMutability": "nonpayable",
      "type": "function"
    },
    {
      "constant": false,
      "inputs": [
        {
          "name": "jobID",
          "type": "uint256"
        },
        {
          "name": "proofHash",
          "type": "bytes"
        }
      ],
      "name": "startDispute",
      "outputs": [],
      "payable": false,
      "stateMutability": "nonpayable",
      "type": "function"
    },
    {
      "constant": false,
      "inputs": [
        {
          "name": "jobID",
          "type": "uint256"
        },
        {
          "name": "againstProofHash",
          "type": "bytes"
        }
      ],
      "name": "againstDispute",
      "outputs": [],
      "payable": false,
      "stateMutability": "nonpayable",
      "type": "function"
    },
    {
      "constant": false,
      "inputs": [
        {
          "name": "jobID",
          "type": "uint256"
        },
        {
          "name": "whiteFlag",
          "type": "bool"
        }
      ],
      "name": "updateDispute",
      "outputs": [],
      "payable": false,
      "stateMutability": "nonpayable",
      "type": "function"
    },
    {
      "constant": false,
      "inputs": [
        {
          "name": "jobID",
          "type": "uint256"
        }
      ],
      "name": "claimReward",
      "outputs": [],
      "payable": false,
      "stateMutability": "nonpayable",
      "type": "function"
    },
    {
      "constant": true,
      "inputs": [
        {
          "name": "jobID",
          "type": "uint256"
        }
      ],
      "name": "calcReward",
      "outputs": [
        {
          "name": "numReward",
          "type": "uint256"
        },
        {
          "name": "win",
          "type": "bool"
        }
      ],
      "payable": false,
      "stateMutability": "view",
      "type": "function"
    }
  ],
  "bytecode": "0x60806040526000600160006101000a81548173ffffffffffffffffffffffffffffffffffffffff021916908373ffffffffffffffffffffffffffffffffffffffff1602179055506000600260006101000a81548173ffffffffffffffffffffffffffffffffffffffff021916908373ffffffffffffffffffffffffffffffffffffffff1602179055506000600360006101000a81548173ffffffffffffffffffffffffffffffffffffffff021916908373ffffffffffffffffffffffffffffffffffffffff1602179055506000600460006101000a81548173ffffffffffffffffffffffffffffffffffffffff021916908373ffffffffffffffffffffffffffffffffffffffff1602179055506000600560006101000a81548173ffffffffffffffffffffffffffffffffffffffff021916908373ffffffffffffffffffffffffffffffffffffffff160217905550336000806101000a81548173ffffffffffffffffffffffffffffffffffffffff021916908373ffffffffffffffffffffffffffffffffffffffff160217905550615cfc8061019d6000396000f300608060405260043610610128576000357c0100000000000000000000000000000000000000000000000000000000900463ffffffff1680631e89bf061461012d5780631fde23a41461018457806323740339146101db57806342f6487a1461021c57806343dc798b146102735780634e508ea4146102ca5780634f6fd7691461033d578063544c465c1461038257806356989a83146103ce578063715018a6146103fb5780637937f46d146104125780637ecd6f76146104555780638da5cb5b146104c857806390e8d82f1461051f5780639137c1a7146105625780639ab06fcb146105a5578063ae169a50146105e8578063c4d0795114610615578063e193289f14610658578063f2fde38b1461069b578063f81b0506146106de578063fce1ccca14610717575b600080fd5b34801561013957600080fd5b5061014261076e565b604051808273ffffffffffffffffffffffffffffffffffffffff1673ffffffffffffffffffffffffffffffffffffffff16815260200191505060405180910390f35b34801561019057600080fd5b50610199610794565b604051808273ffffffffffffffffffffffffffffffffffffffff1673ffffffffffffffffffffffffffffffffffffffff16815260200191505060405180910390f35b3480156101e757600080fd5b50610206600480360381019080803590602001909291905050506107ba565b6040518082815260200191505060405180910390f35b34801561022857600080fd5b506102316108d5565b604051808273ffffffffffffffffffffffffffffffffffffffff1673ffffffffffffffffffffffffffffffffffffffff16815260200191505060405180910390f35b34801561027f57600080fd5b506102886108fb565b604051808273ffffffffffffffffffffffffffffffffffffffff1673ffffffffffffffffffffffffffffffffffffffff16815260200191505060405180910390f35b3480156102d657600080fd5b5061033b60048036038101908080359060200190929190803590602001908201803590602001908080601f0160208091040260200160405190810160405280939291908181526020018383808284378201915050505050509192919290505050610921565b005b34801561034957600080fd5b5061036860048036038101908080359060200190929190505050610afb565b604051808215151515815260200191505060405180910390f35b34801561038e57600080fd5b506103ad60048036038101908080359060200190929190505050610c88565b60405180838152602001821515151581526020019250505060405180910390f35b3480156103da57600080fd5b506103f960048036038101908080359060200190929190505050611377565b005b34801561040757600080fd5b506104106124fa565b005b34801561041e57600080fd5b50610453600480360381019080803573ffffffffffffffffffffffffffffffffffffffff1690602001909291905050506125fc565b005b34801561046157600080fd5b506104c660048036038101908080359060200190929190803590602001908201803590602001908080601f016020809104026020016040519081016040528093929190818152602001838380828437820191505050505050919291929050505061269b565b005b3480156104d457600080fd5b506104dd6127ff565b604051808273ffffffffffffffffffffffffffffffffffffffff1673ffffffffffffffffffffffffffffffffffffffff16815260200191505060405180910390f35b34801561052b57600080fd5b50610560600480360381019080803573ffffffffffffffffffffffffffffffffffffffff169060200190929190505050612824565b005b34801561056e57600080fd5b506105a3600480360381019080803573ffffffffffffffffffffffffffffffffffffffff169060200190929190505050612b38565b005b3480156105b157600080fd5b506105e6600480360381019080803573ffffffffffffffffffffffffffffffffffffffff169060200190929190505050612bd7565b005b3480156105f457600080fd5b5061061360048036038101908080359060200190929190505050612c76565b005b34801561062157600080fd5b50610656600480360381019080803573ffffffffffffffffffffffffffffffffffffffff169060200190929190505050612fe1565b005b34801561066457600080fd5b50610699600480360381019080803573ffffffffffffffffffffffffffffffffffffffff169060200190929190505050613080565b005b3480156106a757600080fd5b506106dc600480360381019080803573ffffffffffffffffffffffffffffffffffffffff16906020019092919050505061311f565b005b3480156106ea57600080fd5b50610715600480360381019080803590602001909291908035151590602001909291905050506131de565b005b34801561072357600080fd5b5061072c613f35565b604051808273ffffffffffffffffffffffffffffffffffffffff1673ffffffffffffffffffffffffffffffffffffffff16815260200191505060405180910390f35b600260009054906101000a900473ffffffffffffffffffffffffffffffffffffffff1681565b600160009054906101000a900473ffffffffffffffffffffffffffffffffffffffff1681565b6000600160009054906101000a900473ffffffffffffffffffffffffffffffffffffffff1673ffffffffffffffffffffffffffffffffffffffff1663bd02d0f5610839846040805190810160405280600781526020017f504f4c4c5f494400000000000000000000000000000000000000000000000000815250613f5b565b6040518263ffffffff167c0100000000000000000000000000000000000000000000000000000000028152600401808260001916600019168152602001915050602060405180830381600087803b15801561089357600080fd5b505af11580156108a7573d6000803e3d6000fd5b505050506040513d60208110156108bd57600080fd5b81019080805190602001909291905050509050919050565b600360009054906101000a900473ffffffffffffffffffffffffffffffffffffffff1681565b600560009054906101000a900473ffffffffffffffffffffffffffffffffffffffff1681565b60008061092d846107ba565b915060008211151561093e57600080fd5b6001151561094b8561403c565b151514151561095957600080fd5b60011515610966856142a1565b151514151561097457600080fd5b600160009054906101000a900473ffffffffffffffffffffffffffffffffffffffff1673ffffffffffffffffffffffffffffffffffffffff166321f8a7216109f1866040805190810160405280600c81526020017f504f4c4c5f535441525445440000000000000000000000000000000000000000815250613f5b565b6040518263ffffffff167c0100000000000000000000000000000000000000000000000000000000028152600401808260001916600019168152602001915050602060405180830381600087803b158015610a4b57600080fd5b505af1158015610a5f573d6000803e3d6000fd5b505050506040513d6020811015610a7557600080fd5b8101908080519060200190929190505050905060008173ffffffffffffffffffffffffffffffffffffffff1614151515610aae57600080fd5b3373ffffffffffffffffffffffffffffffffffffffff168173ffffffffffffffffffffffffffffffffffffffff1614151515610ae957600080fd5b610af584848484614513565b50505050565b60006060600560009054906101000a900473ffffffffffffffffffffffffffffffffffffffff1673ffffffffffffffffffffffffffffffffffffffff1663c888fcc3610b46856107ba565b6040518263ffffffff167c010000000000000000000000000000000000000000000000000000000002815260040180828152602001915050600060405180830381600087803b158015610b9857600080fd5b505af1158015610bac573d6000803e3d6000fd5b505050506040513d6000823e3d601f19601f820116820180604052506040811015610bd657600080fd5b810190808051640100000000811115610bee57600080fd5b82810190506020810184811115610c0457600080fd5b8151856020820283011164010000000082111715610c2157600080fd5b50509291906020018051640100000000811115610c3d57600080fd5b82810190506020810184811115610c5357600080fd5b8151856020820283011164010000000082111715610c7057600080fd5b50509291905050505090506002815111915050919050565b600080600080600080600080600080610ca08b6107ba565b975060001515600160009054906101000a900473ffffffffffffffffffffffffffffffffffffffff1673ffffffffffffffffffffffffffffffffffffffff16637ae1cfca610d248b6040805190810160405280600e81526020017f5245574152445f434c41494d4544000000000000000000000000000000000000815250336149f0565b6040518263ffffffff167c0100000000000000000000000000000000000000000000000000000000028152600401808260001916600019168152602001915050602060405180830381600087803b158015610d7e57600080fd5b505af1158015610d92573d6000803e3d6000fd5b505050506040513d6020811015610da857600080fd5b81019080805190602001909291905050501515141561136a57600560009054906101000a900473ffffffffffffffffffffffffffffffffffffffff1673ffffffffffffffffffffffffffffffffffffffff16630c03fbd7338a6040518363ffffffff167c0100000000000000000000000000000000000000000000000000000000028152600401808373ffffffffffffffffffffffffffffffffffffffff1673ffffffffffffffffffffffffffffffffffffffff16815260200182815260200192505050602060405180830381600087803b158015610e8657600080fd5b505af1158015610e9a573d6000803e3d6000fd5b505050506040513d6020811015610eb057600080fd5b81019080805190602001909291905050509650600160009054906101000a900473ffffffffffffffffffffffffffffffffffffffff1673ffffffffffffffffffffffffffffffffffffffff166321f8a721610f408d6040805190810160405280600c81526020017f504f4c4c5f535441525445440000000000000000000000000000000000000000815250613f5b565b6040518263ffffffff167c0100000000000000000000000000000000000000000000000000000000028152600401808260001916600019168152602001915050602060405180830381600087803b158015610f9a57600080fd5b505af1158015610fae573d6000803e3d6000fd5b505050506040513d6020811015610fc457600080fd5b81019080805190602001909291905050509550600560009054906101000a900473ffffffffffffffffffffffffffffffffffffffff1673ffffffffffffffffffffffffffffffffffffffff1663b6990ee1896040518263ffffffff167c01000000000000000000000000000000000000000000000000000000000281526004018082815260200191505060a060405180830381600087803b15801561106857600080fd5b505af115801561107c573d6000803e3d6000fd5b505050506040513d60a081101561109257600080fd5b810190808051906020019092919080519060200190929190805190602001909291908051906020019092919080519060200190929190505050955095509550509450600115158515151480156110ec575060011515831515145b15611365576000871180156111015750603282115b1561124c57600160009054906101000a900473ffffffffffffffffffffffffffffffffffffffff1673ffffffffffffffffffffffffffffffffffffffff1663bd02d0f56111858d6040805190810160405280600e81526020017f5354414b45445f4445504f5349540000000000000000000000000000000000008152508c8b614b15565b6040518263ffffffff167c0100000000000000000000000000000000000000000000000000000000028152600401808260001916600019168152602001915050602060405180830381600087803b1580156111df57600080fd5b505af11580156111f3573d6000803e3d6000fd5b505050506040513d602081101561120957600080fd5b8101908080519060200190929190505050905061124184611233838a614c4390919063ffffffff16565b614c7b90919063ffffffff16565b995060019850611360565b600160009054906101000a900473ffffffffffffffffffffffffffffffffffffffff1673ffffffffffffffffffffffffffffffffffffffff1663bd02d0f56112c86040805190810160405280600b81526020017f42424f5f52455741524453000000000000000000000000000000000000000000815250614c91565b6040518263ffffffff167c0100000000000000000000000000000000000000000000000000000000028152600401808260001916600019168152602001915050602060405180830381600087803b15801561132257600080fd5b505af1158015611336573d6000803e3d6000fd5b505050506040513d602081101561134c57600080fd5b810190808051906020019092919050505099505b611369565b8298505b5b5050505050505050915091565b600080600080600080600080600061138e8a6107ba565b9850600560009054906101000a900473ffffffffffffffffffffffffffffffffffffffff1673ffffffffffffffffffffffffffffffffffffffff1663b6990ee18a6040518263ffffffff167c01000000000000000000000000000000000000000000000000000000000281526004018082815260200191505060a060405180830381600087803b15801561142157600080fd5b505af1158015611435573d6000803e3d6000fd5b505050506040513d60a081101561144b57600080fd5b8101908080519060200190929190805190602001909291908051906020019092919080519060200190929190805190602001909291905050509950505097509750600115156114998b6142a1565b15151415156114a757600080fd5b600160009054906101000a900473ffffffffffffffffffffffffffffffffffffffff1673ffffffffffffffffffffffffffffffffffffffff166321f8a7216115248c6040805190810160405280600c81526020017f504f4c4c5f535441525445440000000000000000000000000000000000000000815250613f5b565b6040518263ffffffff167c0100000000000000000000000000000000000000000000000000000000028152600401808260001916600019168152602001915050602060405180830381600087803b15801561157e57600080fd5b505af1158015611592573d6000803e3d6000fd5b505050506040513d60208110156115a857600080fd5b81019080805190602001909291905050509450600073ffffffffffffffffffffffffffffffffffffffff168573ffffffffffffffffffffffffffffffffffffffff16141515156115f757600080fd5b600560009054906101000a900473ffffffffffffffffffffffffffffffffffffffff1673ffffffffffffffffffffffffffffffffffffffff1663b85fb20f8a6040518263ffffffff167c01000000000000000000000000000000000000000000000000000000000281526004018082815260200191505060a060405180830381600087803b15801561168857600080fd5b505af115801561169c573d6000803e3d6000fd5b505050506040513d60a08110156116b257600080fd5b81019080805190602001909291908051906020019092919080519060200190929190805190602001909291908051906020019092919050505050509550505042841115151561170057600080fd5b600160009054906101000a900473ffffffffffffffffffffffffffffffffffffffff1673ffffffffffffffffffffffffffffffffffffffff1663bd02d0f561177f8c6040805190810160405280600e81526020017f5354414b45445f4445504f5349540000000000000000000000000000000000008152508d8a614b15565b6040518263ffffffff167c0100000000000000000000000000000000000000000000000000000000028152600401808260001916600019168152602001915050602060405180830381600087803b1580156117d957600080fd5b505af11580156117ed573d6000803e3d6000fd5b505050506040513d602081101561180357600080fd5b8101908080519060200190929190505050925061181f8a610afb565b1515611b2c57600160009054906101000a900473ffffffffffffffffffffffffffffffffffffffff1673ffffffffffffffffffffffffffffffffffffffff1663ca446dd96118a28c6040805190810160405280600e81526020017f444953505554455f57494e4e4552000000000000000000000000000000000000815250613f5b565b876040518363ffffffff167c01000000000000000000000000000000000000000000000000000000000281526004018083600019166000191681526020018273ffffffffffffffffffffffffffffffffffffffff1673ffffffffffffffffffffffffffffffffffffffff16815260200192505050600060405180830381600087803b15801561193057600080fd5b505af1158015611944573d6000803e3d6000fd5b50505050600260009054906101000a900473ffffffffffffffffffffffffffffffffffffffff1673ffffffffffffffffffffffffffffffffffffffff1663a9059cbb86856040518363ffffffff167c0100000000000000000000000000000000000000000000000000000000028152600401808373ffffffffffffffffffffffffffffffffffffffff1673ffffffffffffffffffffffffffffffffffffffff16815260200182815260200192505050602060405180830381600087803b158015611a0d57600080fd5b505af1158015611a21573d6000803e3d6000fd5b505050506040513d6020811015611a3757600080fd5b81019080805190602001909291905050501515611a5357600080fd5b600360009054906101000a900473ffffffffffffffffffffffffffffffffffffffff1673ffffffffffffffffffffffffffffffffffffffff166356989a838b6040518263ffffffff167c010000000000000000000000000000000000000000000000000000000002815260040180828152602001915050602060405180830381600087803b158015611ae457600080fd5b505af1158015611af8573d6000803e3d6000fd5b505050506040513d6020811015611b0e57600080fd5b81019080805190602001909291905050501515611b2757fe5b6124b6565b60011515881515141515611b3f57600080fd5b600160009054906101000a900473ffffffffffffffffffffffffffffffffffffffff1673ffffffffffffffffffffffffffffffffffffffff166321f8a721611b868c614d69565b6040518263ffffffff167c0100000000000000000000000000000000000000000000000000000000028152600401808260001916600019168152602001915050602060405180830381600087803b158015611be057600080fd5b505af1158015611bf4573d6000803e3d6000fd5b505050506040513d6020811015611c0a57600080fd5b81019080805190602001909291905050509150600160009054906101000a900473ffffffffffffffffffffffffffffffffffffffff1673ffffffffffffffffffffffffffffffffffffffff166321f8a721611c9a8c6040805190810160405280600a81526020017f465245454c414e43455200000000000000000000000000000000000000000000815250613f5b565b6040518263ffffffff167c0100000000000000000000000000000000000000000000000000000000028152600401808260001916600019168152602001915050602060405180830381600087803b158015611cf457600080fd5b505af1158015611d08573d6000803e3d6000fd5b505050506040513d6020811015611d1e57600080fd5b810190808051906020019092919050505090506000871480611d405750603286145b1561205857600260009054906101000a900473ffffffffffffffffffffffffffffffffffffffff1673ffffffffffffffffffffffffffffffffffffffff1663a9059cbb83856040518363ffffffff167c0100000000000000000000000000000000000000000000000000000000028152600401808373ffffffffffffffffffffffffffffffffffffffff1673ffffffffffffffffffffffffffffffffffffffff16815260200182815260200192505050602060405180830381600087803b158015611e0a57600080fd5b505af1158015611e1e573d6000803e3d6000fd5b505050506040513d6020811015611e3457600080fd5b81019080805190602001909291905050501515611e5057600080fd5b600260009054906101000a900473ffffffffffffffffffffffffffffffffffffffff1673ffffffffffffffffffffffffffffffffffffffff1663a9059cbb82856040518363ffffffff167c0100000000000000000000000000000000000000000000000000000000028152600401808373ffffffffffffffffffffffffffffffffffffffff1673ffffffffffffffffffffffffffffffffffffffff16815260200182815260200192505050602060405180830381600087803b158015611f1557600080fd5b505af1158015611f29573d6000803e3d6000fd5b505050506040513d6020811015611f3f57600080fd5b81019080805190602001909291905050501515611f5b57600080fd5b600160009054906101000a900473ffffffffffffffffffffffffffffffffffffffff1673ffffffffffffffffffffffffffffffffffffffff1663e2a4853a611fd88c6040805190810160405280600a81526020017f4a4f425f53544154555300000000000000000000000000000000000000000000815250613f5b565b60046040518363ffffffff167c010000000000000000000000000000000000000000000000000000000002815260040180836000191660001916815260200182815260200192505050600060405180830381600087803b15801561203b57600080fd5b505af115801561204f573d6000803e3d6000fd5b505050506124b5565b600160009054906101000a900473ffffffffffffffffffffffffffffffffffffffff1673ffffffffffffffffffffffffffffffffffffffff1663ca446dd96120d58c6040805190810160405280600e81526020017f444953505554455f57494e4e4552000000000000000000000000000000000000815250613f5b565b60018a1461211d578473ffffffffffffffffffffffffffffffffffffffff168873ffffffffffffffffffffffffffffffffffffffff16146121165784612118565b835b61211f565b875b6040518363ffffffff167c01000000000000000000000000000000000000000000000000000000000281526004018083600019166000191681526020018273ffffffffffffffffffffffffffffffffffffffff1673ffffffffffffffffffffffffffffffffffffffff16815260200192505050600060405180830381600087803b1580156121ac57600080fd5b505af11580156121c0573d6000803e3d6000fd5b50505050600260009054906101000a900473ffffffffffffffffffffffffffffffffffffffff1673ffffffffffffffffffffffffffffffffffffffff1663a9059cbb600160009054906101000a900473ffffffffffffffffffffffffffffffffffffffff1673ffffffffffffffffffffffffffffffffffffffff166321f8a72161227f8e6040805190810160405280600e81526020017f444953505554455f57494e4e4552000000000000000000000000000000000000815250613f5b565b6040518263ffffffff167c0100000000000000000000000000000000000000000000000000000000028152600401808260001916600019168152602001915050602060405180830381600087803b1580156122d957600080fd5b505af11580156122ed573d6000803e3d6000fd5b505050506040513d602081101561230357600080fd5b8101908080519060200190929190505050856040518363ffffffff167c0100000000000000000000000000000000000000000000000000000000028152600401808373ffffffffffffffffffffffffffffffffffffffff1673ffffffffffffffffffffffffffffffffffffffff16815260200182815260200192505050602060405180830381600087803b15801561239a57600080fd5b505af11580156123ae573d6000803e3d6000fd5b505050506040513d60208110156123c457600080fd5b810190808051906020019092919050505015156123e057600080fd5b600360009054906101000a900473ffffffffffffffffffffffffffffffffffffffff1673ffffffffffffffffffffffffffffffffffffffff166356989a838b6040518263ffffffff167c010000000000000000000000000000000000000000000000000000000002815260040180828152602001915050602060405180830381600087803b15801561247157600080fd5b505af1158015612485573d6000803e3d6000fd5b505050506040513d602081101561249b57600080fd5b810190808051906020019092919050505015156124b457fe5b5b5b897f22628b04f751425420531455ea6f4c72908cb490253def3f4c4762c099f30ee9886040518082815260200191505060405180910390a250505050505050505050565b6000809054906101000a900473ffffffffffffffffffffffffffffffffffffffff1673ffffffffffffffffffffffffffffffffffffffff163373ffffffffffffffffffffffffffffffffffffffff1614151561255557600080fd5b6000809054906101000a900473ffffffffffffffffffffffffffffffffffffffff1673ffffffffffffffffffffffffffffffffffffffff167ff8df31144d9c2f0f6b59d69b8b98abd5459d07f2742c4df920b25aae33c6482060405160405180910390a260008060006101000a81548173ffffffffffffffffffffffffffffffffffffffff021916908373ffffffffffffffffffffffffffffffffffffffff160217905550565b6000809054906101000a900473ffffffffffffffffffffffffffffffffffffffff1673ffffffffffffffffffffffffffffffffffffffff163373ffffffffffffffffffffffffffffffffffffffff1614151561265757600080fd5b80600260006101000a81548173ffffffffffffffffffffffffffffffffffffffff021916908373ffffffffffffffffffffffffffffffffffffffff16021790555050565b600115156126a883614df4565b15151415156126b657600080fd5b600115156126c38361403c565b15151415156126d157600080fd5b6000600160009054906101000a900473ffffffffffffffffffffffffffffffffffffffff1673ffffffffffffffffffffffffffffffffffffffff1663bd02d0f5612750856040805190810160405280600781526020017f504f4c4c5f494400000000000000000000000000000000000000000000000000815250613f5b565b6040518263ffffffff167c0100000000000000000000000000000000000000000000000000000000028152600401808260001916600019168152602001915050602060405180830381600087803b1580156127aa57600080fd5b505af11580156127be573d6000803e3d6000fd5b505050506040513d60208110156127d457600080fd5b81019080805190602001909291905050501415156127f157600080fd5b6127fb8282615066565b5050565b6000809054906101000a900473ffffffffffffffffffffffffffffffffffffffff1681565b6000809054906101000a900473ffffffffffffffffffffffffffffffffffffffff1673ffffffffffffffffffffffffffffffffffffffff163373ffffffffffffffffffffffffffffffffffffffff1614151561287f57600080fd5b60003073ffffffffffffffffffffffffffffffffffffffff1631111561291f576000809054906101000a900473ffffffffffffffffffffffffffffffffffffffff1673ffffffffffffffffffffffffffffffffffffffff166108fc3073ffffffffffffffffffffffffffffffffffffffff16319081150290604051600060405180830381858888f1935050505015801561291d573d6000803e3d6000fd5b505b600073ffffffffffffffffffffffffffffffffffffffff168173ffffffffffffffffffffffffffffffffffffffff16141515612b35578073ffffffffffffffffffffffffffffffffffffffff1663a9059cbb6000809054906101000a900473ffffffffffffffffffffffffffffffffffffffff168373ffffffffffffffffffffffffffffffffffffffff166370a08231306040518263ffffffff167c0100000000000000000000000000000000000000000000000000000000028152600401808273ffffffffffffffffffffffffffffffffffffffff1673ffffffffffffffffffffffffffffffffffffffff168152602001915050602060405180830381600087803b158015612a2e57600080fd5b505af1158015612a42573d6000803e3d6000fd5b505050506040513d6020811015612a5857600080fd5b81019080805190602001909291905050506040518363ffffffff167c0100000000000000000000000000000000000000000000000000000000028152600401808373ffffffffffffffffffffffffffffffffffffffff1673ffffffffffffffffffffffffffffffffffffffff16815260200182815260200192505050602060405180830381600087803b158015612aee57600080fd5b505af1158015612b02573d6000803e3d6000fd5b505050506040513d6020811015612b1857600080fd5b81019080805190602001909291905050501515612b3457600080fd5b5b50565b6000809054906101000a900473ffffffffffffffffffffffffffffffffffffffff1673ffffffffffffffffffffffffffffffffffffffff163373ffffffffffffffffffffffffffffffffffffffff16141515612b9357600080fd5b80600160006101000a81548173ffffffffffffffffffffffffffffffffffffffff021916908373ffffffffffffffffffffffffffffffffffffffff16021790555050565b6000809054906101000a900473ffffffffffffffffffffffffffffffffffffffff1673ffffffffffffffffffffffffffffffffffffffff163373ffffffffffffffffffffffffffffffffffffffff16141515612c3257600080fd5b80600360006101000a81548173ffffffffffffffffffffffffffffffffffffffff021916908373ffffffffffffffffffffffffffffffffffffffff16021790555050565b600080612c82836107ba565b9150600082111515612c9357600080fd5b60011515600160009054906101000a900473ffffffffffffffffffffffffffffffffffffffff1673ffffffffffffffffffffffffffffffffffffffff16637ae1cfca612d15856040805190810160405280600e81526020017f5245574152445f434c41494d4544000000000000000000000000000000000000815250336149f0565b6040518263ffffffff167c0100000000000000000000000000000000000000000000000000000000028152600401808260001916600019168152602001915050602060405180830381600087803b158015612d6f57600080fd5b505af1158015612d83573d6000803e3d6000fd5b505050506040513d6020811015612d9957600080fd5b8101908080519060200190929190505050151514151515612db957600080fd5b612dc283610c88565b509050600081111515612dd457600080fd5b600160009054906101000a900473ffffffffffffffffffffffffffffffffffffffff1673ffffffffffffffffffffffffffffffffffffffff1663abfdcced612e52846040805190810160405280600e81526020017f5245574152445f434c41494d4544000000000000000000000000000000000000815250336149f0565b60016040518363ffffffff167c01000000000000000000000000000000000000000000000000000000000281526004018083600019166000191681526020018215151515815260200192505050600060405180830381600087803b158015612eb957600080fd5b505af1158015612ecd573d6000803e3d6000fd5b50505050600260009054906101000a900473ffffffffffffffffffffffffffffffffffffffff1673ffffffffffffffffffffffffffffffffffffffff1663a9059cbb33836040518363ffffffff167c0100000000000000000000000000000000000000000000000000000000028152600401808373ffffffffffffffffffffffffffffffffffffffff1673ffffffffffffffffffffffffffffffffffffffff16815260200182815260200192505050602060405180830381600087803b158015612f9657600080fd5b505af1158015612faa573d6000803e3d6000fd5b505050506040513d6020811015612fc057600080fd5b81019080805190602001909291905050501515612fdc57600080fd5b505050565b6000809054906101000a900473ffffffffffffffffffffffffffffffffffffffff1673ffffffffffffffffffffffffffffffffffffffff163373ffffffffffffffffffffffffffffffffffffffff1614151561303c57600080fd5b80600460006101000a81548173ffffffffffffffffffffffffffffffffffffffff021916908373ffffffffffffffffffffffffffffffffffffffff16021790555050565b6000809054906101000a900473ffffffffffffffffffffffffffffffffffffffff1673ffffffffffffffffffffffffffffffffffffffff163373ffffffffffffffffffffffffffffffffffffffff161415156130db57600080fd5b80600560006101000a81548173ffffffffffffffffffffffffffffffffffffffff021916908373ffffffffffffffffffffffffffffffffffffffff16021790555050565b600073ffffffffffffffffffffffffffffffffffffffff166000809054906101000a900473ffffffffffffffffffffffffffffffffffffffff1673ffffffffffffffffffffffffffffffffffffffff161415156131d2576000809054906101000a900473ffffffffffffffffffffffffffffffffffffffff1673ffffffffffffffffffffffffffffffffffffffff163373ffffffffffffffffffffffffffffffffffffffff161415156131d157600080fd5b5b6131db81615bd6565b50565b600080600080600080600080600115156131f78b61403c565b151514151561320557600080fd5b600115156132128b6142a1565b151514151561322057600080fd5b6132298a6107ba565b9750600560009054906101000a900473ffffffffffffffffffffffffffffffffffffffff1673ffffffffffffffffffffffffffffffffffffffff1663b6990ee1896040518263ffffffff167c01000000000000000000000000000000000000000000000000000000000281526004018082815260200191505060a060405180830381600087803b1580156132bc57600080fd5b505af11580156132d0573d6000803e3d6000fd5b505050506040513d60a08110156132e657600080fd5b81019080805190602001909291908051906020019092919080519060200190929190805190602001909291908051906020019092919050505050985050509650600115158615151415151561333a57600080fd5b6001151587151514151561334d57600080fd5b600160009054906101000a900473ffffffffffffffffffffffffffffffffffffffff1673ffffffffffffffffffffffffffffffffffffffff166321f8a7216133948c614d69565b6040518263ffffffff167c0100000000000000000000000000000000000000000000000000000000028152600401808260001916600019168152602001915050602060405180830381600087803b1580156133ee57600080fd5b505af1158015613402573d6000803e3d6000fd5b505050506040513d602081101561341857600080fd5b81019080805190602001909291905050509450600160009054906101000a900473ffffffffffffffffffffffffffffffffffffffff1673ffffffffffffffffffffffffffffffffffffffff166321f8a7216134a88c6040805190810160405280600a81526020017f465245454c414e43455200000000000000000000000000000000000000000000815250613f5b565b6040518263ffffffff167c0100000000000000000000000000000000000000000000000000000000028152600401808260001916600019168152602001915050602060405180830381600087803b15801561350257600080fd5b505af1158015613516573d6000803e3d6000fd5b505050506040513d602081101561352c57600080fd5b81019080805190602001909291905050509350600115158915151415613ba057600160009054906101000a900473ffffffffffffffffffffffffffffffffffffffff1673ffffffffffffffffffffffffffffffffffffffff1663ca446dd96135c98c6040805190810160405280600e81526020017f444953505554455f57494e4e4552000000000000000000000000000000000000815250613f5b565b8773ffffffffffffffffffffffffffffffffffffffff163373ffffffffffffffffffffffffffffffffffffffff16146136025787613604565b865b6040518363ffffffff167c01000000000000000000000000000000000000000000000000000000000281526004018083600019166000191681526020018273ffffffffffffffffffffffffffffffffffffffff1673ffffffffffffffffffffffffffffffffffffffff16815260200192505050600060405180830381600087803b15801561369157600080fd5b505af11580156136a5573d6000803e3d6000fd5b50505050600160009054906101000a900473ffffffffffffffffffffffffffffffffffffffff1673ffffffffffffffffffffffffffffffffffffffff1663bd02d0f56137288c6040805190810160405280600e81526020017f5354414b45445f4445504f5349540000000000000000000000000000000000008152508c8a614b15565b6040518263ffffffff167c0100000000000000000000000000000000000000000000000000000000028152600401808260001916600019168152602001915050602060405180830381600087803b15801561378257600080fd5b505af1158015613796573d6000803e3d6000fd5b505050506040513d60208110156137ac57600080fd5b81019080805190602001909291905050509250600260009054906101000a900473ffffffffffffffffffffffffffffffffffffffff1673ffffffffffffffffffffffffffffffffffffffff1663a9059cbb86856040518363ffffffff167c0100000000000000000000000000000000000000000000000000000000028152600401808373ffffffffffffffffffffffffffffffffffffffff1673ffffffffffffffffffffffffffffffffffffffff16815260200182815260200192505050602060405180830381600087803b15801561388457600080fd5b505af1158015613898573d6000803e3d6000fd5b505050506040513d60208110156138ae57600080fd5b810190808051906020019092919050505015156138ca57600080fd5b600260009054906101000a900473ffffffffffffffffffffffffffffffffffffffff1673ffffffffffffffffffffffffffffffffffffffff1663a9059cbb85856040518363ffffffff167c0100000000000000000000000000000000000000000000000000000000028152600401808373ffffffffffffffffffffffffffffffffffffffff1673ffffffffffffffffffffffffffffffffffffffff16815260200182815260200192505050602060405180830381600087803b15801561398f57600080fd5b505af11580156139a3573d6000803e3d6000fd5b505050506040513d60208110156139b957600080fd5b810190808051906020019092919050505015156139d557600080fd5b600460009054906101000a900473ffffffffffffffffffffffffffffffffffffffff1673ffffffffffffffffffffffffffffffffffffffff1663b0cbea9f8960016000806040518563ffffffff167c01000000000000000000000000000000000000000000000000000000000281526004018085815260200184151515158152602001838152602001828152602001945050505050602060405180830381600087803b158015613a8457600080fd5b505af1158015613a98573d6000803e3d6000fd5b505050506040513d6020811015613aae57600080fd5b81019080805190602001909291905050501515613ac757fe5b600360009054906101000a900473ffffffffffffffffffffffffffffffffffffffff1673ffffffffffffffffffffffffffffffffffffffff166356989a838b6040518263ffffffff167c010000000000000000000000000000000000000000000000000000000002815260040180828152602001915050602060405180830381600087803b158015613b5857600080fd5b505af1158015613b6c573d6000803e3d6000fd5b505050506040513d6020811015613b8257600080fd5b81019080805190602001909291905050501515613b9b57fe5b613ed6565b600160009054906101000a900473ffffffffffffffffffffffffffffffffffffffff1673ffffffffffffffffffffffffffffffffffffffff1663bd02d0f5613c1c6040805190810160405280600f81526020017f434f4d4d49545f4455524154494f4e0000000000000000000000000000000000815250614c91565b6040518263ffffffff167c0100000000000000000000000000000000000000000000000000000000028152600401808260001916600019168152602001915050602060405180830381600087803b158015613c7657600080fd5b505af1158015613c8a573d6000803e3d6000fd5b505050506040513d6020811015613ca057600080fd5b81019080805190602001909291905050509150600082111515613cc257600080fd5b600160009054906101000a900473ffffffffffffffffffffffffffffffffffffffff1673ffffffffffffffffffffffffffffffffffffffff1663bd02d0f5613d3e6040805190810160405280600f81526020017f52455645414c5f4455524154494f4e0000000000000000000000000000000000815250614c91565b6040518263ffffffff167c0100000000000000000000000000000000000000000000000000000000028152600401808260001916600019168152602001915050602060405180830381600087803b158015613d9857600080fd5b505af1158015613dac573d6000803e3d6000fd5b505050506040513d6020811015613dc257600080fd5b81019080805190602001909291905050509050600081111515613de457600080fd5b600460009054906101000a900473ffffffffffffffffffffffffffffffffffffffff1673ffffffffffffffffffffffffffffffffffffffff1663b0cbea9f89600085856040518563ffffffff167c01000000000000000000000000000000000000000000000000000000000281526004018085815260200184151515158152602001838152602001828152602001945050505050602060405180830381600087803b158015613e9257600080fd5b505af1158015613ea6573d6000803e3d6000fd5b505050506040513d6020811015613ebc57600080fd5b81019080805190602001909291905050501515613ed557fe5b5b3373ffffffffffffffffffffffffffffffffffffffff168a7f68a603f0e539410f1a050040d440940ace3ca22853ca93f5b6f034fb075e11e98b604051808215151515815260200191505060405180910390a350505050505050505050565b600460009054906101000a900473ffffffffffffffffffffffffffffffffffffffff1681565b600082826040516020018083815260200182805190602001908083835b602083101515613f9d5780518252602082019150602081019050602083039250613f78565b6001836020036101000a038019825116818451168082178552505050505050905001925050506040516020818303038152906040526040518082805190602001908083835b6020831015156140075780518252602082019150602081019050602083039250613fe2565b6001836020036101000a0380198251168184511680821785525050505050509050019150506040518091039020905092915050565b6000806000600160009054906101000a900473ffffffffffffffffffffffffffffffffffffffff1673ffffffffffffffffffffffffffffffffffffffff166321f8a72161408886614d69565b6040518263ffffffff167c0100000000000000000000000000000000000000000000000000000000028152600401808260001916600019168152602001915050602060405180830381600087803b1580156140e257600080fd5b505af11580156140f6573d6000803e3d6000fd5b505050506040513d602081101561410c57600080fd5b81019080805190602001909291905050509150600160009054906101000a900473ffffffffffffffffffffffffffffffffffffffff1673ffffffffffffffffffffffffffffffffffffffff166321f8a72161419c866040805190810160405280600a81526020017f465245454c414e43455200000000000000000000000000000000000000000000815250613f5b565b6040518263ffffffff167c0100000000000000000000000000000000000000000000000000000000028152600401808260001916600019168152602001915050602060405180830381600087803b1580156141f657600080fd5b505af115801561420a573d6000803e3d6000fd5b505050506040513d602081101561422057600080fd5b810190808051906020019092919050505090508173ffffffffffffffffffffffffffffffffffffffff163373ffffffffffffffffffffffffffffffffffffffff16148061429857508073ffffffffffffffffffffffffffffffffffffffff163373ffffffffffffffffffffffffffffffffffffffff16145b92505050919050565b6000806000600160009054906101000a900473ffffffffffffffffffffffffffffffffffffffff1673ffffffffffffffffffffffffffffffffffffffff1663bd02d0f5614323866040805190810160405280600a81526020017f4a4f425f53544154555300000000000000000000000000000000000000000000815250613f5b565b6040518263ffffffff167c0100000000000000000000000000000000000000000000000000000000028152600401808260001916600019168152602001915050602060405180830381600087803b15801561437d57600080fd5b505af1158015614391573d6000803e3d6000fd5b505050506040513d60208110156143a757600080fd5b81019080805190602001909291905050509150600160009054906101000a900473ffffffffffffffffffffffffffffffffffffffff1673ffffffffffffffffffffffffffffffffffffffff166321f8a721614437866040805190810160405280600e81526020017f444953505554455f57494e4e4552000000000000000000000000000000000000815250613f5b565b6040518263ffffffff167c0100000000000000000000000000000000000000000000000000000000028152600401808260001916600019168152602001915050602060405180830381600087803b15801561449157600080fd5b505af11580156144a5573d6000803e3d6000fd5b505050506040513d60208110156144bb57600080fd5b8101908080519060200190929190505050905060068214801561450a5750600073ffffffffffffffffffffffffffffffffffffffff168173ffffffffffffffffffffffffffffffffffffffff16145b92505050919050565b6000600160009054906101000a900473ffffffffffffffffffffffffffffffffffffffff1673ffffffffffffffffffffffffffffffffffffffff1663bd02d0f5614594876040805190810160405280600e81526020017f5354414b45445f4445504f5349540000000000000000000000000000000000008152508787614b15565b6040518263ffffffff167c0100000000000000000000000000000000000000000000000000000000028152600401808260001916600019168152602001915050602060405180830381600087803b1580156145ee57600080fd5b505af1158015614602573d6000803e3d6000fd5b505050506040513d602081101561461857600080fd5b81019080805190602001909291905050509050600260009054906101000a900473ffffffffffffffffffffffffffffffffffffffff1673ffffffffffffffffffffffffffffffffffffffff166323b872dd3330846040518463ffffffff167c0100000000000000000000000000000000000000000000000000000000028152600401808473ffffffffffffffffffffffffffffffffffffffff1673ffffffffffffffffffffffffffffffffffffffff1681526020018373ffffffffffffffffffffffffffffffffffffffff1673ffffffffffffffffffffffffffffffffffffffff1681526020018281526020019350505050602060405180830381600087803b15801561472457600080fd5b505af1158015614738573d6000803e3d6000fd5b505050506040513d602081101561474e57600080fd5b8101908080519060200190929190505050151561476a57600080fd5b600160009054906101000a900473ffffffffffffffffffffffffffffffffffffffff1673ffffffffffffffffffffffffffffffffffffffff1663e2a4853a6147e9876040805190810160405280600e81526020017f5354414b45445f4445504f5349540000000000000000000000000000000000008152508733614b15565b836040518363ffffffff167c010000000000000000000000000000000000000000000000000000000002815260040180836000191660001916815260200182815260200192505050600060405180830381600087803b15801561484b57600080fd5b505af115801561485f573d6000803e3d6000fd5b50505050600460009054906101000a900473ffffffffffffffffffffffffffffffffffffffff1673ffffffffffffffffffffffffffffffffffffffff1663cbff158f84866040518363ffffffff167c01000000000000000000000000000000000000000000000000000000000281526004018083815260200180602001828103825283818151815260200191508051906020019080838360005b838110156149145780820151818401526020810190506148f9565b50505050905090810190601f1680156149415780820380516001836020036101000a031916815260200191505b509350505050602060405180830381600087803b15801561496157600080fd5b505af1158015614975573d6000803e3d6000fd5b505050506040513d602081101561498b57600080fd5b810190808051906020019092919050505015156149a457fe5b823373ffffffffffffffffffffffffffffffffffffffff16867f1ec1841355a829900349eab019b38df1850976493e967a0fbfcb435fef05470460405160405180910390a45050505050565b60008383836040516020018084815260200183805190602001908083835b602083101515614a335780518252602082019150602081019050602083039250614a0e565b6001836020036101000a0380198251168184511680821785525050505050509050018273ffffffffffffffffffffffffffffffffffffffff1673ffffffffffffffffffffffffffffffffffffffff166c0100000000000000000000000002815260140193505050506040516020818303038152906040526040518082805190602001908083835b602083101515614adf5780518252602082019150602081019050602083039250614aba565b6001836020036101000a038019825116818451168082178552505050505050905001915050604051809103902090509392505050565b6000848484846040516020018085815260200184805190602001908083835b602083101515614b595780518252602082019150602081019050602083039250614b34565b6001836020036101000a0380198251168184511680821785525050505050509050018381526020018273ffffffffffffffffffffffffffffffffffffffff1673ffffffffffffffffffffffffffffffffffffffff166c010000000000000000000000000281526014019450505050506040516020818303038152906040526040518082805190602001908083835b602083101515614c0c5780518252602082019150602081019050602083039250614be7565b6001836020036101000a03801982511681845116808217855250505050505090500191505060405180910390209050949350505050565b600080831415614c565760009050614c75565b8183029050818382811515614c6757fe5b04141515614c7157fe5b8090505b92915050565b60008183811515614c8857fe5b04905092915050565b6000816040516020018082805190602001908083835b602083101515614ccc5780518252602082019150602081019050602083039250614ca7565b6001836020036101000a0380198251168184511680821785525050505050509050019150506040516020818303038152906040526040518082805190602001908083835b602083101515614d355780518252602082019150602081019050602083039250614d10565b6001836020036101000a03801982511681845116808217855250505050505090500191505060405180910390209050919050565b600081604051602001808281526020019150506040516020818303038152906040526040518082805190602001908083835b602083101515614dc05780518252602082019150602081019050602083039250614d9b565b6001836020036101000a03801982511681845116808217855250505050505090500191505060405180910390209050919050565b6000806000600160009054906101000a900473ffffffffffffffffffffffffffffffffffffffff1673ffffffffffffffffffffffffffffffffffffffff1663bd02d0f5614e76866040805190810160405280600a81526020017f4a4f425f53544154555300000000000000000000000000000000000000000000815250613f5b565b6040518263ffffffff167c0100000000000000000000000000000000000000000000000000000000028152600401808260001916600019168152602001915050602060405180830381600087803b158015614ed057600080fd5b505af1158015614ee4573d6000803e3d6000fd5b505050506040513d6020811015614efa57600080fd5b81019080805190602001909291905050509150600160009054906101000a900473ffffffffffffffffffffffffffffffffffffffff1673ffffffffffffffffffffffffffffffffffffffff166321f8a721614f8a866040805190810160405280600e81526020017f444953505554455f57494e4e4552000000000000000000000000000000000000815250613f5b565b6040518263ffffffff167c0100000000000000000000000000000000000000000000000000000000028152600401808260001916600019168152602001915050602060405180830381600087803b158015614fe457600080fd5b505af1158015614ff8573d6000803e3d6000fd5b505050506040513d602081101561500e57600080fd5b8101908080519060200190929190505050905060048214801561505d5750600073ffffffffffffffffffffffffffffffffffffffff168173ffffffffffffffffffffffffffffffffffffffff16145b92505050919050565b6000806000806000600160009054906101000a900473ffffffffffffffffffffffffffffffffffffffff1673ffffffffffffffffffffffffffffffffffffffff1663bd02d0f56150ea6040805190810160405280601181526020017f45564944454e43455f4455524154494f4e000000000000000000000000000000815250614c91565b6040518263ffffffff167c0100000000000000000000000000000000000000000000000000000000028152600401808260001916600019168152602001915050602060405180830381600087803b15801561514457600080fd5b505af1158015615158573d6000803e3d6000fd5b505050506040513d602081101561516e57600080fd5b8101908080519060200190929190505050945060008511151561519057600080fd5b600160009054906101000a900473ffffffffffffffffffffffffffffffffffffffff1673ffffffffffffffffffffffffffffffffffffffff1663bd02d0f561520c6040805190810160405280600f81526020017f434f4d4d49545f4455524154494f4e0000000000000000000000000000000000815250614c91565b6040518263ffffffff167c0100000000000000000000000000000000000000000000000000000000028152600401808260001916600019168152602001915050602060405180830381600087803b15801561526657600080fd5b505af115801561527a573d6000803e3d6000fd5b505050506040513d602081101561529057600080fd5b810190808051906020019092919050505093506000841115156152b257600080fd5b600160009054906101000a900473ffffffffffffffffffffffffffffffffffffffff1673ffffffffffffffffffffffffffffffffffffffff1663bd02d0f561532e6040805190810160405280600f81526020017f52455645414c5f4455524154494f4e0000000000000000000000000000000000815250614c91565b6040518263ffffffff167c0100000000000000000000000000000000000000000000000000000000028152600401808260001916600019168152602001915050602060405180830381600087803b15801561538857600080fd5b505af115801561539c573d6000803e3d6000fd5b505050506040513d60208110156153b257600080fd5b810190808051906020019092919050505092506000831115156153d457600080fd5b600160009054906101000a900473ffffffffffffffffffffffffffffffffffffffff1673ffffffffffffffffffffffffffffffffffffffff1663bd02d0f56154506040805190810160405280600e81526020017f5354414b45445f4445504f534954000000000000000000000000000000000000815250614c91565b6040518263ffffffff167c0100000000000000000000000000000000000000000000000000000000028152600401808260001916600019168152602001915050602060405180830381600087803b1580156154aa57600080fd5b505af11580156154be573d6000803e3d6000fd5b505050506040513d60208110156154d457600080fd5b81019080805190602001909291905050509150600260009054906101000a900473ffffffffffffffffffffffffffffffffffffffff1673ffffffffffffffffffffffffffffffffffffffff166323b872dd3330856040518463ffffffff167c0100000000000000000000000000000000000000000000000000000000028152600401808473ffffffffffffffffffffffffffffffffffffffff1673ffffffffffffffffffffffffffffffffffffffff1681526020018373ffffffffffffffffffffffffffffffffffffffff1673ffffffffffffffffffffffffffffffffffffffff1681526020018281526020019350505050602060405180830381600087803b1580156155e057600080fd5b505af11580156155f4573d6000803e3d6000fd5b505050506040513d602081101561560a57600080fd5b8101908080519060200190929190505050151561562657600080fd5b600460009054906101000a900473ffffffffffffffffffffffffffffffffffffffff1673ffffffffffffffffffffffffffffffffffffffff1663bd002e1e878787876040518563ffffffff167c01000000000000000000000000000000000000000000000000000000000281526004018080602001858152602001848152602001838152602001828103825286818151815260200191508051906020019080838360005b838110156156e55780820151818401526020810190506156ca565b50505050905090810190601f1680156157125780820380516001836020036101000a031916815260200191505b5095505050505050602060405180830381600087803b15801561573457600080fd5b505af1158015615748573d6000803e3d6000fd5b505050506040513d602081101561575e57600080fd5b8101908080519060200190929190505050905060008111151561577d57fe5b600160009054906101000a900473ffffffffffffffffffffffffffffffffffffffff1673ffffffffffffffffffffffffffffffffffffffff1663e2a4853a6157fa896040805190810160405280600781526020017f504f4c4c5f494400000000000000000000000000000000000000000000000000815250613f5b565b836040518363ffffffff167c010000000000000000000000000000000000000000000000000000000002815260040180836000191660001916815260200182815260200192505050600060405180830381600087803b15801561585c57600080fd5b505af1158015615870573d6000803e3d6000fd5b50505050600160009054906101000a900473ffffffffffffffffffffffffffffffffffffffff1673ffffffffffffffffffffffffffffffffffffffff1663e2a4853a6158f1896040805190810160405280600a81526020017f4a4f425f53544154555300000000000000000000000000000000000000000000815250613f5b565b60066040518363ffffffff167c010000000000000000000000000000000000000000000000000000000002815260040180836000191660001916815260200182815260200192505050600060405180830381600087803b15801561595457600080fd5b505af1158015615968573d6000803e3d6000fd5b50505050600160009054906101000a900473ffffffffffffffffffffffffffffffffffffffff1673ffffffffffffffffffffffffffffffffffffffff1663e2a4853a6159eb896040805190810160405280600e81526020017f5354414b45445f4445504f5349540000000000000000000000000000000000008152508533614b15565b846040518363ffffffff167c010000000000000000000000000000000000000000000000000000000002815260040180836000191660001916815260200182815260200192505050600060405180830381600087803b158015615a4d57600080fd5b505af1158015615a61573d6000803e3d6000fd5b50505050600160009054906101000a900473ffffffffffffffffffffffffffffffffffffffff1673ffffffffffffffffffffffffffffffffffffffff1663ca446dd9615ae2896040805190810160405280600c81526020017f504f4c4c5f535441525445440000000000000000000000000000000000000000815250613f5b565b336040518363ffffffff167c01000000000000000000000000000000000000000000000000000000000281526004018083600019166000191681526020018273ffffffffffffffffffffffffffffffffffffffff1673ffffffffffffffffffffffffffffffffffffffff16815260200192505050600060405180830381600087803b158015615b7057600080fd5b505af1158015615b84573d6000803e3d6000fd5b50505050803373ffffffffffffffffffffffffffffffffffffffff16887f86b18b26ad4e3b30d21c7f8f4686a93c2fdb18ddbe81038db4b7e49afe078e9160405160405180910390a450505050505050565b600073ffffffffffffffffffffffffffffffffffffffff168173ffffffffffffffffffffffffffffffffffffffff1614151515615c1257600080fd5b8073ffffffffffffffffffffffffffffffffffffffff166000809054906101000a900473ffffffffffffffffffffffffffffffffffffffff1673ffffffffffffffffffffffffffffffffffffffff167f8be0079c531659141344cd1fd0a4f28419497f9722a3daafe3b4186f6b6457e060405160405180910390a3806000806101000a81548173ffffffffffffffffffffffffffffffffffffffff021916908373ffffffffffffffffffffffffffffffffffffffff160217905550505600a165627a7a723058201751318ef8b1a9ad698df6bb2e49660b4655582340bcc22d683584ec892fe83e0029",
  "source": "pragma solidity ^0.4.24;\n\nimport './BBStandard.sol';\nimport './BBLib.sol';\nimport './BBFreelancerPayment.sol';\nimport './BBVoting.sol';\nimport './BBVotingHelper.sol';\n\ncontract BBDispute is BBStandard{\n  BBFreelancerPayment public payment = BBFreelancerPayment(0x0);\n  BBVoting public voting = BBVoting(0x0);\n  BBVotingHelper public votingHelper = BBVotingHelper(0x0);\n  \n  function setPayment(address p) onlyOwner public  {\n    payment = BBFreelancerPayment(p);\n  }\n\n  function setVoting(address p) onlyOwner public  {\n    voting = BBVoting(p);\n  }\n  function setVotingHelper(address p) onlyOwner public  {\n    votingHelper = BBVotingHelper(p);\n  }\n  \n  event DisputeFinalized(uint256 indexed jobID, uint256 winner);\n  event DisputeStarted(uint256 indexed jobID, address indexed creator, uint256 indexed pollID);\n  event DisputeAgainsted(uint256 indexed jobID, address indexed creator, uint256 indexed pollID);\n  event DisputeUpdated(uint256 indexed jobID, address indexed creator, bool whiteFlag);\n\n  function canCreatePoll(uint256 jobID) private constant returns (bool r){\n    address jobOwner = bbs.getAddress(BBLib.toB32(jobID));\n    address freelancer = bbs.getAddress(BBLib.toB32(jobID, 'FREELANCER'));\n    r = (msg.sender==jobOwner || msg.sender==freelancer);\n  }\n  function isDisputeJob(uint256 jobID) private constant returns(bool r){\n    uint256 jobStatus = bbs.getUint(BBLib.toB32(jobID ,'JOB_STATUS'));\n    address winner = bbs.getAddress(BBLib.toB32(jobID,'DISPUTE_WINNER'));\n    r = (jobStatus == 4 && winner==address(0x0));\n  }\n  function isDisputingJob(uint256 jobID) private constant returns(bool r){\n    uint256 jobStatus = bbs.getUint(BBLib.toB32(jobID ,'JOB_STATUS'));\n    address winner = bbs.getAddress(BBLib.toB32(jobID,'DISPUTE_WINNER'));\n    r = (jobStatus == 6 && winner==address(0x0));\n  }\n  function isAgaintsDispute(uint256 jobID) public constant returns(bool r){\n    (uint256[] memory opts,) = votingHelper.getPollResult(getPollID(jobID));\n    r = opts.length>2;\n  }\n  function getPollID(uint256 jobID) public constant returns(uint256 r){\n    r = bbs.getUint(BBLib.toB32(jobID,'POLL_ID'));\n  }\n  /**\n  * @dev finalizeDispute for poll\n  * @param jobID Job ID\n  * \n  */\n  function finalizeDispute(uint256 jobID) public\n  {\n    uint256 pID = getPollID(jobID);\n    (bool isFinished, uint256 winner,,, uint256 quorum) = votingHelper.getPollWinner(pID);\n    require(isDisputingJob(jobID)==true);\n    address creator = bbs.getAddress(BBLib.toB32(jobID, 'POLL_STARTED'));\n    require(creator!=address(0x0));\n    (,,uint256 addPollOptionEndDate,,) = votingHelper.getPollStage(pID);\n    require(addPollOptionEndDate <= now);\n    //TODO\n    uint256 bboStake = bbs.getUint(BBLib.toB32(jobID, 'STAKED_DEPOSIT', pID,creator));\n    // check if not have against proof\n    if(!isAgaintsDispute(jobID)){      \n      // set winner to creator \n      bbs.setAddress(BBLib.toB32(jobID, 'DISPUTE_WINNER'),creator);\n      // refun staked for \n      require(bbo.transfer(creator,bboStake));\n      // cal finalizePayment\n      assert(payment.finalizeDispute(jobID));\n    }else{\n      require(isFinished == true);\n      address jobOwner = bbs.getAddress(BBLib.toB32(jobID));\n      address freelancer = bbs.getAddress(BBLib.toB32(jobID,'FREELANCER'));\n      if(winner == 0 || quorum == 50){\n        // cancel poll\n        //assert(voting.updatePoll(pID, true, 0, 0));\n        // refun money staked\n         require(bbo.transfer(jobOwner,bboStake));\n         require(bbo.transfer(freelancer,bboStake));\n        // status to 4\n        bbs.setUint(BBLib.toB32(jobID, 'JOB_STATUS'), 4);\n        //TODO reset POLL\n      }else{\n\n        bbs.setAddress(BBLib.toB32(jobID, 'DISPUTE_WINNER'), (winner==1)?creator:(creator==jobOwner)?freelancer:jobOwner);\n        //refun money staked for winner\n        require(bbo.transfer(bbs.getAddress(BBLib.toB32(jobID,'DISPUTE_WINNER')), bboStake));\n        // cal finalizePayment\n        assert(payment.finalizeDispute(jobID));\n      }\n    }\n    emit DisputeFinalized(jobID, winner);\n\n  }\n\n  /**\n  * @dev startDispute\n  * @param jobID Job ID\n  * @param proofHash Hash of Proof \n  * \n  */\n  function startDispute(uint256 jobID, bytes proofHash) public \n  {\n    require(isDisputeJob(jobID)==true);\n    require(canCreatePoll(jobID)==true);\n    require(bbs.getUint(BBLib.toB32(jobID, 'POLL_ID'))==0);\n    return doStartPoll(jobID, proofHash);\n  }\n  function doStartPoll(uint256 jobID, bytes proofHash) private {\n\n    uint evidenceDuration = bbs.getUint(BBLib.toB32('EVIDENCE_DURATION'));\n    require(evidenceDuration > 0);\n    uint commitDuration = bbs.getUint(BBLib.toB32('COMMIT_DURATION'));\n    require(commitDuration > 0);\n    uint revealDuration = bbs.getUint(BBLib.toB32('REVEAL_DURATION'));\n    require(revealDuration > 0);\n    // require sender must staked \n    uint256 bboStake = bbs.getUint(BBLib.toB32('STAKED_DEPOSIT'));\n    require(bbo.transferFrom(msg.sender, address(this), bboStake));\n    // startPoll\n    uint256 pollID = voting.startPoll(proofHash, evidenceDuration, commitDuration, revealDuration);\n    assert(pollID>0);\n    // save poll\n    bbs.setUint(BBLib.toB32(jobID, 'POLL_ID'), pollID);\n    //set status to 6\n    bbs.setUint(BBLib.toB32(jobID ,'JOB_STATUS'), 6);\n    // save staked tokens\n    bbs.setUint(BBLib.toB32(jobID, 'STAKED_DEPOSIT', pollID, msg.sender), bboStake);\n    // save startPoll address\n    bbs.setAddress(BBLib.toB32(jobID, 'POLL_STARTED'), msg.sender);\n    emit DisputeStarted(jobID, msg.sender, pollID);\n  }\n  /**\n  * @dev againstDispute\n  * @param jobID Job ID\n  * @param againstProofHash Hash of Against Proof \n  * \n  */\n  function againstDispute(uint256 jobID, bytes againstProofHash) public \n  {\n    uint256 pID = getPollID(jobID);\n    require(pID > 0);\n    require(canCreatePoll(jobID)==true);\n    require(isDisputingJob(jobID)==true);\n\n    address creator = bbs.getAddress(BBLib.toB32(jobID, 'POLL_STARTED'));\n    require(creator!=0x0);\n    require(creator!=msg.sender);\n    return doAgainstPoll(jobID, againstProofHash, pID, creator);\n  }\n  function doAgainstPoll(uint256 jobID, bytes againstProofHash, uint256 pID, address creator) internal \n  {\n    // require sender must staked bbo equal the creator\n    uint256 bboStake = bbs.getUint(BBLib.toB32(jobID, 'STAKED_DEPOSIT', pID, creator));\n    require(bbo.transferFrom(msg.sender, address(this), bboStake));\n    bbs.setUint(BBLib.toB32(jobID, 'STAKED_DEPOSIT',pID,msg.sender), bboStake);\n    assert(voting.addPollOption(pID,againstProofHash));\n    emit DisputeAgainsted(jobID, msg.sender, pID);\n  } \n\n  function updateDispute(uint256 jobID,bool whiteFlag) public {\n    require(canCreatePoll(jobID)==true);\n    require(isDisputingJob(jobID)==true);\n    uint256 pollID = getPollID(jobID);\n    (bool isFinished,,, bool hasVote,) = votingHelper.getPollWinner(pollID);\n    require(hasVote!=true);\n    require(isFinished==true);\n    address jobOwner = bbs.getAddress(BBLib.toB32(jobID));\n    address freelancer = bbs.getAddress(BBLib.toB32(jobID,'FREELANCER'));\n    if(whiteFlag == true){\n      bbs.setAddress(BBLib.toB32(jobID, 'DISPUTE_WINNER'), (msg.sender==jobOwner)?freelancer:jobOwner);\n      uint256 bboStake = bbs.getUint(BBLib.toB32(jobID, 'STAKED_DEPOSIT', pollID,jobOwner));\n      //refun money staked for users\n      require(bbo.transfer(jobOwner, bboStake));\n      require(bbo.transfer(freelancer, bboStake));\n      // cal finalizePayment\n      assert(voting.updatePoll(pollID, true, 0, 0));\n      assert(payment.finalizeDispute(jobID));\n      \n    }else{\n      uint commitDuration = bbs.getUint(BBLib.toB32('COMMIT_DURATION'));\n      require(commitDuration > 0);\n      uint revealDuration = bbs.getUint(BBLib.toB32('REVEAL_DURATION'));\n      require(revealDuration > 0);\n      assert(voting.updatePoll(pollID, false, commitDuration, revealDuration));\n\n    }\n    emit DisputeUpdated(jobID, msg.sender, whiteFlag);\n  }\n\n  /**\n  * @dev claimReward for poll\n  * @param jobID Job Hash\n  *\n  */\n  function claimReward(uint256 jobID) public {\n    uint256 pollID = getPollID(jobID);\n    require(pollID > 0);\n    //require(bbs.getUint(BBLib.toB32(pollID ,'REVEAL_ENDDATE'))<=now);\n    require(bbs.getBool(BBLib.toB32(pollID ,'REWARD_CLAIMED', msg.sender))!= true);\n    (uint256 numReward,) = calcReward(jobID);\n    require (numReward > 0);\n    // set claimed to true\n    bbs.setBool(BBLib.toB32(pollID ,'REWARD_CLAIMED',msg.sender), true);\n    // todo senBBO\n    require(bbo.transfer(msg.sender, numReward));\n  }\n  /**\n  * @dev calcReward calculate the reward\n  * @param jobID Job Hash\n  *\n  */\n  function calcReward(uint256 jobID) constant public returns(uint256 numReward, bool win){\n    uint256 pollID = getPollID(jobID);\n    if(bbs.getBool(BBLib.toB32(pollID ,'REWARD_CLAIMED', msg.sender))== false){\n      uint256 userVotes =  votingHelper.getNumPassingTokens(msg.sender, pollID);\n      address creator = bbs.getAddress(BBLib.toB32(jobID, 'POLL_STARTED'));\n      (bool isFinished,, uint256 winnerVotes, bool hasVote, uint256 quorum) = votingHelper.getPollWinner(pollID);\n      if(isFinished==true && hasVote == true){\n        if(userVotes>0 && quorum > 50){\n          uint256 bboStake = bbs.getUint(BBLib.toB32(jobID, 'STAKED_DEPOSIT', pollID,creator));\n          numReward = userVotes.mul(bboStake).div(winnerVotes); // (vote/totalVotes) * staked\n          win = true;\n        }else{\n          numReward = bbs.getUint(BBLib.toB32('BBO_REWARDS'));\n        }\n      }else\n        win = hasVote;\n    }\n  }\n}\n",
  "sourcePath": "/Users/trantho/Code/SmartContract/digital-contracts/src/contracts/BBDispute.sol",
  "compiler": {
    "name": "solc",
    "version": "0.4.24+commit.e67f0147.Emscripten.clang"
  },
  "schemaVersion": "2.0.1",
  "updatedAt": "2018-12-20T07:35:09.084Z"
}