{
  "contractName": "BBFreelancerJob",
  "abi": [
    {
      "constant": true,
      "inputs": [],
      "name": "bbo",
      "outputs": [
        {
          "name": "",
          "type": "address"
        }
      ],
      "payable": false,
      "stateMutability": "view",
      "type": "function"
    },
    {
      "constant": true,
      "inputs": [],
      "name": "bbs",
      "outputs": [
        {
          "name": "",
          "type": "address"
        }
      ],
      "payable": false,
      "stateMutability": "view",
      "type": "function"
    },
    {
      "constant": true,
      "inputs": [],
      "name": "payment",
      "outputs": [
        {
          "name": "",
          "type": "address"
        }
      ],
      "payable": false,
      "stateMutability": "view",
      "type": "function"
    },
    {
      "constant": false,
      "inputs": [],
      "name": "renounceOwnership",
      "outputs": [],
      "payable": false,
      "stateMutability": "nonpayable",
      "type": "function"
    },
    {
      "constant": false,
      "inputs": [
        {
          "name": "BBOAddress",
          "type": "address"
        }
      ],
      "name": "setBBO",
      "outputs": [],
      "payable": false,
      "stateMutability": "nonpayable",
      "type": "function"
    },
    {
      "constant": true,
      "inputs": [
        {
          "name": "jobID",
          "type": "uint256"
        }
      ],
      "name": "isJobCancel",
      "outputs": [
        {
          "name": "",
          "type": "bool"
        }
      ],
      "payable": false,
      "stateMutability": "view",
      "type": "function"
    },
    {
      "constant": true,
      "inputs": [],
      "name": "owner",
      "outputs": [
        {
          "name": "",
          "type": "address"
        }
      ],
      "payable": false,
      "stateMutability": "view",
      "type": "function"
    },
    {
      "constant": false,
      "inputs": [
        {
          "name": "anyToken",
          "type": "address"
        }
      ],
      "name": "emergencyERC20Drain",
      "outputs": [],
      "payable": false,
      "stateMutability": "nonpayable",
      "type": "function"
    },
    {
      "constant": false,
      "inputs": [
        {
          "name": "storageAddress",
          "type": "address"
        }
      ],
      "name": "setStorage",
      "outputs": [],
      "payable": false,
      "stateMutability": "nonpayable",
      "type": "function"
    },
    {
      "constant": true,
      "inputs": [
        {
          "name": "jobID",
          "type": "uint256"
        }
      ],
      "name": "isJobStart",
      "outputs": [
        {
          "name": "",
          "type": "bool"
        }
      ],
      "payable": false,
      "stateMutability": "view",
      "type": "function"
    },
    {
      "constant": true,
      "inputs": [
        {
          "name": "sender",
          "type": "address"
        },
        {
          "name": "jobID",
          "type": "uint256"
        }
      ],
      "name": "isOwnerOfJob",
      "outputs": [
        {
          "name": "",
          "type": "bool"
        }
      ],
      "payable": false,
      "stateMutability": "view",
      "type": "function"
    },
    {
      "constant": true,
      "inputs": [
        {
          "name": "jobID",
          "type": "uint256"
        }
      ],
      "name": "isJobExpired",
      "outputs": [
        {
          "name": "",
          "type": "bool"
        }
      ],
      "payable": false,
      "stateMutability": "view",
      "type": "function"
    },
    {
      "constant": true,
      "inputs": [
        {
          "name": "jobID",
          "type": "uint256"
        }
      ],
      "name": "isJobHasFreelancer",
      "outputs": [
        {
          "name": "",
          "type": "bool"
        }
      ],
      "payable": false,
      "stateMutability": "view",
      "type": "function"
    },
    {
      "constant": false,
      "inputs": [
        {
          "name": "_newOwner",
          "type": "address"
        }
      ],
      "name": "transferOwnership",
      "outputs": [],
      "payable": false,
      "stateMutability": "nonpayable",
      "type": "function"
    },
    {
      "anonymous": false,
      "inputs": [
        {
          "indexed": false,
          "name": "jobHash",
          "type": "bytes"
        },
        {
          "indexed": true,
          "name": "jobID",
          "type": "uint256"
        },
        {
          "indexed": true,
          "name": "owner",
          "type": "address"
        },
        {
          "indexed": false,
          "name": "expired",
          "type": "uint256"
        },
        {
          "indexed": true,
          "name": "category",
          "type": "bytes32"
        },
        {
          "indexed": false,
          "name": "budget",
          "type": "uint256"
        },
        {
          "indexed": false,
          "name": "estimateTime",
          "type": "uint256"
        }
      ],
      "name": "JobCreated",
      "type": "event"
    },
    {
      "anonymous": false,
      "inputs": [
        {
          "indexed": true,
          "name": "jobID",
          "type": "uint256"
        }
      ],
      "name": "JobCanceled",
      "type": "event"
    },
    {
      "anonymous": false,
      "inputs": [
        {
          "indexed": true,
          "name": "jobID",
          "type": "uint256"
        }
      ],
      "name": "JobStarted",
      "type": "event"
    },
    {
      "anonymous": false,
      "inputs": [
        {
          "indexed": true,
          "name": "jobID",
          "type": "uint256"
        }
      ],
      "name": "JobFinished",
      "type": "event"
    },
    {
      "anonymous": false,
      "inputs": [
        {
          "indexed": true,
          "name": "previousOwner",
          "type": "address"
        }
      ],
      "name": "OwnershipRenounced",
      "type": "event"
    },
    {
      "anonymous": false,
      "inputs": [
        {
          "indexed": true,
          "name": "previousOwner",
          "type": "address"
        },
        {
          "indexed": true,
          "name": "newOwner",
          "type": "address"
        }
      ],
      "name": "OwnershipTransferred",
      "type": "event"
    },
    {
      "constant": false,
      "inputs": [
        {
          "name": "paymentAddress",
          "type": "address"
        }
      ],
      "name": "setPaymentContract",
      "outputs": [],
      "payable": false,
      "stateMutability": "nonpayable",
      "type": "function"
    },
    {
      "constant": true,
      "inputs": [
        {
          "name": "jobID",
          "type": "uint256"
        }
      ],
      "name": "getJob",
      "outputs": [
        {
          "name": "",
          "type": "address"
        },
        {
          "name": "",
          "type": "uint256"
        },
        {
          "name": "",
          "type": "uint256"
        },
        {
          "name": "",
          "type": "bool"
        },
        {
          "name": "",
          "type": "uint256"
        },
        {
          "name": "",
          "type": "address"
        }
      ],
      "payable": false,
      "stateMutability": "view",
      "type": "function"
    },
    {
      "constant": false,
      "inputs": [
        {
          "name": "jobHash",
          "type": "bytes"
        },
        {
          "name": "expired",
          "type": "uint256"
        },
        {
          "name": "estimateTime",
          "type": "uint256"
        },
        {
          "name": "budget",
          "type": "uint256"
        },
        {
          "name": "category",
          "type": "bytes32"
        }
      ],
      "name": "createJob",
      "outputs": [],
      "payable": false,
      "stateMutability": "nonpayable",
      "type": "function"
    },
    {
      "constant": false,
      "inputs": [
        {
          "name": "jobID",
          "type": "uint256"
        }
      ],
      "name": "cancelJob",
      "outputs": [],
      "payable": false,
      "stateMutability": "nonpayable",
      "type": "function"
    },
    {
      "constant": false,
      "inputs": [
        {
          "name": "jobID",
          "type": "uint256"
        }
      ],
      "name": "startJob",
      "outputs": [],
      "payable": false,
      "stateMutability": "nonpayable",
      "type": "function"
    },
    {
      "constant": false,
      "inputs": [
        {
          "name": "jobID",
          "type": "uint256"
        }
      ],
      "name": "finishJob",
      "outputs": [],
      "payable": false,
      "stateMutability": "nonpayable",
      "type": "function"
    },
    {
      "constant": true,
      "inputs": [
        {
          "name": "jobHash",
          "type": "bytes"
        }
      ],
      "name": "getJobID",
      "outputs": [
        {
          "name": "",
          "type": "uint256"
        }
      ],
      "payable": false,
      "stateMutability": "view",
      "type": "function"
    }
  ],
  "bytecode": "0x60806040526000600160006101000a81548173ffffffffffffffffffffffffffffffffffffffff021916908373ffffffffffffffffffffffffffffffffffffffff1602179055506000600260006101000a81548173ffffffffffffffffffffffffffffffffffffffff021916908373ffffffffffffffffffffffffffffffffffffffff1602179055506000600360006101000a81548173ffffffffffffffffffffffffffffffffffffffff021916908373ffffffffffffffffffffffffffffffffffffffff160217905550336000806101000a81548173ffffffffffffffffffffffffffffffffffffffff021916908373ffffffffffffffffffffffffffffffffffffffff1602179055506140f0806101196000396000f30060806040526004361061011d576000357c0100000000000000000000000000000000000000000000000000000000900463ffffffff1680631dffa3dc146101225780631e89bf061461014f5780631fde23a4146101a657806334dcc078146101fd57806342f6487a1461027a5780636e3589a2146102d1578063715018a6146102fe5780637937f46d146103155780638abb20cc146103585780638b01bcc31461039b5780638da5cb5b146103e057806390e8d82f146104375780639137c1a71461047a578063b191f79d146104bd578063b8edcd1f14610502578063bf22c45714610567578063c34dbd0714610627578063dad788d9146106bc578063e125529414610701578063ebe5f5901461072e578063f2fde38b14610773575b600080fd5b34801561012e57600080fd5b5061014d600480360381019080803590602001909291905050506107b6565b005b34801561015b57600080fd5b50610164610e93565b604051808273ffffffffffffffffffffffffffffffffffffffff1673ffffffffffffffffffffffffffffffffffffffff16815260200191505060405180910390f35b3480156101b257600080fd5b506101bb610eb9565b604051808273ffffffffffffffffffffffffffffffffffffffff1673ffffffffffffffffffffffffffffffffffffffff16815260200191505060405180910390f35b34801561020957600080fd5b50610264600480360381019080803590602001908201803590602001908080601f0160208091040260200160405190810160405280939291908181526020018383808284378201915050505050509192919290505050610edf565b6040518082815260200191505060405180910390f35b34801561028657600080fd5b5061028f610ffa565b604051808273ffffffffffffffffffffffffffffffffffffffff1673ffffffffffffffffffffffffffffffffffffffff16815260200191505060405180910390f35b3480156102dd57600080fd5b506102fc60048036038101908080359060200190929190505050611020565b005b34801561030a57600080fd5b5061031361165a565b005b34801561032157600080fd5b50610356600480360381019080803573ffffffffffffffffffffffffffffffffffffffff16906020019092919050505061175c565b005b34801561036457600080fd5b50610399600480360381019080803573ffffffffffffffffffffffffffffffffffffffff1690602001909291905050506117fb565b005b3480156103a757600080fd5b506103c66004803603810190808035906020019092919050505061189a565b604051808215151515815260200191505060405180910390f35b3480156103ec57600080fd5b506103f5611a20565b604051808273ffffffffffffffffffffffffffffffffffffffff1673ffffffffffffffffffffffffffffffffffffffff16815260200191505060405180910390f35b34801561044357600080fd5b50610478600480360381019080803573ffffffffffffffffffffffffffffffffffffffff169060200190929190505050611a45565b005b34801561048657600080fd5b506104bb600480360381019080803573ffffffffffffffffffffffffffffffffffffffff169060200190929190505050611d59565b005b3480156104c957600080fd5b506104e860048036038101908080359060200190929190505050611df8565b604051808215151515815260200191505060405180910390f35b34801561050e57600080fd5b5061054d600480360381019080803573ffffffffffffffffffffffffffffffffffffffff16906020019092919080359060200190929190505050611f81565b604051808215151515815260200191505060405180910390f35b34801561057357600080fd5b5061059260048036038101908080359060200190929190505050612095565b604051808773ffffffffffffffffffffffffffffffffffffffff1673ffffffffffffffffffffffffffffffffffffffff168152602001868152602001858152602001841515151581526020018381526020018273ffffffffffffffffffffffffffffffffffffffff1673ffffffffffffffffffffffffffffffffffffffff168152602001965050505050505060405180910390f35b34801561063357600080fd5b506106ba600480360381019080803590602001908201803590602001908080601f0160208091040260200160405190810160405280939291908181526020018383808284378201915050505050509192919290803590602001909291908035906020019092919080359060200190929190803560001916906020019092919050505061270a565b005b3480156106c857600080fd5b506106e760048036038101908080359060200190929190505050613057565b604051808215151515815260200191505060405180910390f35b34801561070d57600080fd5b5061072c600480360381019080803590602001909291905050506131df565b005b34801561073a57600080fd5b50610759600480360381019080803590602001909291905050506138d5565b604051808215151515815260200191505060405180910390f35b34801561077f57600080fd5b506107b4600480360381019080803573ffffffffffffffffffffffffffffffffffffffff169060200190929190505050613a74565b005b600080600080843373ffffffffffffffffffffffffffffffffffffffff16600160009054906101000a900473ffffffffffffffffffffffffffffffffffffffff1673ffffffffffffffffffffffffffffffffffffffff166321f8a72161081b84613b33565b6040518263ffffffff167c0100000000000000000000000000000000000000000000000000000000028152600401808260001916600019168152602001915050602060405180830381600087803b15801561087557600080fd5b505af1158015610889573d6000803e3d6000fd5b505050506040513d602081101561089f57600080fd5b810190808051906020019092919050505073ffffffffffffffffffffffffffffffffffffffff161415156108d257600080fd5b600160009054906101000a900473ffffffffffffffffffffffffffffffffffffffff1673ffffffffffffffffffffffffffffffffffffffff1663bd02d0f561094f886040805190810160405280600a81526020017f4a4f425f53544154555300000000000000000000000000000000000000000000815250613bbe565b6040518263ffffffff167c0100000000000000000000000000000000000000000000000000000000028152600401808260001916600019168152602001915050602060405180830381600087803b1580156109a957600080fd5b505af11580156109bd573d6000803e3d6000fd5b505050506040513d60208110156109d357600080fd5b8101908080519060200190929190505050945060008514806109f55750600185145b80610a005750600785145b1515610a0b57600080fd5b6001851415610d6257600160009054906101000a900473ffffffffffffffffffffffffffffffffffffffff1673ffffffffffffffffffffffffffffffffffffffff166321f8a721610a91886040805190810160405280600a81526020017f465245454c414e43455200000000000000000000000000000000000000000000815250613bbe565b6040518263ffffffff167c0100000000000000000000000000000000000000000000000000000000028152600401808260001916600019168152602001915050602060405180830381600087803b158015610aeb57600080fd5b505af1158015610aff573d6000803e3d6000fd5b505050506040513d6020811015610b1557600080fd5b81019080805190602001909291905050509350600160009054906101000a900473ffffffffffffffffffffffffffffffffffffffff1673ffffffffffffffffffffffffffffffffffffffff1663bd02d0f5610ba6886040805190810160405280600881526020017f4249445f54494d4500000000000000000000000000000000000000000000000081525088613c9f565b6040518263ffffffff167c0100000000000000000000000000000000000000000000000000000000028152600401808260001916600019168152602001915050602060405180830381600087803b158015610c0057600080fd5b505af1158015610c14573d6000803e3d6000fd5b505050506040513d6020811015610c2a57600080fd5b81019080805190602001909291905050509250600160009054906101000a900473ffffffffffffffffffffffffffffffffffffffff1673ffffffffffffffffffffffffffffffffffffffff1663bd02d0f5610cba886040805190810160405280601581526020017f4a4f425f535441525445445f54494d455354414d500000000000000000000000815250613bbe565b6040518263ffffffff167c0100000000000000000000000000000000000000000000000000000000028152600401808260001916600019168152602001915050602060405180830381600087803b158015610d1457600080fd5b505af1158015610d28573d6000803e3d6000fd5b505050506040513d6020811015610d3e57600080fd5b8101908080519060200190929190505050915082820142111515610d6157600080fd5b5b600160009054906101000a900473ffffffffffffffffffffffffffffffffffffffff1673ffffffffffffffffffffffffffffffffffffffff1663abfdcced610ddf886040805190810160405280600a81526020017f4a4f425f43414e43454c00000000000000000000000000000000000000000000815250613bbe565b60016040518363ffffffff167c01000000000000000000000000000000000000000000000000000000000281526004018083600019166000191681526020018215151515815260200192505050600060405180830381600087803b158015610e4657600080fd5b505af1158015610e5a573d6000803e3d6000fd5b50505050857f68a66a704ceacc38da3f12c63779e47866d9d72e875ec5d43237777adc666d6560405160405180910390a2505050505050565b600260009054906101000a900473ffffffffffffffffffffffffffffffffffffffff1681565b600160009054906101000a900473ffffffffffffffffffffffffffffffffffffffff1681565b6000600160009054906101000a900473ffffffffffffffffffffffffffffffffffffffff1673ffffffffffffffffffffffffffffffffffffffff1663bd02d0f5610f5e846040805190810160405280600881526020017f4a4f425f48415348000000000000000000000000000000000000000000000000815250613dc4565b6040518263ffffffff167c0100000000000000000000000000000000000000000000000000000000028152600401808260001916600019168152602001915050602060405180830381600087803b158015610fb857600080fd5b505af1158015610fcc573d6000803e3d6000fd5b505050506040513d6020811015610fe257600080fd5b81019080805190602001909291905050509050919050565b600360009054906101000a900473ffffffffffffffffffffffffffffffffffffffff1681565b806000600160009054906101000a900473ffffffffffffffffffffffffffffffffffffffff1673ffffffffffffffffffffffffffffffffffffffff166321f8a72161106a84613b33565b6040518263ffffffff167c0100000000000000000000000000000000000000000000000000000000028152600401808260001916600019168152602001915050602060405180830381600087803b1580156110c457600080fd5b505af11580156110d8573d6000803e3d6000fd5b505050506040513d60208110156110ee57600080fd5b8101908080519060200190929190505050905060008173ffffffffffffffffffffffffffffffffffffffff161415151561112757600080fd5b8073ffffffffffffffffffffffffffffffffffffffff163373ffffffffffffffffffffffffffffffffffffffff161415151561116257600080fd5b823373ffffffffffffffffffffffffffffffffffffffff16600160009054906101000a900473ffffffffffffffffffffffffffffffffffffffff1673ffffffffffffffffffffffffffffffffffffffff166321f8a7218360405160200180828152602001807f465245454c414e43455200000000000000000000000000000000000000000000815250600a019150506040516020818303038152906040526040518082805190602001908083835b6020831015156112355780518252602082019150602081019050602083039250611210565b6001836020036101000a03801982511681845116808217855250505050505090500191505060405180910390206040518263ffffffff167c0100000000000000000000000000000000000000000000000000000000028152600401808260001916600019168152602001915050602060405180830381600087803b1580156112bc57600080fd5b505af11580156112d0573d6000803e3d6000fd5b505050506040513d60208110156112e657600080fd5b810190808051906020019092919050505073ffffffffffffffffffffffffffffffffffffffff1614151561131957600080fd5b60018060009054906101000a900473ffffffffffffffffffffffffffffffffffffffff1673ffffffffffffffffffffffffffffffffffffffff1663bd02d0f5611397876040805190810160405280600a81526020017f4a4f425f53544154555300000000000000000000000000000000000000000000815250613bbe565b6040518263ffffffff167c0100000000000000000000000000000000000000000000000000000000028152600401808260001916600019168152602001915050602060405180830381600087803b1580156113f157600080fd5b505af1158015611405573d6000803e3d6000fd5b505050506040513d602081101561141b57600080fd5b810190808051906020019092919050505014151561143857600080fd5b600160009054906101000a900473ffffffffffffffffffffffffffffffffffffffff1673ffffffffffffffffffffffffffffffffffffffff1663e2a4853a6114b5866040805190810160405280600a81526020017f4a4f425f53544154555300000000000000000000000000000000000000000000815250613bbe565b60026040518363ffffffff167c010000000000000000000000000000000000000000000000000000000002815260040180836000191660001916815260200182815260200192505050600060405180830381600087803b15801561151857600080fd5b505af115801561152c573d6000803e3d6000fd5b50505050600160009054906101000a900473ffffffffffffffffffffffffffffffffffffffff1673ffffffffffffffffffffffffffffffffffffffff1663e2a4853a6115ad866040805190810160405280601681526020017f4a4f425f46494e49534845445f54494d455354414d5000000000000000000000815250613bbe565b426040518363ffffffff167c010000000000000000000000000000000000000000000000000000000002815260040180836000191660001916815260200182815260200192505050600060405180830381600087803b15801561160f57600080fd5b505af1158015611623573d6000803e3d6000fd5b50505050837f8f1310e982bd87a5289e7af5f41ea36ca58931c4adee6eac334292cee7a2812b60405160405180910390a250505050565b6000809054906101000a900473ffffffffffffffffffffffffffffffffffffffff1673ffffffffffffffffffffffffffffffffffffffff163373ffffffffffffffffffffffffffffffffffffffff161415156116b557600080fd5b6000809054906101000a900473ffffffffffffffffffffffffffffffffffffffff1673ffffffffffffffffffffffffffffffffffffffff167ff8df31144d9c2f0f6b59d69b8b98abd5459d07f2742c4df920b25aae33c6482060405160405180910390a260008060006101000a81548173ffffffffffffffffffffffffffffffffffffffff021916908373ffffffffffffffffffffffffffffffffffffffff160217905550565b6000809054906101000a900473ffffffffffffffffffffffffffffffffffffffff1673ffffffffffffffffffffffffffffffffffffffff163373ffffffffffffffffffffffffffffffffffffffff161415156117b757600080fd5b80600260006101000a81548173ffffffffffffffffffffffffffffffffffffffff021916908373ffffffffffffffffffffffffffffffffffffffff16021790555050565b6000809054906101000a900473ffffffffffffffffffffffffffffffffffffffff1673ffffffffffffffffffffffffffffffffffffffff163373ffffffffffffffffffffffffffffffffffffffff1614151561185657600080fd5b80600360006101000a81548173ffffffffffffffffffffffffffffffffffffffff021916908373ffffffffffffffffffffffffffffffffffffffff16021790555050565b6000600160009054906101000a900473ffffffffffffffffffffffffffffffffffffffff1673ffffffffffffffffffffffffffffffffffffffff16637ae1cfca8360405160200180828152602001807f4a4f425f43414e43454c00000000000000000000000000000000000000000000815250600a019150506040516020818303038152906040526040518082805190602001908083835b6020831015156119575780518252602082019150602081019050602083039250611932565b6001836020036101000a03801982511681845116808217855250505050505090500191505060405180910390206040518263ffffffff167c0100000000000000000000000000000000000000000000000000000000028152600401808260001916600019168152602001915050602060405180830381600087803b1580156119de57600080fd5b505af11580156119f2573d6000803e3d6000fd5b505050506040513d6020811015611a0857600080fd5b81019080805190602001909291905050509050919050565b6000809054906101000a900473ffffffffffffffffffffffffffffffffffffffff1681565b6000809054906101000a900473ffffffffffffffffffffffffffffffffffffffff1673ffffffffffffffffffffffffffffffffffffffff163373ffffffffffffffffffffffffffffffffffffffff16141515611aa057600080fd5b60003073ffffffffffffffffffffffffffffffffffffffff16311115611b40576000809054906101000a900473ffffffffffffffffffffffffffffffffffffffff1673ffffffffffffffffffffffffffffffffffffffff166108fc3073ffffffffffffffffffffffffffffffffffffffff16319081150290604051600060405180830381858888f19350505050158015611b3e573d6000803e3d6000fd5b505b600073ffffffffffffffffffffffffffffffffffffffff168173ffffffffffffffffffffffffffffffffffffffff16141515611d56578073ffffffffffffffffffffffffffffffffffffffff1663a9059cbb6000809054906101000a900473ffffffffffffffffffffffffffffffffffffffff168373ffffffffffffffffffffffffffffffffffffffff166370a08231306040518263ffffffff167c0100000000000000000000000000000000000000000000000000000000028152600401808273ffffffffffffffffffffffffffffffffffffffff1673ffffffffffffffffffffffffffffffffffffffff168152602001915050602060405180830381600087803b158015611c4f57600080fd5b505af1158015611c63573d6000803e3d6000fd5b505050506040513d6020811015611c7957600080fd5b81019080805190602001909291905050506040518363ffffffff167c0100000000000000000000000000000000000000000000000000000000028152600401808373ffffffffffffffffffffffffffffffffffffffff1673ffffffffffffffffffffffffffffffffffffffff16815260200182815260200192505050602060405180830381600087803b158015611d0f57600080fd5b505af1158015611d23573d6000803e3d6000fd5b505050506040513d6020811015611d3957600080fd5b81019080805190602001909291905050501515611d5557600080fd5b5b50565b6000809054906101000a900473ffffffffffffffffffffffffffffffffffffffff1673ffffffffffffffffffffffffffffffffffffffff163373ffffffffffffffffffffffffffffffffffffffff16141515611db457600080fd5b80600160006101000a81548173ffffffffffffffffffffffffffffffffffffffff021916908373ffffffffffffffffffffffffffffffffffffffff16021790555050565b600080600160009054906101000a900473ffffffffffffffffffffffffffffffffffffffff1673ffffffffffffffffffffffffffffffffffffffff1663bd02d0f58460405160200180828152602001807f4a4f425f53544154555300000000000000000000000000000000000000000000815250600a019150506040516020818303038152906040526040518082805190602001908083835b602083101515611eb65780518252602082019150602081019050602083039250611e91565b6001836020036101000a03801982511681845116808217855250505050505090500191505060405180910390206040518263ffffffff167c0100000000000000000000000000000000000000000000000000000000028152600401808260001916600019168152602001915050602060405180830381600087803b158015611f3d57600080fd5b505af1158015611f51573d6000803e3d6000fd5b505050506040513d6020811015611f6757600080fd5b810190808051906020019092919050505014159050919050565b60008273ffffffffffffffffffffffffffffffffffffffff16600160009054906101000a900473ffffffffffffffffffffffffffffffffffffffff1673ffffffffffffffffffffffffffffffffffffffff166321f8a721611fe185613b33565b6040518263ffffffff167c0100000000000000000000000000000000000000000000000000000000028152600401808260001916600019168152602001915050602060405180830381600087803b15801561203b57600080fd5b505af115801561204f573d6000803e3d6000fd5b505050506040513d602081101561206557600080fd5b810190808051906020019092919050505073ffffffffffffffffffffffffffffffffffffffff1614905092915050565b600080600080600080600080600080600080600160009054906101000a900473ffffffffffffffffffffffffffffffffffffffff1673ffffffffffffffffffffffffffffffffffffffff166321f8a7216120ee8f613b33565b6040518263ffffffff167c0100000000000000000000000000000000000000000000000000000000028152600401808260001916600019168152602001915050602060405180830381600087803b15801561214857600080fd5b505af115801561215c573d6000803e3d6000fd5b505050506040513d602081101561217257600080fd5b81019080805190602001909291905050509550600160009054906101000a900473ffffffffffffffffffffffffffffffffffffffff1673ffffffffffffffffffffffffffffffffffffffff1663bd02d0f56122028f6040805190810160405280600b81526020017f4a4f425f45585049524544000000000000000000000000000000000000000000815250613bbe565b6040518263ffffffff167c0100000000000000000000000000000000000000000000000000000000028152600401808260001916600019168152602001915050602060405180830381600087803b15801561225c57600080fd5b505af1158015612270573d6000803e3d6000fd5b505050506040513d602081101561228657600080fd5b81019080805190602001909291905050509450600160009054906101000a900473ffffffffffffffffffffffffffffffffffffffff1673ffffffffffffffffffffffffffffffffffffffff1663bd02d0f56123168f6040805190810160405280600a81526020017f4a4f425f42554447455400000000000000000000000000000000000000000000815250613bbe565b6040518263ffffffff167c0100000000000000000000000000000000000000000000000000000000028152600401808260001916600019168152602001915050602060405180830381600087803b15801561237057600080fd5b505af1158015612384573d6000803e3d6000fd5b505050506040513d602081101561239a57600080fd5b81019080805190602001909291905050509350600160009054906101000a900473ffffffffffffffffffffffffffffffffffffffff1673ffffffffffffffffffffffffffffffffffffffff16637ae1cfca61242a8f6040805190810160405280600a81526020017f4a4f425f43414e43454c00000000000000000000000000000000000000000000815250613bbe565b6040518263ffffffff167c0100000000000000000000000000000000000000000000000000000000028152600401808260001916600019168152602001915050602060405180830381600087803b15801561248457600080fd5b505af1158015612498573d6000803e3d6000fd5b505050506040513d60208110156124ae57600080fd5b81019080805190602001909291905050509250600160009054906101000a900473ffffffffffffffffffffffffffffffffffffffff1673ffffffffffffffffffffffffffffffffffffffff1663bd02d0f561253e8f6040805190810160405280600a81526020017f4a4f425f53544154555300000000000000000000000000000000000000000000815250613bbe565b6040518263ffffffff167c0100000000000000000000000000000000000000000000000000000000028152600401808260001916600019168152602001915050602060405180830381600087803b15801561259857600080fd5b505af11580156125ac573d6000803e3d6000fd5b505050506040513d60208110156125c257600080fd5b81019080805190602001909291905050509150600160009054906101000a900473ffffffffffffffffffffffffffffffffffffffff1673ffffffffffffffffffffffffffffffffffffffff166321f8a7216126528f6040805190810160405280600a81526020017f465245454c414e43455200000000000000000000000000000000000000000000815250613bbe565b6040518263ffffffff167c0100000000000000000000000000000000000000000000000000000000028152600401808260001916600019168152602001915050602060405180830381600087803b1580156126ac57600080fd5b505af11580156126c0573d6000803e3d6000fd5b505050506040513d60208110156126d657600080fd5b810190808051906020019092919050505090508585858585859b509b509b509b509b509b5050505050505091939550919395565b6000856000600160009054906101000a900473ffffffffffffffffffffffffffffffffffffffff1673ffffffffffffffffffffffffffffffffffffffff166321f8a721836040518082805190602001908083835b602083101515612783578051825260208201915060208101905060208303925061275e565b6001836020036101000a03801982511681845116808217855250505050505090500191505060405180910390206040518263ffffffff167c0100000000000000000000000000000000000000000000000000000000028152600401808260001916600019168152602001915050602060405180830381600087803b15801561280a57600080fd5b505af115801561281e573d6000803e3d6000fd5b505050506040513d602081101561283457600080fd5b810190808051906020019092919050505073ffffffffffffffffffffffffffffffffffffffff1614151561286757600080fd5b6000875111151561287757600080fd5b428611151561288557600080fd5b60008411151561289457600080fd5b6000851115156128a357600080fd5b600160009054906101000a900473ffffffffffffffffffffffffffffffffffffffff1673ffffffffffffffffffffffffffffffffffffffff1663bd02d0f561291f6040805190810160405280600681526020017f4a4f425f49440000000000000000000000000000000000000000000000000000815250613ef2565b6040518263ffffffff167c0100000000000000000000000000000000000000000000000000000000028152600401808260001916600019168152602001915050602060405180830381600087803b15801561297957600080fd5b505af115801561298d573d6000803e3d6000fd5b505050506040513d60208110156129a357600080fd5b810190808051906020019092919050505091508180600101925050600160009054906101000a900473ffffffffffffffffffffffffffffffffffffffff1673ffffffffffffffffffffffffffffffffffffffff1663ca446dd9612a0584613b33565b336040518363ffffffff167c01000000000000000000000000000000000000000000000000000000000281526004018083600019166000191681526020018273ffffffffffffffffffffffffffffffffffffffff1673ffffffffffffffffffffffffffffffffffffffff16815260200192505050600060405180830381600087803b158015612a9357600080fd5b505af1158015612aa7573d6000803e3d6000fd5b50505050600160009054906101000a900473ffffffffffffffffffffffffffffffffffffffff1673ffffffffffffffffffffffffffffffffffffffff1663e2a4853a612b28846040805190810160405280600b81526020017f4a4f425f45585049524544000000000000000000000000000000000000000000815250613bbe565b886040518363ffffffff167c010000000000000000000000000000000000000000000000000000000002815260040180836000191660001916815260200182815260200192505050600060405180830381600087803b158015612b8a57600080fd5b505af1158015612b9e573d6000803e3d6000fd5b50505050600160009054906101000a900473ffffffffffffffffffffffffffffffffffffffff1673ffffffffffffffffffffffffffffffffffffffff1663e2a4853a612c1e6040805190810160405280600681526020017f4a4f425f49440000000000000000000000000000000000000000000000000000815250613ef2565b846040518363ffffffff167c010000000000000000000000000000000000000000000000000000000002815260040180836000191660001916815260200182815260200192505050600060405180830381600087803b158015612c8057600080fd5b505af1158015612c94573d6000803e3d6000fd5b50505050600160009054906101000a900473ffffffffffffffffffffffffffffffffffffffff1673ffffffffffffffffffffffffffffffffffffffff1663e2a4853a612d15896040805190810160405280600881526020017f4a4f425f48415348000000000000000000000000000000000000000000000000815250613dc4565b846040518363ffffffff167c010000000000000000000000000000000000000000000000000000000002815260040180836000191660001916815260200182815260200192505050600060405180830381600087803b158015612d7757600080fd5b505af1158015612d8b573d6000803e3d6000fd5b50505050600160009054906101000a900473ffffffffffffffffffffffffffffffffffffffff1673ffffffffffffffffffffffffffffffffffffffff1663e2a4853a612e0c846040805190810160405280601181526020017f4a4f425f455354494d4154455f54494d45000000000000000000000000000000815250613bbe565b876040518363ffffffff167c010000000000000000000000000000000000000000000000000000000002815260040180836000191660001916815260200182815260200192505050600060405180830381600087803b158015612e6e57600080fd5b505af1158015612e82573d6000803e3d6000fd5b50505050600160009054906101000a900473ffffffffffffffffffffffffffffffffffffffff1673ffffffffffffffffffffffffffffffffffffffff1663e2a4853a612f03846040805190810160405280600a81526020017f4a4f425f42554447455400000000000000000000000000000000000000000000815250613bbe565b866040518363ffffffff167c010000000000000000000000000000000000000000000000000000000002815260040180836000191660001916815260200182815260200192505050600060405180830381600087803b158015612f6557600080fd5b505af1158015612f79573d6000803e3d6000fd5b5050505082600019163373ffffffffffffffffffffffffffffffffffffffff16837f5ad21fac73b353434bdc18fb303e9da2d53a9950e78b8273bb55e21e6a3a84c28a8a898b6040518080602001858152602001848152602001838152602001828103825286818151815260200191508051906020019080838360005b83811015613011578082015181840152602081019050612ff6565b50505050905090810190601f16801561303e5780820380516001836020036101000a031916815260200191505b509550505050505060405180910390a450505050505050565b6000600160009054906101000a900473ffffffffffffffffffffffffffffffffffffffff1673ffffffffffffffffffffffffffffffffffffffff1663bd02d0f58360405160200180828152602001807f4a4f425f45585049524544000000000000000000000000000000000000000000815250600b019150506040516020818303038152906040526040518082805190602001908083835b60208310151561311457805182526020820191506020810190506020830392506130ef565b6001836020036101000a03801982511681845116808217855250505050505090500191505060405180910390206040518263ffffffff167c0100000000000000000000000000000000000000000000000000000000028152600401808260001916600019168152602001915050602060405180830381600087803b15801561319b57600080fd5b505af11580156131af573d6000803e3d6000fd5b505050506040513d60208110156131c557600080fd5b810190808051906020019092919050505042119050919050565b8060011515600160009054906101000a900473ffffffffffffffffffffffffffffffffffffffff1673ffffffffffffffffffffffffffffffffffffffff16637ae1cfca8360405160200180828152602001807f4a4f425f43414e43454c00000000000000000000000000000000000000000000815250600a019150506040516020818303038152906040526040518082805190602001908083835b60208310151561329f578051825260208201915060208101905060208303925061327a565b6001836020036101000a03801982511681845116808217855250505050505090500191505060405180910390206040518263ffffffff167c0100000000000000000000000000000000000000000000000000000000028152600401808260001916600019168152602001915050602060405180830381600087803b15801561332657600080fd5b505af115801561333a573d6000803e3d6000fd5b505050506040513d602081101561335057600080fd5b810190808051906020019092919050505015151415151561337057600080fd5b816007600160009054906101000a900473ffffffffffffffffffffffffffffffffffffffff1673ffffffffffffffffffffffffffffffffffffffff1663bd02d0f58360405160200180828152602001807f4a4f425f53544154555300000000000000000000000000000000000000000000815250600a019150506040516020818303038152906040526040518082805190602001908083835b60208310151561342e5780518252602082019150602081019050602083039250613409565b6001836020036101000a03801982511681845116808217855250505050505090500191505060405180910390206040518263ffffffff167c0100000000000000000000000000000000000000000000000000000000028152600401808260001916600019168152602001915050602060405180830381600087803b1580156134b557600080fd5b505af11580156134c9573d6000803e3d6000fd5b505050506040513d60208110156134df57600080fd5b81019080805190602001909291905050501415156134fc57600080fd5b823373ffffffffffffffffffffffffffffffffffffffff16600160009054906101000a900473ffffffffffffffffffffffffffffffffffffffff1673ffffffffffffffffffffffffffffffffffffffff166321f8a7218360405160200180828152602001807f465245454c414e43455200000000000000000000000000000000000000000000815250600a019150506040516020818303038152906040526040518082805190602001908083835b6020831015156135cf57805182526020820191506020810190506020830392506135aa565b6001836020036101000a03801982511681845116808217855250505050505090500191505060405180910390206040518263ffffffff167c0100000000000000000000000000000000000000000000000000000000028152600401808260001916600019168152602001915050602060405180830381600087803b15801561365657600080fd5b505af115801561366a573d6000803e3d6000fd5b505050506040513d602081101561368057600080fd5b810190808051906020019092919050505073ffffffffffffffffffffffffffffffffffffffff161415156136b357600080fd5b600160009054906101000a900473ffffffffffffffffffffffffffffffffffffffff1673ffffffffffffffffffffffffffffffffffffffff1663e2a4853a613730866040805190810160405280600a81526020017f4a4f425f53544154555300000000000000000000000000000000000000000000815250613bbe565b60016040518363ffffffff167c010000000000000000000000000000000000000000000000000000000002815260040180836000191660001916815260200182815260200192505050600060405180830381600087803b15801561379357600080fd5b505af11580156137a7573d6000803e3d6000fd5b50505050600160009054906101000a900473ffffffffffffffffffffffffffffffffffffffff1673ffffffffffffffffffffffffffffffffffffffff1663e2a4853a613828866040805190810160405280601581526020017f4a4f425f535441525445445f54494d455354414d500000000000000000000000815250613bbe565b426040518363ffffffff167c010000000000000000000000000000000000000000000000000000000002815260040180836000191660001916815260200182815260200192505050600060405180830381600087803b15801561388a57600080fd5b505af115801561389e573d6000803e3d6000fd5b50505050837f7e2409eb03fe1e2ea93add34ad736f8cddc41ffdc3c5875587b3e40ab490996a60405160405180910390a250505050565b600080600160009054906101000a900473ffffffffffffffffffffffffffffffffffffffff1673ffffffffffffffffffffffffffffffffffffffff166321f8a7218460405160200180828152602001807f465245454c414e43455200000000000000000000000000000000000000000000815250600a019150506040516020818303038152906040526040518082805190602001908083835b602083101515613993578051825260208201915060208101905060208303925061396e565b6001836020036101000a03801982511681845116808217855250505050505090500191505060405180910390206040518263ffffffff167c0100000000000000000000000000000000000000000000000000000000028152600401808260001916600019168152602001915050602060405180830381600087803b158015613a1a57600080fd5b505af1158015613a2e573d6000803e3d6000fd5b505050506040513d6020811015613a4457600080fd5b810190808051906020019092919050505073ffffffffffffffffffffffffffffffffffffffff1614159050919050565b600073ffffffffffffffffffffffffffffffffffffffff166000809054906101000a900473ffffffffffffffffffffffffffffffffffffffff1673ffffffffffffffffffffffffffffffffffffffff16141515613b27576000809054906101000a900473ffffffffffffffffffffffffffffffffffffffff1673ffffffffffffffffffffffffffffffffffffffff163373ffffffffffffffffffffffffffffffffffffffff16141515613b2657600080fd5b5b613b3081613fca565b50565b600081604051602001808281526020019150506040516020818303038152906040526040518082805190602001908083835b602083101515613b8a5780518252602082019150602081019050602083039250613b65565b6001836020036101000a03801982511681845116808217855250505050505090500191505060405180910390209050919050565b600082826040516020018083815260200182805190602001908083835b602083101515613c005780518252602082019150602081019050602083039250613bdb565b6001836020036101000a038019825116818451168082178552505050505050905001925050506040516020818303038152906040526040518082805190602001908083835b602083101515613c6a5780518252602082019150602081019050602083039250613c45565b6001836020036101000a0380198251168184511680821785525050505050509050019150506040518091039020905092915050565b60008383836040516020018084815260200183805190602001908083835b602083101515613ce25780518252602082019150602081019050602083039250613cbd565b6001836020036101000a0380198251168184511680821785525050505050509050018273ffffffffffffffffffffffffffffffffffffffff1673ffffffffffffffffffffffffffffffffffffffff166c0100000000000000000000000002815260140193505050506040516020818303038152906040526040518082805190602001908083835b602083101515613d8e5780518252602082019150602081019050602083039250613d69565b6001836020036101000a038019825116818451168082178552505050505050905001915050604051809103902090509392505050565b600082826040516020018083805190602001908083835b602083101515613e005780518252602082019150602081019050602083039250613ddb565b6001836020036101000a03801982511681845116808217855250505050505090500182805190602001908083835b602083101515613e535780518252602082019150602081019050602083039250613e2e565b6001836020036101000a038019825116818451168082178552505050505050905001925050506040516020818303038152906040526040518082805190602001908083835b602083101515613ebd5780518252602082019150602081019050602083039250613e98565b6001836020036101000a0380198251168184511680821785525050505050509050019150506040518091039020905092915050565b6000816040516020018082805190602001908083835b602083101515613f2d5780518252602082019150602081019050602083039250613f08565b6001836020036101000a0380198251168184511680821785525050505050509050019150506040516020818303038152906040526040518082805190602001908083835b602083101515613f965780518252602082019150602081019050602083039250613f71565b6001836020036101000a03801982511681845116808217855250505050505090500191505060405180910390209050919050565b600073ffffffffffffffffffffffffffffffffffffffff168173ffffffffffffffffffffffffffffffffffffffff161415151561400657600080fd5b8073ffffffffffffffffffffffffffffffffffffffff166000809054906101000a900473ffffffffffffffffffffffffffffffffffffffff1673ffffffffffffffffffffffffffffffffffffffff167f8be0079c531659141344cd1fd0a4f28419497f9722a3daafe3b4186f6b6457e060405160405180910390a3806000806101000a81548173ffffffffffffffffffffffffffffffffffffffff021916908373ffffffffffffffffffffffffffffffffffffffff160217905550505600a165627a7a72305820483528c95823633d7186f319d7b6a4a9bed2396c7da79332721794f62351e4100029",
  "source": "/**\n * Created on 2018-08-13 10:31\n * @summary: \n * @author: Chris Nguyen\n */\npragma solidity ^0.4.24;\nimport './BBFreelancer.sol';\nimport './BBFreelancerPayment.sol';\nimport './BBLib.sol';\n\n\n/**\n * @title BBFreelancerJob\n */\ncontract BBFreelancerJob is BBFreelancer {\n   BBFreelancerPayment public payment = BBFreelancerPayment(0x0);\n\n  /**\n   * @dev \n   * @param paymentAddress address of the Payment Contract\n   */\n  function setPaymentContract(address paymentAddress) onlyOwner public {\n    payment = BBFreelancerPayment(paymentAddress);\n  }\n\n  event JobCreated(bytes jobHash, uint256 indexed jobID, address indexed owner, uint expired, bytes32 indexed category, uint256  budget, uint256 estimateTime);\n  event JobCanceled(uint256 indexed jobID);\n  event JobStarted(uint256 indexed jobID);\n  event JobFinished(uint256 indexed jobID);\n\n  /**\n   * @dev \n   * @param jobID Job ID\n   */\n  function getJob(uint256 jobID) public view returns(address, uint256, uint256, bool, uint256, address){\n    address owner = bbs.getAddress(BBLib.toB32(jobID));\n    uint256 expired = bbs.getUint(BBLib.toB32(jobID, 'JOB_EXPIRED'));\n    uint256 budget = bbs.getUint(BBLib.toB32(jobID, 'JOB_BUDGET'));\n    bool cancel = bbs.getBool(BBLib.toB32(jobID, 'JOB_CANCEL'));\n    uint256 status = bbs.getUint(BBLib.toB32(jobID, 'JOB_STATUS'));\n    address freelancer = bbs.getAddress(BBLib.toB32(jobID, 'FREELANCER'));\n    return (owner, expired, budget, cancel, status, freelancer);\n\n  }\n\n\n  /**\n   * @dev \n   * @param jobHash Job Hash\n   * @param expired Time\n   * @param estimateTime Time do the job\n   * @param budget Buget\n   * @param category Tag category\n   */\n  function createJob(bytes jobHash, uint expired ,uint estimateTime, uint256 budget, bytes32 category) public \n  jobNotExist(jobHash)\n  {\n    // check jobHash not null\n    require(jobHash.length > 0);\n    // expired > now\n    require(expired > now);\n    // budget\n    require(budget > 0);\n\n    require(estimateTime > 0);\n\n    //Save jobHash by jobID\n    uint256 jobID = bbs.getUint(BBLib.toB32('JOB_ID'));\n    jobID++;\n    // save jobHash owner\n    bbs.setAddress(BBLib.toB32(jobID), msg.sender);\n\n    // save expired timestamp\n    bbs.setUint(BBLib.toB32(jobID, 'JOB_EXPIRED'), expired);\n    \n    bbs.setUint(BBLib.toB32('JOB_ID'),jobID);\n    //mapping jobHash with jobID\n    bbs.setUint(BBLib.toB32(jobHash,'JOB_HASH'), jobID);\n    // save time freelancer can done this job\n    bbs.setUint(BBLib.toB32(jobID, 'JOB_ESTIMATE_TIME'), estimateTime);\n    // save budget \n    bbs.setUint(BBLib.toB32(jobID, 'JOB_BUDGET'), budget);\n \n    emit JobCreated(jobHash, jobID, msg.sender, expired, category, budget, estimateTime);\n  }\n    // hirer  cancel job\n  /**\n   * @dev \n   * @param jobID Job ID\n   */\n  function cancelJob(uint256 jobID) public \n  isOwnerJob(jobID)  {\n\n    uint status = bbs.getUint(BBLib.toB32(jobID,'JOB_STATUS'));\n    require(status == 0 || status == 1 || status == 7);\n    if(status == 1) {\n      address freelancer = bbs.getAddress(BBLib.toB32(jobID, 'FREELANCER'));\n      uint bidTime = bbs.getUint(BBLib.toB32(jobID, 'BID_TIME', freelancer));\n      uint timeStartJob = bbs.getUint(BBLib.toB32(jobID, 'JOB_STARTED_TIMESTAMP'));\n      require(now > timeStartJob + bidTime);\n    }\n    bbs.setBool(BBLib.toB32(jobID,'JOB_CANCEL'), true);\n    //require(payment.refundBBO(jobID));\n    emit JobCanceled(jobID);\n  }\n  // freelancer start Job\n  /**\n   * @dev \n   * @param jobID Job ID\n   */\n  function startJob(uint256 jobID) public \n  isNotCanceled(jobID)\n  jobCanStart(jobID)\n  isFreelancerOfJob(jobID) {\n    // set status to 1\n    bbs.setUint(BBLib.toB32(jobID,'JOB_STATUS'), 1);\n    //Begin set time start job\n    bbs.setUint(BBLib.toB32(jobID,'JOB_STARTED_TIMESTAMP'), now);\n    \n    emit JobStarted(jobID);\n  }\n  // freelancer finish Job\n  /**\n   * @dev \n   * @param jobID Job ID\n   */\n  function finishJob(uint256 jobID) public \n  isNotOwnerJob(jobID) \n  isFreelancerOfJob(jobID) {\n    //status el 1\n    require(bbs.getUint(BBLib.toB32(jobID,'JOB_STATUS')) == 1);\n\n    bbs.setUint(BBLib.toB32(jobID,'JOB_STATUS'), 2);\n    bbs.setUint(BBLib.toB32(jobID,'JOB_FINISHED_TIMESTAMP'), now);\n    emit JobFinished(jobID);\n  }\n\n  function getJobID(bytes jobHash) public view returns(uint256){\n      return bbs.getUint(BBLib.toB32(jobHash,'JOB_HASH'));\n  }\n\n\n}\n",
  "sourcePath": "/Users/trantho/Code/SmartContract/digital-contracts/src/contracts/BBFreelancerJob.sol",
  "compiler": {
    "name": "solc",
    "version": "0.4.24+commit.e67f0147.Emscripten.clang"
  },
  "schemaVersion": "2.0.1",
  "updatedAt": "2018-12-22T03:21:10.982Z"
}