{
  "contractName": "BBFreelancerBid",
  "abi": [
    {
      "constant": true,
      "inputs": [],
      "name": "bbo",
      "outputs": [
        {
          "name": "",
          "type": "address"
        }
      ],
      "payable": false,
      "stateMutability": "view",
      "type": "function"
    },
    {
      "constant": true,
      "inputs": [],
      "name": "bbs",
      "outputs": [
        {
          "name": "",
          "type": "address"
        }
      ],
      "payable": false,
      "stateMutability": "view",
      "type": "function"
    },
    {
      "constant": true,
      "inputs": [],
      "name": "payment",
      "outputs": [
        {
          "name": "",
          "type": "address"
        }
      ],
      "payable": false,
      "stateMutability": "view",
      "type": "function"
    },
    {
      "constant": false,
      "inputs": [],
      "name": "renounceOwnership",
      "outputs": [],
      "payable": false,
      "stateMutability": "nonpayable",
      "type": "function"
    },
    {
      "constant": false,
      "inputs": [
        {
          "name": "BBOAddress",
          "type": "address"
        }
      ],
      "name": "setBBO",
      "outputs": [],
      "payable": false,
      "stateMutability": "nonpayable",
      "type": "function"
    },
    {
      "constant": true,
      "inputs": [
        {
          "name": "jobID",
          "type": "uint256"
        }
      ],
      "name": "isJobCancel",
      "outputs": [
        {
          "name": "",
          "type": "bool"
        }
      ],
      "payable": false,
      "stateMutability": "view",
      "type": "function"
    },
    {
      "constant": true,
      "inputs": [],
      "name": "owner",
      "outputs": [
        {
          "name": "",
          "type": "address"
        }
      ],
      "payable": false,
      "stateMutability": "view",
      "type": "function"
    },
    {
      "constant": false,
      "inputs": [
        {
          "name": "anyToken",
          "type": "address"
        }
      ],
      "name": "emergencyERC20Drain",
      "outputs": [],
      "payable": false,
      "stateMutability": "nonpayable",
      "type": "function"
    },
    {
      "constant": false,
      "inputs": [
        {
          "name": "storageAddress",
          "type": "address"
        }
      ],
      "name": "setStorage",
      "outputs": [],
      "payable": false,
      "stateMutability": "nonpayable",
      "type": "function"
    },
    {
      "constant": true,
      "inputs": [
        {
          "name": "jobID",
          "type": "uint256"
        }
      ],
      "name": "isJobStart",
      "outputs": [
        {
          "name": "",
          "type": "bool"
        }
      ],
      "payable": false,
      "stateMutability": "view",
      "type": "function"
    },
    {
      "constant": true,
      "inputs": [
        {
          "name": "sender",
          "type": "address"
        },
        {
          "name": "jobID",
          "type": "uint256"
        }
      ],
      "name": "isOwnerOfJob",
      "outputs": [
        {
          "name": "",
          "type": "bool"
        }
      ],
      "payable": false,
      "stateMutability": "view",
      "type": "function"
    },
    {
      "constant": true,
      "inputs": [
        {
          "name": "jobID",
          "type": "uint256"
        }
      ],
      "name": "isJobExpired",
      "outputs": [
        {
          "name": "",
          "type": "bool"
        }
      ],
      "payable": false,
      "stateMutability": "view",
      "type": "function"
    },
    {
      "constant": true,
      "inputs": [
        {
          "name": "jobID",
          "type": "uint256"
        }
      ],
      "name": "isJobHasFreelancer",
      "outputs": [
        {
          "name": "",
          "type": "bool"
        }
      ],
      "payable": false,
      "stateMutability": "view",
      "type": "function"
    },
    {
      "constant": false,
      "inputs": [
        {
          "name": "_newOwner",
          "type": "address"
        }
      ],
      "name": "transferOwnership",
      "outputs": [],
      "payable": false,
      "stateMutability": "nonpayable",
      "type": "function"
    },
    {
      "anonymous": false,
      "inputs": [
        {
          "indexed": true,
          "name": "jobID",
          "type": "uint256"
        },
        {
          "indexed": true,
          "name": "owner",
          "type": "address"
        },
        {
          "indexed": false,
          "name": "ownerID",
          "type": "uint256"
        },
        {
          "indexed": false,
          "name": "bid",
          "type": "uint256"
        },
        {
          "indexed": false,
          "name": "bidTime",
          "type": "uint256"
        }
      ],
      "name": "BidCreated",
      "type": "event"
    },
    {
      "anonymous": false,
      "inputs": [
        {
          "indexed": true,
          "name": "jobID",
          "type": "uint256"
        },
        {
          "indexed": true,
          "name": "owner",
          "type": "address"
        }
      ],
      "name": "BidCanceled",
      "type": "event"
    },
    {
      "anonymous": false,
      "inputs": [
        {
          "indexed": true,
          "name": "jobID",
          "type": "uint256"
        },
        {
          "indexed": false,
          "name": "bid",
          "type": "uint256"
        },
        {
          "indexed": true,
          "name": "freelancerID",
          "type": "uint256"
        }
      ],
      "name": "BidAccepted",
      "type": "event"
    },
    {
      "anonymous": false,
      "inputs": [
        {
          "indexed": true,
          "name": "previousOwner",
          "type": "address"
        }
      ],
      "name": "OwnershipRenounced",
      "type": "event"
    },
    {
      "anonymous": false,
      "inputs": [
        {
          "indexed": true,
          "name": "previousOwner",
          "type": "address"
        },
        {
          "indexed": true,
          "name": "newOwner",
          "type": "address"
        }
      ],
      "name": "OwnershipTransferred",
      "type": "event"
    },
    {
      "constant": false,
      "inputs": [
        {
          "name": "paymentAddress",
          "type": "address"
        }
      ],
      "name": "setPaymentContract",
      "outputs": [],
      "payable": false,
      "stateMutability": "nonpayable",
      "type": "function"
    },
    {
      "constant": false,
      "inputs": [
        {
          "name": "userID",
          "type": "uint256"
        },
        {
          "name": "jobID",
          "type": "uint256"
        },
        {
          "name": "bid",
          "type": "uint256"
        },
        {
          "name": "bidTime",
          "type": "uint256"
        }
      ],
      "name": "createBid",
      "outputs": [],
      "payable": false,
      "stateMutability": "nonpayable",
      "type": "function"
    },
    {
      "constant": false,
      "inputs": [
        {
          "name": "jobID",
          "type": "uint256"
        }
      ],
      "name": "cancelBid",
      "outputs": [],
      "payable": false,
      "stateMutability": "nonpayable",
      "type": "function"
    },
    {
      "constant": false,
      "inputs": [
        {
          "name": "freelancerID",
          "type": "uint256"
        },
        {
          "name": "jobID",
          "type": "uint256"
        },
        {
          "name": "freelancer",
          "type": "address"
        }
      ],
      "name": "acceptBid",
      "outputs": [],
      "payable": false,
      "stateMutability": "nonpayable",
      "type": "function"
    }
  ],
  "bytecode": "0x60806040526000600160006101000a81548173ffffffffffffffffffffffffffffffffffffffff021916908373ffffffffffffffffffffffffffffffffffffffff1602179055506000600260006101000a81548173ffffffffffffffffffffffffffffffffffffffff021916908373ffffffffffffffffffffffffffffffffffffffff1602179055506000600360006101000a81548173ffffffffffffffffffffffffffffffffffffffff021916908373ffffffffffffffffffffffffffffffffffffffff160217905550336000806101000a81548173ffffffffffffffffffffffffffffffffffffffff021916908373ffffffffffffffffffffffffffffffffffffffff160217905550613c1a806101196000396000f3006080604052600436106100fc576000357c0100000000000000000000000000000000000000000000000000000000900463ffffffff1680631e89bf06146101015780631fde23a41461015857806342f6487a146101af5780634aa28be814610206578063715018a6146102515780637937f46d146102685780638abb20cc146102ab5780638b01bcc3146102ee5780638da5cb5b1461033357806390e8d82f1461038a5780639137c1a7146103cd5780639703ef3514610410578063b191f79d1461043d578063b8edcd1f14610482578063dad788d9146104e7578063def5e7371461052c578063ebe5f59014610583578063f2fde38b146105c8575b600080fd5b34801561010d57600080fd5b5061011661060b565b604051808273ffffffffffffffffffffffffffffffffffffffff1673ffffffffffffffffffffffffffffffffffffffff16815260200191505060405180910390f35b34801561016457600080fd5b5061016d610631565b604051808273ffffffffffffffffffffffffffffffffffffffff1673ffffffffffffffffffffffffffffffffffffffff16815260200191505060405180910390f35b3480156101bb57600080fd5b506101c4610657565b604051808273ffffffffffffffffffffffffffffffffffffffff1673ffffffffffffffffffffffffffffffffffffffff16815260200191505060405180910390f35b34801561021257600080fd5b5061024f6004803603810190808035906020019092919080359060200190929190803590602001909291908035906020019092919050505061067d565b005b34801561025d57600080fd5b506102666111a9565b005b34801561027457600080fd5b506102a9600480360381019080803573ffffffffffffffffffffffffffffffffffffffff1690602001909291905050506112ab565b005b3480156102b757600080fd5b506102ec600480360381019080803573ffffffffffffffffffffffffffffffffffffffff16906020019092919050505061134a565b005b3480156102fa57600080fd5b50610319600480360381019080803590602001909291905050506113e9565b604051808215151515815260200191505060405180910390f35b34801561033f57600080fd5b5061034861156f565b604051808273ffffffffffffffffffffffffffffffffffffffff1673ffffffffffffffffffffffffffffffffffffffff16815260200191505060405180910390f35b34801561039657600080fd5b506103cb600480360381019080803573ffffffffffffffffffffffffffffffffffffffff169060200190929190505050611594565b005b3480156103d957600080fd5b5061040e600480360381019080803573ffffffffffffffffffffffffffffffffffffffff1690602001909291905050506118a8565b005b34801561041c57600080fd5b5061043b60048036038101908080359060200190929190505050611947565b005b34801561044957600080fd5b506104686004803603810190808035906020019092919050505061249c565b604051808215151515815260200191505060405180910390f35b34801561048e57600080fd5b506104cd600480360381019080803573ffffffffffffffffffffffffffffffffffffffff16906020019092919080359060200190929190505050612625565b604051808215151515815260200191505060405180910390f35b3480156104f357600080fd5b5061051260048036038101908080359060200190929190505050612739565b604051808215151515815260200191505060405180910390f35b34801561053857600080fd5b506105816004803603810190808035906020019092919080359060200190929190803573ffffffffffffffffffffffffffffffffffffffff1690602001909291905050506128c1565b005b34801561058f57600080fd5b506105ae60048036038101908080359060200190929190505050612fea565b604051808215151515815260200191505060405180910390f35b3480156105d457600080fd5b50610609600480360381019080803573ffffffffffffffffffffffffffffffffffffffff169060200190929190505050613189565b005b600260009054906101000a900473ffffffffffffffffffffffffffffffffffffffff1681565b600160009054906101000a900473ffffffffffffffffffffffffffffffffffffffff1681565b600360009054906101000a900473ffffffffffffffffffffffffffffffffffffffff1681565b826000600160009054906101000a900473ffffffffffffffffffffffffffffffffffffffff1673ffffffffffffffffffffffffffffffffffffffff166321f8a7216106c784613248565b6040518263ffffffff167c0100000000000000000000000000000000000000000000000000000000028152600401808260001916600019168152602001915050602060405180830381600087803b15801561072157600080fd5b505af1158015610735573d6000803e3d6000fd5b505050506040513d602081101561074b57600080fd5b8101908080519060200190929190505050905060008173ffffffffffffffffffffffffffffffffffffffff161415151561078457600080fd5b8073ffffffffffffffffffffffffffffffffffffffff163373ffffffffffffffffffffffffffffffffffffffff16141515156107bf57600080fd5b8460011515600160009054906101000a900473ffffffffffffffffffffffffffffffffffffffff1673ffffffffffffffffffffffffffffffffffffffff16637ae1cfca8360405160200180828152602001807f4a4f425f43414e43454c00000000000000000000000000000000000000000000815250600a019150506040516020818303038152906040526040518082805190602001908083835b60208310151561087f578051825260208201915060208101905060208303925061085a565b6001836020036101000a03801982511681845116808217855250505050505090500191505060405180910390206040518263ffffffff167c0100000000000000000000000000000000000000000000000000000000028152600401808260001916600019168152602001915050602060405180830381600087803b15801561090657600080fd5b505af115801561091a573d6000803e3d6000fd5b505050506040513d602081101561093057600080fd5b810190808051906020019092919050505015151415151561095057600080fd5b856000600160009054906101000a900473ffffffffffffffffffffffffffffffffffffffff1673ffffffffffffffffffffffffffffffffffffffff1663bd02d0f58360405160200180828152602001807f4a4f425f53544154555300000000000000000000000000000000000000000000815250600a019150506040516020818303038152906040526040518082805190602001908083835b602083101515610a0e57805182526020820191506020810190506020830392506109e9565b6001836020036101000a03801982511681845116808217855250505050505090500191505060405180910390206040518263ffffffff167c0100000000000000000000000000000000000000000000000000000000028152600401808260001916600019168152602001915050602060405180830381600087803b158015610a9557600080fd5b505af1158015610aa9573d6000803e3d6000fd5b505050506040513d6020811015610abf57600080fd5b8101908080519060200190929190505050141515610adc57600080fd5b60011515600160009054906101000a900473ffffffffffffffffffffffffffffffffffffffff1673ffffffffffffffffffffffffffffffffffffffff16637ae1cfca610b5e8a336040805190810160405280600a81526020017f4a4f425f43414e43454c000000000000000000000000000000000000000000008152506132d3565b6040518263ffffffff167c0100000000000000000000000000000000000000000000000000000000028152600401808260001916600019168152602001915050602060405180830381600087803b158015610bb857600080fd5b505af1158015610bcc573d6000803e3d6000fd5b505050506040513d6020811015610be257600080fd5b8101908080519060200190929190505050151514151515610c0257600080fd5b600160009054906101000a900473ffffffffffffffffffffffffffffffffffffffff1673ffffffffffffffffffffffffffffffffffffffff1663bd02d0f5610c7f896040805190810160405280600a81526020017f4a4f425f425544474554000000000000000000000000000000000000000000008152506133f8565b6040518263ffffffff167c0100000000000000000000000000000000000000000000000000000000028152600401808260001916600019168152602001915050602060405180830381600087803b158015610cd957600080fd5b505af1158015610ced573d6000803e3d6000fd5b505050506040513d6020811015610d0357600080fd5b81019080805190602001909291905050508611151515610d2257600080fd5b600160009054906101000a900473ffffffffffffffffffffffffffffffffffffffff1673ffffffffffffffffffffffffffffffffffffffff1663bd02d0f5610d9f896040805190810160405280600b81526020017f4a4f425f455850495245440000000000000000000000000000000000000000008152506133f8565b6040518263ffffffff167c0100000000000000000000000000000000000000000000000000000000028152600401808260001916600019168152602001915050602060405180830381600087803b158015610df957600080fd5b505af1158015610e0d573d6000803e3d6000fd5b505050506040513d6020811015610e2357600080fd5b810190808051906020019092919050505042101515610e4157600080fd5b6000600160009054906101000a900473ffffffffffffffffffffffffffffffffffffffff1673ffffffffffffffffffffffffffffffffffffffff166321f8a721610ec08a6040805190810160405280600a81526020017f465245454c414e434552000000000000000000000000000000000000000000008152506133f8565b6040518263ffffffff167c0100000000000000000000000000000000000000000000000000000000028152600401808260001916600019168152602001915050602060405180830381600087803b158015610f1a57600080fd5b505af1158015610f2e573d6000803e3d6000fd5b505050506040513d6020811015610f4457600080fd5b810190808051906020019092919050505073ffffffffffffffffffffffffffffffffffffffff16141515610f7757600080fd5b600085111515610f8657600080fd5b600160009054906101000a900473ffffffffffffffffffffffffffffffffffffffff1673ffffffffffffffffffffffffffffffffffffffff1663e2a4853a610fce89336134d9565b886040518363ffffffff167c010000000000000000000000000000000000000000000000000000000002815260040180836000191660001916815260200182815260200192505050600060405180830381600087803b15801561103057600080fd5b505af1158015611044573d6000803e3d6000fd5b50505050600160009054906101000a900473ffffffffffffffffffffffffffffffffffffffff1673ffffffffffffffffffffffffffffffffffffffff1663e2a4853a6110c6896040805190810160405280600881526020017f4249445f54494d45000000000000000000000000000000000000000000000000815250336135a8565b876040518363ffffffff167c010000000000000000000000000000000000000000000000000000000002815260040180836000191660001916815260200182815260200192505050600060405180830381600087803b15801561112857600080fd5b505af115801561113c573d6000803e3d6000fd5b505050503373ffffffffffffffffffffffffffffffffffffffff16877ff912dbe437ca5ac4217d0052764fe3e02be5bc418e6328346d4dfd8c3d493c8a888b8960405180848152602001838152602001828152602001935050505060405180910390a35050505050505050565b6000809054906101000a900473ffffffffffffffffffffffffffffffffffffffff1673ffffffffffffffffffffffffffffffffffffffff163373ffffffffffffffffffffffffffffffffffffffff1614151561120457600080fd5b6000809054906101000a900473ffffffffffffffffffffffffffffffffffffffff1673ffffffffffffffffffffffffffffffffffffffff167ff8df31144d9c2f0f6b59d69b8b98abd5459d07f2742c4df920b25aae33c6482060405160405180910390a260008060006101000a81548173ffffffffffffffffffffffffffffffffffffffff021916908373ffffffffffffffffffffffffffffffffffffffff160217905550565b6000809054906101000a900473ffffffffffffffffffffffffffffffffffffffff1673ffffffffffffffffffffffffffffffffffffffff163373ffffffffffffffffffffffffffffffffffffffff1614151561130657600080fd5b80600260006101000a81548173ffffffffffffffffffffffffffffffffffffffff021916908373ffffffffffffffffffffffffffffffffffffffff16021790555050565b6000809054906101000a900473ffffffffffffffffffffffffffffffffffffffff1673ffffffffffffffffffffffffffffffffffffffff163373ffffffffffffffffffffffffffffffffffffffff161415156113a557600080fd5b80600360006101000a81548173ffffffffffffffffffffffffffffffffffffffff021916908373ffffffffffffffffffffffffffffffffffffffff16021790555050565b6000600160009054906101000a900473ffffffffffffffffffffffffffffffffffffffff1673ffffffffffffffffffffffffffffffffffffffff16637ae1cfca8360405160200180828152602001807f4a4f425f43414e43454c00000000000000000000000000000000000000000000815250600a019150506040516020818303038152906040526040518082805190602001908083835b6020831015156114a65780518252602082019150602081019050602083039250611481565b6001836020036101000a03801982511681845116808217855250505050505090500191505060405180910390206040518263ffffffff167c0100000000000000000000000000000000000000000000000000000000028152600401808260001916600019168152602001915050602060405180830381600087803b15801561152d57600080fd5b505af1158015611541573d6000803e3d6000fd5b505050506040513d602081101561155757600080fd5b81019080805190602001909291905050509050919050565b6000809054906101000a900473ffffffffffffffffffffffffffffffffffffffff1681565b6000809054906101000a900473ffffffffffffffffffffffffffffffffffffffff1673ffffffffffffffffffffffffffffffffffffffff163373ffffffffffffffffffffffffffffffffffffffff161415156115ef57600080fd5b60003073ffffffffffffffffffffffffffffffffffffffff1631111561168f576000809054906101000a900473ffffffffffffffffffffffffffffffffffffffff1673ffffffffffffffffffffffffffffffffffffffff166108fc3073ffffffffffffffffffffffffffffffffffffffff16319081150290604051600060405180830381858888f1935050505015801561168d573d6000803e3d6000fd5b505b600073ffffffffffffffffffffffffffffffffffffffff168173ffffffffffffffffffffffffffffffffffffffff161415156118a5578073ffffffffffffffffffffffffffffffffffffffff1663a9059cbb6000809054906101000a900473ffffffffffffffffffffffffffffffffffffffff168373ffffffffffffffffffffffffffffffffffffffff166370a08231306040518263ffffffff167c0100000000000000000000000000000000000000000000000000000000028152600401808273ffffffffffffffffffffffffffffffffffffffff1673ffffffffffffffffffffffffffffffffffffffff168152602001915050602060405180830381600087803b15801561179e57600080fd5b505af11580156117b2573d6000803e3d6000fd5b505050506040513d60208110156117c857600080fd5b81019080805190602001909291905050506040518363ffffffff167c0100000000000000000000000000000000000000000000000000000000028152600401808373ffffffffffffffffffffffffffffffffffffffff1673ffffffffffffffffffffffffffffffffffffffff16815260200182815260200192505050602060405180830381600087803b15801561185e57600080fd5b505af1158015611872573d6000803e3d6000fd5b505050506040513d602081101561188857600080fd5b810190808051906020019092919050505015156118a457600080fd5b5b50565b6000809054906101000a900473ffffffffffffffffffffffffffffffffffffffff1673ffffffffffffffffffffffffffffffffffffffff163373ffffffffffffffffffffffffffffffffffffffff1614151561190357600080fd5b80600160006101000a81548173ffffffffffffffffffffffffffffffffffffffff021916908373ffffffffffffffffffffffffffffffffffffffff16021790555050565b600080826007600160009054906101000a900473ffffffffffffffffffffffffffffffffffffffff1673ffffffffffffffffffffffffffffffffffffffff1663bd02d0f58360405160200180828152602001807f4a4f425f53544154555300000000000000000000000000000000000000000000815250600a019150506040516020818303038152906040526040518082805190602001908083835b602083101515611a0857805182526020820191506020810190506020830392506119e3565b6001836020036101000a03801982511681845116808217855250505050505090500191505060405180910390206040518263ffffffff167c0100000000000000000000000000000000000000000000000000000000028152600401808260001916600019168152602001915050602060405180830381600087803b158015611a8f57600080fd5b505af1158015611aa3573d6000803e3d6000fd5b505050506040513d6020811015611ab957600080fd5b8101908080519060200190929190505050141515611ad657600080fd5b600160009054906101000a900473ffffffffffffffffffffffffffffffffffffffff1673ffffffffffffffffffffffffffffffffffffffff166321f8a7218560405160200180828152602001807f465245454c414e43455200000000000000000000000000000000000000000000815250600a019150506040516020818303038152906040526040518082805190602001908083835b602083101515611b915780518252602082019150602081019050602083039250611b6c565b6001836020036101000a03801982511681845116808217855250505050505090500191505060405180910390206040518263ffffffff167c0100000000000000000000000000000000000000000000000000000000028152600401808260001916600019168152602001915050602060405180830381600087803b158015611c1857600080fd5b505af1158015611c2c573d6000803e3d6000fd5b505050506040513d6020811015611c4257600080fd5b810190808051906020019092919050505092503373ffffffffffffffffffffffffffffffffffffffff16600160009054906101000a900473ffffffffffffffffffffffffffffffffffffffff1673ffffffffffffffffffffffffffffffffffffffff166321f8a721611cb387613248565b6040518263ffffffff167c0100000000000000000000000000000000000000000000000000000000028152600401808260001916600019168152602001915050602060405180830381600087803b158015611d0d57600080fd5b505af1158015611d21573d6000803e3d6000fd5b505050506040513d6020811015611d3757600080fd5b810190808051906020019092919050505073ffffffffffffffffffffffffffffffffffffffff16148015611d82575060008373ffffffffffffffffffffffffffffffffffffffff1614155b15611f0557600160009054906101000a900473ffffffffffffffffffffffffffffffffffffffff1673ffffffffffffffffffffffffffffffffffffffff1663ca446dd98560405160200180828152602001807f465245454c414e43455200000000000000000000000000000000000000000000815250600a019150506040516020818303038152906040526040518082805190602001908083835b602083101515611e425780518252602082019150602081019050602083039250611e1d565b6001836020036101000a038019825116818451168082178552505050505050905001915050604051809103902060006040518363ffffffff167c01000000000000000000000000000000000000000000000000000000000281526004018083600019166000191681526020018273ffffffffffffffffffffffffffffffffffffffff16815260200192505050600060405180830381600087803b158015611ee857600080fd5b505af1158015611efc573d6000803e3d6000fd5b5050505061235a565b600160009054906101000a900473ffffffffffffffffffffffffffffffffffffffff1673ffffffffffffffffffffffffffffffffffffffff1663bd02d0f58533604051602001808381526020018273ffffffffffffffffffffffffffffffffffffffff1673ffffffffffffffffffffffffffffffffffffffff166c01000000000000000000000000028152601401925050506040516020818303038152906040526040518082805190602001908083835b602083101515611fdb5780518252602082019150602081019050602083039250611fb6565b6001836020036101000a03801982511681845116808217855250505050505090500191505060405180910390206040518263ffffffff167c0100000000000000000000000000000000000000000000000000000000028152600401808260001916600019168152602001915050602060405180830381600087803b15801561206257600080fd5b505af1158015612076573d6000803e3d6000fd5b505050506040513d602081101561208c57600080fd5b810190808051906020019092919050505091506000821115156120ae57600080fd5b600160009054906101000a900473ffffffffffffffffffffffffffffffffffffffff1673ffffffffffffffffffffffffffffffffffffffff1663abfdcced61212c86336040805190810160405280600a81526020017f4a4f425f43414e43454c000000000000000000000000000000000000000000008152506132d3565b60016040518363ffffffff167c01000000000000000000000000000000000000000000000000000000000281526004018083600019166000191681526020018215151515815260200192505050600060405180830381600087803b15801561219357600080fd5b505af11580156121a7573d6000803e3d6000fd5b505050508273ffffffffffffffffffffffffffffffffffffffff163373ffffffffffffffffffffffffffffffffffffffff16141561235957600160009054906101000a900473ffffffffffffffffffffffffffffffffffffffff1673ffffffffffffffffffffffffffffffffffffffff1663ca446dd98560405160200180828152602001807f465245454c414e43455200000000000000000000000000000000000000000000815250600a019150506040516020818303038152906040526040518082805190602001908083835b60208310151561229a5780518252602082019150602081019050602083039250612275565b6001836020036101000a038019825116818451168082178552505050505050905001915050604051809103902060006040518363ffffffff167c01000000000000000000000000000000000000000000000000000000000281526004018083600019166000191681526020018273ffffffffffffffffffffffffffffffffffffffff16815260200192505050600060405180830381600087803b15801561234057600080fd5b505af1158015612354573d6000803e3d6000fd5b505050505b5b600160009054906101000a900473ffffffffffffffffffffffffffffffffffffffff1673ffffffffffffffffffffffffffffffffffffffff1663e2a4853a6123d7866040805190810160405280600a81526020017f4a4f425f535441545553000000000000000000000000000000000000000000008152506133f8565b60006040518363ffffffff167c010000000000000000000000000000000000000000000000000000000002815260040180836000191660001916815260200182815260200192505050600060405180830381600087803b15801561243a57600080fd5b505af115801561244e573d6000803e3d6000fd5b505050503373ffffffffffffffffffffffffffffffffffffffff16847f3870eb7429efb5d4c9fb8dd66016382c01ef7bb17f317e6feb30e37ce878b1fb60405160405180910390a350505050565b600080600160009054906101000a900473ffffffffffffffffffffffffffffffffffffffff1673ffffffffffffffffffffffffffffffffffffffff1663bd02d0f58460405160200180828152602001807f4a4f425f53544154555300000000000000000000000000000000000000000000815250600a019150506040516020818303038152906040526040518082805190602001908083835b60208310151561255a5780518252602082019150602081019050602083039250612535565b6001836020036101000a03801982511681845116808217855250505050505090500191505060405180910390206040518263ffffffff167c0100000000000000000000000000000000000000000000000000000000028152600401808260001916600019168152602001915050602060405180830381600087803b1580156125e157600080fd5b505af11580156125f5573d6000803e3d6000fd5b505050506040513d602081101561260b57600080fd5b810190808051906020019092919050505014159050919050565b60008273ffffffffffffffffffffffffffffffffffffffff16600160009054906101000a900473ffffffffffffffffffffffffffffffffffffffff1673ffffffffffffffffffffffffffffffffffffffff166321f8a72161268585613248565b6040518263ffffffff167c0100000000000000000000000000000000000000000000000000000000028152600401808260001916600019168152602001915050602060405180830381600087803b1580156126df57600080fd5b505af11580156126f3573d6000803e3d6000fd5b505050506040513d602081101561270957600080fd5b810190808051906020019092919050505073ffffffffffffffffffffffffffffffffffffffff1614905092915050565b6000600160009054906101000a900473ffffffffffffffffffffffffffffffffffffffff1673ffffffffffffffffffffffffffffffffffffffff1663bd02d0f58360405160200180828152602001807f4a4f425f45585049524544000000000000000000000000000000000000000000815250600b019150506040516020818303038152906040526040518082805190602001908083835b6020831015156127f657805182526020820191506020810190506020830392506127d1565b6001836020036101000a03801982511681845116808217855250505050505090500191505060405180910390206040518263ffffffff167c0100000000000000000000000000000000000000000000000000000000028152600401808260001916600019168152602001915050602060405180830381600087803b15801561287d57600080fd5b505af1158015612891573d6000803e3d6000fd5b505050506040513d60208110156128a757600080fd5b810190808051906020019092919050505042119050919050565b6000823373ffffffffffffffffffffffffffffffffffffffff16600160009054906101000a900473ffffffffffffffffffffffffffffffffffffffff1673ffffffffffffffffffffffffffffffffffffffff166321f8a72161292284613248565b6040518263ffffffff167c0100000000000000000000000000000000000000000000000000000000028152600401808260001916600019168152602001915050602060405180830381600087803b15801561297c57600080fd5b505af1158015612990573d6000803e3d6000fd5b505050506040513d60208110156129a657600080fd5b810190808051906020019092919050505073ffffffffffffffffffffffffffffffffffffffff161415156129d957600080fd5b836000600160009054906101000a900473ffffffffffffffffffffffffffffffffffffffff1673ffffffffffffffffffffffffffffffffffffffff1663bd02d0f58360405160200180828152602001807f4a4f425f53544154555300000000000000000000000000000000000000000000815250600a019150506040516020818303038152906040526040518082805190602001908083835b602083101515612a975780518252602082019150602081019050602083039250612a72565b6001836020036101000a03801982511681845116808217855250505050505090500191505060405180910390206040518263ffffffff167c0100000000000000000000000000000000000000000000000000000000028152600401808260001916600019168152602001915050602060405180830381600087803b158015612b1e57600080fd5b505af1158015612b32573d6000803e3d6000fd5b505050506040513d6020811015612b4857600080fd5b810190808051906020019092919050505090506000811480612b6a5750600781145b1515612b7557600080fd5b8560011515600160009054906101000a900473ffffffffffffffffffffffffffffffffffffffff1673ffffffffffffffffffffffffffffffffffffffff16637ae1cfca8360405160200180828152602001807f4a4f425f43414e43454c00000000000000000000000000000000000000000000815250600a019150506040516020818303038152906040526040518082805190602001908083835b602083101515612c355780518252602082019150602081019050602083039250612c10565b6001836020036101000a03801982511681845116808217855250505050505090500191505060405180910390206040518263ffffffff167c0100000000000000000000000000000000000000000000000000000000028152600401808260001916600019168152602001915050602060405180830381600087803b158015612cbc57600080fd5b505af1158015612cd0573d6000803e3d6000fd5b505050506040513d6020811015612ce657600080fd5b8101908080519060200190929190505050151514151515612d0657600080fd5b600160009054906101000a900473ffffffffffffffffffffffffffffffffffffffff1673ffffffffffffffffffffffffffffffffffffffff1663bd02d0f58888604051602001808381526020018273ffffffffffffffffffffffffffffffffffffffff1673ffffffffffffffffffffffffffffffffffffffff166c01000000000000000000000000028152601401925050506040516020818303038152906040526040518082805190602001908083835b602083101515612ddc5780518252602082019150602081019050602083039250612db7565b6001836020036101000a03801982511681845116808217855250505050505090500191505060405180910390206040518263ffffffff167c0100000000000000000000000000000000000000000000000000000000028152600401808260001916600019168152602001915050602060405180830381600087803b158015612e6357600080fd5b505af1158015612e77573d6000803e3d6000fd5b505050506040513d6020811015612e8d57600080fd5b81019080805190602001909291905050509450600085111515612eaf57600080fd5b60011515600160009054906101000a900473ffffffffffffffffffffffffffffffffffffffff1673ffffffffffffffffffffffffffffffffffffffff16637ae1cfca612f308a6040805190810160405280600a81526020017f4a4f425f43414e43454c000000000000000000000000000000000000000000008152506133f8565b6040518263ffffffff167c0100000000000000000000000000000000000000000000000000000000028152600401808260001916600019168152602001915050602060405180830381600087803b158015612f8a57600080fd5b505af1158015612f9e573d6000803e3d6000fd5b505050506040513d6020811015612fb457600080fd5b8101908080519060200190929190505050151514151515612fd457600080fd5b612fe0888888886136cd565b5050505050505050565b600080600160009054906101000a900473ffffffffffffffffffffffffffffffffffffffff1673ffffffffffffffffffffffffffffffffffffffff166321f8a7218460405160200180828152602001807f465245454c414e43455200000000000000000000000000000000000000000000815250600a019150506040516020818303038152906040526040518082805190602001908083835b6020831015156130a85780518252602082019150602081019050602083039250613083565b6001836020036101000a03801982511681845116808217855250505050505090500191505060405180910390206040518263ffffffff167c0100000000000000000000000000000000000000000000000000000000028152600401808260001916600019168152602001915050602060405180830381600087803b15801561312f57600080fd5b505af1158015613143573d6000803e3d6000fd5b505050506040513d602081101561315957600080fd5b810190808051906020019092919050505073ffffffffffffffffffffffffffffffffffffffff1614159050919050565b600073ffffffffffffffffffffffffffffffffffffffff166000809054906101000a900473ffffffffffffffffffffffffffffffffffffffff1673ffffffffffffffffffffffffffffffffffffffff1614151561323c576000809054906101000a900473ffffffffffffffffffffffffffffffffffffffff1673ffffffffffffffffffffffffffffffffffffffff163373ffffffffffffffffffffffffffffffffffffffff1614151561323b57600080fd5b5b61324581613af4565b50565b600081604051602001808281526020019150506040516020818303038152906040526040518082805190602001908083835b60208310151561329f578051825260208201915060208101905060208303925061327a565b6001836020036101000a03801982511681845116808217855250505050505090500191505060405180910390209050919050565b6000838383604051602001808481526020018373ffffffffffffffffffffffffffffffffffffffff1673ffffffffffffffffffffffffffffffffffffffff166c0100000000000000000000000002815260140182805190602001908083835b6020831015156133575780518252602082019150602081019050602083039250613332565b6001836020036101000a03801982511681845116808217855250505050505090500193505050506040516020818303038152906040526040518082805190602001908083835b6020831015156133c2578051825260208201915060208101905060208303925061339d565b6001836020036101000a038019825116818451168082178552505050505050905001915050604051809103902090509392505050565b600082826040516020018083815260200182805190602001908083835b60208310151561343a5780518252602082019150602081019050602083039250613415565b6001836020036101000a038019825116818451168082178552505050505050905001925050506040516020818303038152906040526040518082805190602001908083835b6020831015156134a4578051825260208201915060208101905060208303925061347f565b6001836020036101000a0380198251168184511680821785525050505050509050019150506040518091039020905092915050565b60008282604051602001808381526020018273ffffffffffffffffffffffffffffffffffffffff1673ffffffffffffffffffffffffffffffffffffffff166c01000000000000000000000000028152601401925050506040516020818303038152906040526040518082805190602001908083835b602083101515613573578051825260208201915060208101905060208303925061354e565b6001836020036101000a0380198251168184511680821785525050505050509050019150506040518091039020905092915050565b60008383836040516020018084815260200183805190602001908083835b6020831015156135eb57805182526020820191506020810190506020830392506135c6565b6001836020036101000a0380198251168184511680821785525050505050509050018273ffffffffffffffffffffffffffffffffffffffff1673ffffffffffffffffffffffffffffffffffffffff166c0100000000000000000000000002815260140193505050506040516020818303038152906040526040518082805190602001908083835b6020831015156136975780518252602082019150602081019050602083039250613672565b6001836020036101000a038019825116818451168082178552505050505050905001915050604051809103902090509392505050565b600160009054906101000a900473ffffffffffffffffffffffffffffffffffffffff1673ffffffffffffffffffffffffffffffffffffffff1663ca446dd98460405160200180828152602001807f465245454c414e43455200000000000000000000000000000000000000000000815250600a019150506040516020818303038152906040526040518082805190602001908083835b6020831015156137885780518252602082019150602081019050602083039250613763565b6001836020036101000a0380198251168184511680821785525050505050509050019150506040518091039020846040518363ffffffff167c01000000000000000000000000000000000000000000000000000000000281526004018083600019166000191681526020018273ffffffffffffffffffffffffffffffffffffffff1673ffffffffffffffffffffffffffffffffffffffff16815260200192505050600060405180830381600087803b15801561384357600080fd5b505af1158015613857573d6000803e3d6000fd5b50505050600160009054906101000a900473ffffffffffffffffffffffffffffffffffffffff1673ffffffffffffffffffffffffffffffffffffffff1663e2a4853a8460405160200180828152602001807f465245454c414e4345525f494400000000000000000000000000000000000000815250600d019150506040516020818303038152906040526040518082805190602001908083835b60208310151561391657805182526020820191506020810190506020830392506138f1565b6001836020036101000a0380198251168184511680821785525050505050509050019150506040518091039020866040518363ffffffff167c010000000000000000000000000000000000000000000000000000000002815260040180836000191660001916815260200182815260200192505050600060405180830381600087803b1580156139a557600080fd5b505af11580156139b9573d6000803e3d6000fd5b50505050600160009054906101000a900473ffffffffffffffffffffffffffffffffffffffff1673ffffffffffffffffffffffffffffffffffffffff1663e2a4853a613a3a856040805190810160405280600a81526020017f4a4f425f535441545553000000000000000000000000000000000000000000008152506133f8565b60076040518363ffffffff167c010000000000000000000000000000000000000000000000000000000002815260040180836000191660001916815260200182815260200192505050600060405180830381600087803b158015613a9d57600080fd5b505af1158015613ab1573d6000803e3d6000fd5b5050505083837f8a1d92bfdb091522c5b1140f77418445f2b0df2a7dd6cb11b76d59894e530c61836040518082815260200191505060405180910390a350505050565b600073ffffffffffffffffffffffffffffffffffffffff168173ffffffffffffffffffffffffffffffffffffffff1614151515613b3057600080fd5b8073ffffffffffffffffffffffffffffffffffffffff166000809054906101000a900473ffffffffffffffffffffffffffffffffffffffff1673ffffffffffffffffffffffffffffffffffffffff167f8be0079c531659141344cd1fd0a4f28419497f9722a3daafe3b4186f6b6457e060405160405180910390a3806000806101000a81548173ffffffffffffffffffffffffffffffffffffffff021916908373ffffffffffffffffffffffffffffffffffffffff160217905550505600a165627a7a72305820db038c7c8eb5740da1024a0aab9ec6bf25ece94ea68d8802c23c1d26dd0e2b090029",
  "source": "/**\n * Created on 2018-08-13 10:29\n * @summary: Biding contract\n * @author: Chris Nguyen\n */\npragma solidity ^0.4.24;\nimport './BBFreelancer.sol';\nimport './BBFreelancerPayment.sol';\nimport './BBLib.sol';\n/**\n * @title BBFreelancerBid\n */\ncontract BBFreelancerBid is BBFreelancer{\n\n  BBFreelancerPayment public payment = BBFreelancerPayment(0x0);\n\n  /**\n   * @dev \n   * @param paymentAddress address of the Payment Contract\n   */\n  function setPaymentContract(address paymentAddress) onlyOwner public {\n    payment = BBFreelancerPayment(paymentAddress);\n  }\n\n\n  event BidCreated(uint256  indexed jobID, address indexed owner, uint256 ownerID, uint256 bid, uint256 bidTime);\n  event BidCanceled(uint256 indexed jobID, address indexed owner);\n  event BidAccepted(uint256 indexed jobID, uint256 bid, uint256 indexed freelancerID);\n\n\n  // freelancer bid job\n  /** \n   * @dev \n   * @param jobID Job ID\n   * @param bid value of bid amount\n   * @param bidTime time to do this job\n   */\n  function createBid(uint256 userID, uint256 jobID, uint256 bid, uint bidTime) public \n   isNotOwnerJob(jobID)\n   isNotCanceled(jobID)\n   jobNotStarted(jobID) {\n    // sender should not cancel previous bid yet\n    require( bbs.getBool(BBLib.toB32(jobID,msg.sender, 'JOB_CANCEL')) != true);\n    // bid must in range budget\n    require(bid <= bbs.getUint(BBLib.toB32(jobID, 'JOB_BUDGET' )));\n    //check job expired\n    require(now < bbs.getUint(BBLib.toB32(jobID, 'JOB_EXPIRED')));\n\n    require(bbs.getAddress(BBLib.toB32(jobID,'FREELANCER')) == 0x0);\n\n    require(bidTime > 0);\n\n    // set user bid value\n    bbs.setUint(BBLib.toB32(jobID,msg.sender), bid);\n    //set user bidTime value\n    bbs.setUint(BBLib.toB32(jobID,'BID_TIME',msg.sender), bidTime);\n\n    emit BidCreated(jobID, msg.sender, bid, userID, bidTime);\n  }\n\n  //  function createSingleBid(uint256 jobID, uint256 bid, uint bidTime) public {\n  //    //Job owner call\n  //    if(isOwnerOfJob(msg.sender, jobID)) {\n  //      return;\n  //    }\n  //    //Job has not started\n  //    if(isJobStart(jobID)) {\n  //      return;\n  //    }\n    \n  //   //sender should not cancel previous bid yet\n  //   if(isJobCancel(jobID)) {\n  //     return;\n  //   }\n  //   //bid must in range budget\n  //   if(bid > bbs.getUint(BBLib.toB32(jobID, 'JOB_BUDGET' ))) {\n  //      return;\n  //   }\n  //   //is job expired\n  //   if(isJobExpired(jobID)) {\n  //     return;\n  //   }\n  //   if(isJobHasFreelancer(jobID)) {\n  //     return;\n  //   }\n  //   if(bidTime <= 0) {\n  //     return;\n  //   }\n  //   // set user bid value\n  //   bbs.setUint(BBLib.toB32(jobID,msg.sender), bid);\n  //   //set user bidTime value\n  //   bbs.setUint(BBLib.toB32(jobID,'BID_TIME',msg.sender), bidTime);\n\n  //   emit BidCreated(jobID, msg.sender, bid, bidTime);\n\n  // }\n\n  // function createMultipleBid(uint256[] jobIDs, uint256[] bids, uint[] bidTimes) public {\n  //     require(jobIDs.length == bids.length);\n  //     require(bidTimes.length == bids.length);\n  //     require(jobIDs.length <= 10);\n\n  //     for(uint i = 0; i < jobIDs.length; i++) {\n  //       createSingleBid(jobIDs[i], bids[i], bidTimes[i]);\n  //     }      \n  // }\n  \n  // freelancer cancel bid\n  /**\n   * @dev \n   * @param jobID Job ID\n   */\n  function cancelBid(uint256 jobID) public jobCanStart(jobID){\n     address freelancer = bbs.getAddress(keccak256(abi.encodePacked(jobID,'FREELANCER')));\n     //Job ownwer call this function\n     if(bbs.getAddress(BBLib.toB32(jobID)) == msg.sender && freelancer != 0x0 ) {\n        bbs.setAddress(keccak256(abi.encodePacked(jobID,'FREELANCER')), 0x0);\n     } else {\n       uint256 bid = bbs.getUint(keccak256(abi.encodePacked(jobID,msg.sender)));\n       require(bid > 0);\n       bbs.setBool(BBLib.toB32(jobID,msg.sender, 'JOB_CANCEL'), true);\n       if(msg.sender == freelancer) {\n         bbs.setAddress(keccak256(abi.encodePacked(jobID,'FREELANCER')), 0x0);\n       }\n     }\n     bbs.setUint(BBLib.toB32(jobID,'JOB_STATUS'), 0);\n\n    emit BidCanceled(jobID, msg.sender);\n\n  }\n\n  // hirer accept bid\n  /**\n   * @dev \n   * @param jobID Job ID\n   * @param freelancer address of the freelancer\n   */\n  function acceptBid(uint256 freelancerID, uint256 jobID, address freelancer) public \n    isOwnerJob(jobID) \n    jobCanAcceptBid(jobID)\n    isNotCanceled(jobID){\n    uint256 bid = bbs.getUint(keccak256(abi.encodePacked(jobID,freelancer)));\n    require(bid > 0);\n    require(bbs.getBool(BBLib.toB32(jobID,'JOB_CANCEL')) !=true);\n    return doAcceptBid(freelancerID, jobID, freelancer, bid);\n    \n  }\n\n  function doAcceptBid(uint256 freelancerID, uint256 jobID, address freelancer, uint256 bid) internal {\n    //uint256 lastDeposit = bbs.getUint(BBLib.toB32(jobID,msg.sender,'DEPOSIT'));\n    //update new freelancer\n    bbs.setAddress(keccak256(abi.encodePacked(jobID,'FREELANCER')), freelancer);\n    bbs.setUint(keccak256(abi.encodePacked(jobID,'FREELANCER_ID')), freelancerID);\n    bbs.setUint(BBLib.toB32(jobID,'JOB_STATUS'), 7);\n\n    // if(lastDeposit > bid) {\n    //   //Refun BBO to job owner\n    //   require(payment.refundBBO(jobID));\n    //   //Storage amount of BBO that Job owner transferred to payment address\n    //   bbs.setUint(BBLib.toB32(jobID,msg.sender,'DEPOSIT'), bid);\n      \n    // } else if(bid - lastDeposit > 0) {\n    //   //Storage amount of BBO that Job owner transferred to payment address\n    //   bbs.setUint(BBLib.toB32(jobID,msg.sender,'DEPOSIT'), bid);\n    //   //Deposit more BBO\n    //   require(bbo.transferFrom(msg.sender, address(payment), bid - lastDeposit));\n    // } \n    emit BidAccepted(jobID, bid , freelancerID);\n  }\n  \n}",
  "sourcePath": "/Users/trantho/Code/SmartContract/digital-contracts/src/contracts/BBFreelancerBid.sol",
  "compiler": {
    "name": "solc",
    "version": "0.4.24+commit.e67f0147.Emscripten.clang"
  },
  "schemaVersion": "2.0.1",
  "updatedAt": "2018-12-22T03:21:10.974Z"
}