{
  "contractName": "BBFreelancerPayment",
  "abi": [
    {
      "constant": true,
      "inputs": [],
      "name": "bbo",
      "outputs": [
        {
          "name": "",
          "type": "address"
        }
      ],
      "payable": false,
      "stateMutability": "view",
      "type": "function"
    },
    {
      "constant": true,
      "inputs": [],
      "name": "bbs",
      "outputs": [
        {
          "name": "",
          "type": "address"
        }
      ],
      "payable": false,
      "stateMutability": "view",
      "type": "function"
    },
    {
      "constant": false,
      "inputs": [],
      "name": "renounceOwnership",
      "outputs": [],
      "payable": false,
      "stateMutability": "nonpayable",
      "type": "function"
    },
    {
      "constant": false,
      "inputs": [
        {
          "name": "BBOAddress",
          "type": "address"
        }
      ],
      "name": "setBBO",
      "outputs": [],
      "payable": false,
      "stateMutability": "nonpayable",
      "type": "function"
    },
    {
      "constant": true,
      "inputs": [
        {
          "name": "jobID",
          "type": "uint256"
        }
      ],
      "name": "isJobCancel",
      "outputs": [
        {
          "name": "",
          "type": "bool"
        }
      ],
      "payable": false,
      "stateMutability": "view",
      "type": "function"
    },
    {
      "constant": true,
      "inputs": [],
      "name": "owner",
      "outputs": [
        {
          "name": "",
          "type": "address"
        }
      ],
      "payable": false,
      "stateMutability": "view",
      "type": "function"
    },
    {
      "constant": false,
      "inputs": [
        {
          "name": "anyToken",
          "type": "address"
        }
      ],
      "name": "emergencyERC20Drain",
      "outputs": [],
      "payable": false,
      "stateMutability": "nonpayable",
      "type": "function"
    },
    {
      "constant": false,
      "inputs": [
        {
          "name": "storageAddress",
          "type": "address"
        }
      ],
      "name": "setStorage",
      "outputs": [],
      "payable": false,
      "stateMutability": "nonpayable",
      "type": "function"
    },
    {
      "constant": true,
      "inputs": [
        {
          "name": "jobID",
          "type": "uint256"
        }
      ],
      "name": "isJobStart",
      "outputs": [
        {
          "name": "",
          "type": "bool"
        }
      ],
      "payable": false,
      "stateMutability": "view",
      "type": "function"
    },
    {
      "constant": true,
      "inputs": [
        {
          "name": "sender",
          "type": "address"
        },
        {
          "name": "jobID",
          "type": "uint256"
        }
      ],
      "name": "isOwnerOfJob",
      "outputs": [
        {
          "name": "",
          "type": "bool"
        }
      ],
      "payable": false,
      "stateMutability": "view",
      "type": "function"
    },
    {
      "constant": true,
      "inputs": [
        {
          "name": "jobID",
          "type": "uint256"
        }
      ],
      "name": "isJobExpired",
      "outputs": [
        {
          "name": "",
          "type": "bool"
        }
      ],
      "payable": false,
      "stateMutability": "view",
      "type": "function"
    },
    {
      "constant": true,
      "inputs": [
        {
          "name": "jobID",
          "type": "uint256"
        }
      ],
      "name": "isJobHasFreelancer",
      "outputs": [
        {
          "name": "",
          "type": "bool"
        }
      ],
      "payable": false,
      "stateMutability": "view",
      "type": "function"
    },
    {
      "constant": false,
      "inputs": [
        {
          "name": "_newOwner",
          "type": "address"
        }
      ],
      "name": "transferOwnership",
      "outputs": [],
      "payable": false,
      "stateMutability": "nonpayable",
      "type": "function"
    },
    {
      "anonymous": false,
      "inputs": [
        {
          "indexed": true,
          "name": "jobID",
          "type": "uint256"
        },
        {
          "indexed": true,
          "name": "sender",
          "type": "address"
        }
      ],
      "name": "PaymentClaimed",
      "type": "event"
    },
    {
      "anonymous": false,
      "inputs": [
        {
          "indexed": true,
          "name": "jobID",
          "type": "uint256"
        },
        {
          "indexed": true,
          "name": "sender",
          "type": "address"
        }
      ],
      "name": "PaymentAccepted",
      "type": "event"
    },
    {
      "anonymous": false,
      "inputs": [
        {
          "indexed": true,
          "name": "jobID",
          "type": "uint256"
        },
        {
          "indexed": true,
          "name": "sender",
          "type": "address"
        },
        {
          "indexed": false,
          "name": "reason",
          "type": "uint256"
        },
        {
          "indexed": false,
          "name": "rejectedTimestamp",
          "type": "uint256"
        }
      ],
      "name": "PaymentRejected",
      "type": "event"
    },
    {
      "anonymous": false,
      "inputs": [
        {
          "indexed": true,
          "name": "jobID",
          "type": "uint256"
        },
        {
          "indexed": true,
          "name": "winner",
          "type": "address"
        }
      ],
      "name": "DisputeFinalized",
      "type": "event"
    },
    {
      "anonymous": false,
      "inputs": [
        {
          "indexed": true,
          "name": "sender",
          "type": "address"
        },
        {
          "indexed": true,
          "name": "jobHash",
          "type": "bytes32"
        },
        {
          "indexed": false,
          "name": "token",
          "type": "address"
        },
        {
          "indexed": false,
          "name": "amount",
          "type": "uint256"
        },
        {
          "indexed": false,
          "name": "etherAmount",
          "type": "uint256"
        }
      ],
      "name": "DepositMoney",
      "type": "event"
    },
    {
      "anonymous": false,
      "inputs": [
        {
          "indexed": true,
          "name": "previousOwner",
          "type": "address"
        }
      ],
      "name": "OwnershipRenounced",
      "type": "event"
    },
    {
      "anonymous": false,
      "inputs": [
        {
          "indexed": true,
          "name": "previousOwner",
          "type": "address"
        },
        {
          "indexed": true,
          "name": "newOwner",
          "type": "address"
        }
      ],
      "name": "OwnershipTransferred",
      "type": "event"
    },
    {
      "constant": false,
      "inputs": [
        {
          "name": "jobID",
          "type": "uint256"
        }
      ],
      "name": "acceptPayment",
      "outputs": [],
      "payable": false,
      "stateMutability": "nonpayable",
      "type": "function"
    },
    {
      "constant": false,
      "inputs": [
        {
          "name": "jobID",
          "type": "uint256"
        },
        {
          "name": "reason",
          "type": "uint256"
        }
      ],
      "name": "rejectPayment",
      "outputs": [],
      "payable": false,
      "stateMutability": "nonpayable",
      "type": "function"
    },
    {
      "constant": false,
      "inputs": [
        {
          "name": "jobID",
          "type": "uint256"
        }
      ],
      "name": "claimePayment",
      "outputs": [],
      "payable": false,
      "stateMutability": "nonpayable",
      "type": "function"
    },
    {
      "constant": true,
      "inputs": [
        {
          "name": "jobID",
          "type": "uint256"
        }
      ],
      "name": "checkPayment",
      "outputs": [
        {
          "name": "",
          "type": "uint256"
        },
        {
          "name": "",
          "type": "uint256"
        }
      ],
      "payable": false,
      "stateMutability": "view",
      "type": "function"
    },
    {
      "constant": false,
      "inputs": [
        {
          "name": "jobID",
          "type": "uint256"
        }
      ],
      "name": "refundBBO",
      "outputs": [
        {
          "name": "",
          "type": "bool"
        }
      ],
      "payable": false,
      "stateMutability": "nonpayable",
      "type": "function"
    },
    {
      "constant": false,
      "inputs": [
        {
          "name": "jobID",
          "type": "uint256"
        }
      ],
      "name": "finalizeDispute",
      "outputs": [
        {
          "name": "",
          "type": "bool"
        }
      ],
      "payable": false,
      "stateMutability": "nonpayable",
      "type": "function"
    },
    {
      "constant": false,
      "inputs": [
        {
          "name": "jobHash",
          "type": "bytes"
        },
        {
          "name": "token",
          "type": "address"
        },
        {
          "name": "amount",
          "type": "uint256"
        }
      ],
      "name": "depositMoney",
      "outputs": [],
      "payable": true,
      "stateMutability": "payable",
      "type": "function"
    }
  ],
  "bytecode": "0x60806040526000600160006101000a81548173ffffffffffffffffffffffffffffffffffffffff021916908373ffffffffffffffffffffffffffffffffffffffff1602179055506000600260006101000a81548173ffffffffffffffffffffffffffffffffffffffff021916908373ffffffffffffffffffffffffffffffffffffffff160217905550336000806101000a81548173ffffffffffffffffffffffffffffffffffffffff021916908373ffffffffffffffffffffffffffffffffffffffff160217905550614f76806100d76000396000f300608060405260043610610112576000357c0100000000000000000000000000000000000000000000000000000000900463ffffffff1680631e89bf06146101175780631fde23a41461016e5780634b0ce560146101c557806356989a831461024b578063715018a6146102905780637937f46d146102a75780637d716f1d146102ea5780638b01bcc31461032f5780638da5cb5b1461037457806390e8d82f146103cb5780639137c1a71461040e578063a110f23a14610451578063b191f79d14610488578063b8edcd1f146104cd578063bf846e0414610532578063c710e18c1461055f578063cbf3ff671461058c578063dad788d9146105d4578063ebe5f59014610619578063f2fde38b1461065e575b600080fd5b34801561012357600080fd5b5061012c6106a1565b604051808273ffffffffffffffffffffffffffffffffffffffff1673ffffffffffffffffffffffffffffffffffffffff16815260200191505060405180910390f35b34801561017a57600080fd5b506101836106c7565b604051808273ffffffffffffffffffffffffffffffffffffffff1673ffffffffffffffffffffffffffffffffffffffff16815260200191505060405180910390f35b610249600480360381019080803590602001908201803590602001908080601f0160208091040260200160405190810160405280939291908181526020018383808284378201915050505050509192919290803573ffffffffffffffffffffffffffffffffffffffff169060200190929190803590602001909291905050506106ed565b005b34801561025757600080fd5b50610276600480360381019080803590602001909291905050506111f5565b604051808215151515815260200191505060405180910390f35b34801561029c57600080fd5b506102a5611a00565b005b3480156102b357600080fd5b506102e8600480360381019080803573ffffffffffffffffffffffffffffffffffffffff169060200190929190505050611b02565b005b3480156102f657600080fd5b5061031560048036038101908080359060200190929190505050611ba1565b604051808215151515815260200191505060405180910390f35b34801561033b57600080fd5b5061035a60048036038101908080359060200190929190505050612510565b604051808215151515815260200191505060405180910390f35b34801561038057600080fd5b50610389612696565b604051808273ffffffffffffffffffffffffffffffffffffffff1673ffffffffffffffffffffffffffffffffffffffff16815260200191505060405180910390f35b3480156103d757600080fd5b5061040c600480360381019080803573ffffffffffffffffffffffffffffffffffffffff1690602001909291905050506126bb565b005b34801561041a57600080fd5b5061044f600480360381019080803573ffffffffffffffffffffffffffffffffffffffff1690602001909291905050506129cf565b005b34801561045d57600080fd5b506104866004803603810190808035906020019092919080359060200190929190505050612a6e565b005b34801561049457600080fd5b506104b360048036038101908080359060200190929190505050613115565b604051808215151515815260200191505060405180910390f35b3480156104d957600080fd5b50610518600480360381019080803573ffffffffffffffffffffffffffffffffffffffff1690602001909291908035906020019092919050505061329e565b604051808215151515815260200191505060405180910390f35b34801561053e57600080fd5b5061055d600480360381019080803590602001909291905050506133b2565b005b34801561056b57600080fd5b5061058a60048036038101908080359060200190929190505050613937565b005b34801561059857600080fd5b506105b760048036038101908080359060200190929190505050614393565b604051808381526020018281526020019250505060405180910390f35b3480156105e057600080fd5b506105ff600480360381019080803590602001909291905050506146ee565b604051808215151515815260200191505060405180910390f35b34801561062557600080fd5b5061064460048036038101908080359060200190929190505050614876565b604051808215151515815260200191505060405180910390f35b34801561066a57600080fd5b5061069f600480360381019080803573ffffffffffffffffffffffffffffffffffffffff169060200190929190505050614a15565b005b600260009054906101000a900473ffffffffffffffffffffffffffffffffffffffff1681565b600160009054906101000a900473ffffffffffffffffffffffffffffffffffffffff1681565b60008030915060008311151561070257600080fd5b600073ffffffffffffffffffffffffffffffffffffffff168473ffffffffffffffffffffffffffffffffffffffff16141515610c70578373ffffffffffffffffffffffffffffffffffffffff166323b872dd3330866040518463ffffffff167c0100000000000000000000000000000000000000000000000000000000028152600401808473ffffffffffffffffffffffffffffffffffffffff1673ffffffffffffffffffffffffffffffffffffffff1681526020018373ffffffffffffffffffffffffffffffffffffffff1673ffffffffffffffffffffffffffffffffffffffff1681526020018281526020019350505050602060405180830381600087803b15801561080f57600080fd5b505af1158015610823573d6000803e3d6000fd5b505050506040513d602081101561083957600080fd5b8101908080519060200190929190505050151561085557600080fd5b600160009054906101000a900473ffffffffffffffffffffffffffffffffffffffff1673ffffffffffffffffffffffffffffffffffffffff1663bd02d0f586336040516020018083805190602001908083835b6020831015156108cd57805182526020820191506020810190506020830392506108a8565b6001836020036101000a0380198251168184511680821785525050505050509050018273ffffffffffffffffffffffffffffffffffffffff1673ffffffffffffffffffffffffffffffffffffffff166c01000000000000000000000000028152601401807f544f4b454e000000000000000000000000000000000000000000000000000000815250600501925050506040516020818303038152906040526040518082805190602001908083835b6020831015156109a0578051825260208201915060208101905060208303925061097b565b6001836020036101000a03801982511681845116808217855250505050505090500191505060405180910390206040518263ffffffff167c0100000000000000000000000000000000000000000000000000000000028152600401808260001916600019168152602001915050602060405180830381600087803b158015610a2757600080fd5b505af1158015610a3b573d6000803e3d6000fd5b505050506040513d6020811015610a5157600080fd5b81019080805190602001909291905050509050610a778382614ad490919063ffffffff16565b9050600160009054906101000a900473ffffffffffffffffffffffffffffffffffffffff1673ffffffffffffffffffffffffffffffffffffffff1663e2a4853a86336040516020018083805190602001908083835b602083101515610af15780518252602082019150602081019050602083039250610acc565b6001836020036101000a0380198251168184511680821785525050505050509050018273ffffffffffffffffffffffffffffffffffffffff1673ffffffffffffffffffffffffffffffffffffffff166c01000000000000000000000000028152601401807f544f4b454e000000000000000000000000000000000000000000000000000000815250600501925050506040516020818303038152906040526040518082805190602001908083835b602083101515610bc45780518252602082019150602081019050602083039250610b9f565b6001836020036101000a0380198251168184511680821785525050505050509050019150506040518091039020836040518363ffffffff167c010000000000000000000000000000000000000000000000000000000002815260040180836000191660001916815260200182815260200192505050600060405180830381600087803b158015610c5357600080fd5b505af1158015610c67573d6000803e3d6000fd5b50505050611091565b600034111561109057600160009054906101000a900473ffffffffffffffffffffffffffffffffffffffff1673ffffffffffffffffffffffffffffffffffffffff1663bd02d0f586336040516020018083805190602001908083835b602083101515610cf15780518252602082019150602081019050602083039250610ccc565b6001836020036101000a0380198251168184511680821785525050505050509050018273ffffffffffffffffffffffffffffffffffffffff1673ffffffffffffffffffffffffffffffffffffffff166c01000000000000000000000000028152601401807f4554480000000000000000000000000000000000000000000000000000000000815250600301925050506040516020818303038152906040526040518082805190602001908083835b602083101515610dc45780518252602082019150602081019050602083039250610d9f565b6001836020036101000a03801982511681845116808217855250505050505090500191505060405180910390206040518263ffffffff167c0100000000000000000000000000000000000000000000000000000000028152600401808260001916600019168152602001915050602060405180830381600087803b158015610e4b57600080fd5b505af1158015610e5f573d6000803e3d6000fd5b505050506040513d6020811015610e7557600080fd5b81019080805190602001909291905050509050610e9b3482614ad490919063ffffffff16565b9050600160009054906101000a900473ffffffffffffffffffffffffffffffffffffffff1673ffffffffffffffffffffffffffffffffffffffff1663e2a4853a86336040516020018083805190602001908083835b602083101515610f155780518252602082019150602081019050602083039250610ef0565b6001836020036101000a0380198251168184511680821785525050505050509050018273ffffffffffffffffffffffffffffffffffffffff1673ffffffffffffffffffffffffffffffffffffffff166c01000000000000000000000000028152601401807f4554480000000000000000000000000000000000000000000000000000000000815250600301925050506040516020818303038152906040526040518082805190602001908083835b602083101515610fe85780518252602082019150602081019050602083039250610fc3565b6001836020036101000a0380198251168184511680821785525050505050509050019150506040518091039020836040518363ffffffff167c010000000000000000000000000000000000000000000000000000000002815260040180836000191660001916815260200182815260200192505050600060405180830381600087803b15801561107757600080fd5b505af115801561108b573d6000803e3d6000fd5b505050505b5b846040516020018082805190602001908083835b6020831015156110ca57805182526020820191506020810190506020830392506110a5565b6001836020036101000a0380198251168184511680821785525050505050509050019150506040516020818303038152906040526040518082805190602001908083835b602083101515611133578051825260208201915060208101905060208303925061110e565b6001836020036101000a0380198251168184511680821785525050505050509050019150506040518091039020600019163373ffffffffffffffffffffffffffffffffffffffff167f5831e36bb26685391c2e195ad3030494d78ddf52671002f99177a77d367d47ed868634604051808473ffffffffffffffffffffffffffffffffffffffff1673ffffffffffffffffffffffffffffffffffffffff168152602001838152602001828152602001935050505060405180910390a35050505050565b600080600080600080600160009054906101000a900473ffffffffffffffffffffffffffffffffffffffff1673ffffffffffffffffffffffffffffffffffffffff166321f8a72161124589614af0565b6040518263ffffffff167c0100000000000000000000000000000000000000000000000000000000028152600401808260001916600019168152602001915050602060405180830381600087803b15801561129f57600080fd5b505af11580156112b3573d6000803e3d6000fd5b505050506040513d60208110156112c957600080fd5b810190808051906020019092919050505073ffffffffffffffffffffffffffffffffffffffff16141515156112fd57600080fd5b60011515600160009054906101000a900473ffffffffffffffffffffffffffffffffffffffff1673ffffffffffffffffffffffffffffffffffffffff16637ae1cfca61137e896040805190810160405280601181526020017f5041594d454e545f46494e414c495a4544000000000000000000000000000000815250614b7b565b6040518263ffffffff167c0100000000000000000000000000000000000000000000000000000000028152600401808260001916600019168152602001915050602060405180830381600087803b1580156113d857600080fd5b505af11580156113ec573d6000803e3d6000fd5b505050506040513d602081101561140257600080fd5b810190808051906020019092919050505015151415151561142257600080fd5b600160009054906101000a900473ffffffffffffffffffffffffffffffffffffffff1673ffffffffffffffffffffffffffffffffffffffff166321f8a72161149f886040805190810160405280600e81526020017f444953505554455f57494e4e4552000000000000000000000000000000000000815250614b7b565b6040518263ffffffff167c0100000000000000000000000000000000000000000000000000000000028152600401808260001916600019168152602001915050602060405180830381600087803b1580156114f957600080fd5b505af115801561150d573d6000803e3d6000fd5b505050506040513d602081101561152357600080fd5b81019080805190602001909291905050509350600073ffffffffffffffffffffffffffffffffffffffff168473ffffffffffffffffffffffffffffffffffffffff161415151561157257600080fd5b600160009054906101000a900473ffffffffffffffffffffffffffffffffffffffff1673ffffffffffffffffffffffffffffffffffffffff166321f8a7216115ef886040805190810160405280600a81526020017f465245454c414e43455200000000000000000000000000000000000000000000815250614b7b565b6040518263ffffffff167c0100000000000000000000000000000000000000000000000000000000028152600401808260001916600019168152602001915050602060405180830381600087803b15801561164957600080fd5b505af115801561165d573d6000803e3d6000fd5b505050506040513d602081101561167357600080fd5b81019080805190602001909291905050509250600160009054906101000a900473ffffffffffffffffffffffffffffffffffffffff1673ffffffffffffffffffffffffffffffffffffffff166321f8a7216116cd88614af0565b6040518263ffffffff167c0100000000000000000000000000000000000000000000000000000000028152600401808260001916600019168152602001915050602060405180830381600087803b15801561172757600080fd5b505af115801561173b573d6000803e3d6000fd5b505050506040513d602081101561175157600080fd5b81019080805190602001909291905050509150600160009054906101000a900473ffffffffffffffffffffffffffffffffffffffff1673ffffffffffffffffffffffffffffffffffffffff1663bd02d0f56117ac8886614c5c565b6040518263ffffffff167c0100000000000000000000000000000000000000000000000000000000028152600401808260001916600019168152602001915050602060405180830381600087803b15801561180657600080fd5b505af115801561181a573d6000803e3d6000fd5b505050506040513d602081101561183057600080fd5b810190808051906020019092919050505090508273ffffffffffffffffffffffffffffffffffffffff168473ffffffffffffffffffffffffffffffffffffffff1614806118a857508173ffffffffffffffffffffffffffffffffffffffff168473ffffffffffffffffffffffffffffffffffffffff16145b15156118b357600080fd5b600160009054906101000a900473ffffffffffffffffffffffffffffffffffffffff1673ffffffffffffffffffffffffffffffffffffffff1663abfdcced611930886040805190810160405280601181526020017f5041594d454e545f46494e414c495a4544000000000000000000000000000000815250614b7b565b60016040518363ffffffff167c01000000000000000000000000000000000000000000000000000000000281526004018083600019166000191681526020018215151515815260200192505050600060405180830381600087803b15801561199757600080fd5b505af11580156119ab573d6000803e3d6000fd5b505050508373ffffffffffffffffffffffffffffffffffffffff16867f70e3ada1a8aec0b45bbf7baaaf1e34dd886c3eeb7df90b6fc4557fb0e4822b1760405160405180910390a36001945050505050919050565b6000809054906101000a900473ffffffffffffffffffffffffffffffffffffffff1673ffffffffffffffffffffffffffffffffffffffff163373ffffffffffffffffffffffffffffffffffffffff16141515611a5b57600080fd5b6000809054906101000a900473ffffffffffffffffffffffffffffffffffffffff1673ffffffffffffffffffffffffffffffffffffffff167ff8df31144d9c2f0f6b59d69b8b98abd5459d07f2742c4df920b25aae33c6482060405160405180910390a260008060006101000a81548173ffffffffffffffffffffffffffffffffffffffff021916908373ffffffffffffffffffffffffffffffffffffffff160217905550565b6000809054906101000a900473ffffffffffffffffffffffffffffffffffffffff1673ffffffffffffffffffffffffffffffffffffffff163373ffffffffffffffffffffffffffffffffffffffff16141515611b5d57600080fd5b80600260006101000a81548173ffffffffffffffffffffffffffffffffffffffff021916908373ffffffffffffffffffffffffffffffffffffffff16021790555050565b6000806000806000600160009054906101000a900473ffffffffffffffffffffffffffffffffffffffff1673ffffffffffffffffffffffffffffffffffffffff166321f8a721611bf088614af0565b6040518263ffffffff167c0100000000000000000000000000000000000000000000000000000000028152600401808260001916600019168152602001915050602060405180830381600087803b158015611c4a57600080fd5b505af1158015611c5e573d6000803e3d6000fd5b505050506040513d6020811015611c7457600080fd5b81019080805190602001909291905050509350600160009054906101000a900473ffffffffffffffffffffffffffffffffffffffff1673ffffffffffffffffffffffffffffffffffffffff1663bd02d0f5611d0588876040805190810160405280600781526020017f4445504f53495400000000000000000000000000000000000000000000000000815250614d2b565b6040518263ffffffff167c0100000000000000000000000000000000000000000000000000000000028152600401808260001916600019168152602001915050602060405180830381600087803b158015611d5f57600080fd5b505af1158015611d73573d6000803e3d6000fd5b505050506040513d6020811015611d8957600080fd5b8101908080519060200190929190505050925060011515600160009054906101000a900473ffffffffffffffffffffffffffffffffffffffff1673ffffffffffffffffffffffffffffffffffffffff16637ae1cfca611e1d896040805190810160405280600a81526020017f4a4f425f43414e43454c00000000000000000000000000000000000000000000815250614b7b565b6040518263ffffffff167c0100000000000000000000000000000000000000000000000000000000028152600401808260001916600019168152602001915050602060405180830381600087803b158015611e7757600080fd5b505af1158015611e8b573d6000803e3d6000fd5b505050506040513d6020811015611ea157600080fd5b8101908080519060200190929190505050151514156120cc57600160009054906101000a900473ffffffffffffffffffffffffffffffffffffffff1673ffffffffffffffffffffffffffffffffffffffff1663e2a4853a611f3888876040805190810160405280600781526020017f4445504f53495400000000000000000000000000000000000000000000000000815250614d2b565b60006040518363ffffffff167c010000000000000000000000000000000000000000000000000000000002815260040180836000191660001916815260200182815260200192505050600060405180830381600087803b158015611f9b57600080fd5b505af1158015611faf573d6000803e3d6000fd5b5050505060008311156120c357600260009054906101000a900473ffffffffffffffffffffffffffffffffffffffff1673ffffffffffffffffffffffffffffffffffffffff1663a9059cbb85856040518363ffffffff167c0100000000000000000000000000000000000000000000000000000000028152600401808373ffffffffffffffffffffffffffffffffffffffff1673ffffffffffffffffffffffffffffffffffffffff16815260200182815260200192505050602060405180830381600087803b15801561208157600080fd5b505af1158015612095573d6000803e3d6000fd5b505050506040513d60208110156120ab57600080fd5b81019080805190602001909291905050509450612507565b60019450612507565b600160009054906101000a900473ffffffffffffffffffffffffffffffffffffffff1673ffffffffffffffffffffffffffffffffffffffff166321f8a7218760405160200180828152602001807f465245454c414e43455200000000000000000000000000000000000000000000815250600a019150506040516020818303038152906040526040518082805190602001908083835b6020831015156121875780518252602082019150602081019050602083039250612162565b6001836020036101000a03801982511681845116808217855250505050505090500191505060405180910390206040518263ffffffff167c0100000000000000000000000000000000000000000000000000000000028152600401808260001916600019168152602001915050602060405180830381600087803b15801561220e57600080fd5b505af1158015612222573d6000803e3d6000fd5b505050506040513d602081101561223857600080fd5b81019080805190602001909291905050509150600160009054906101000a900473ffffffffffffffffffffffffffffffffffffffff1673ffffffffffffffffffffffffffffffffffffffff1663bd02d0f58784604051602001808381526020018273ffffffffffffffffffffffffffffffffffffffff1673ffffffffffffffffffffffffffffffffffffffff166c01000000000000000000000000028152601401925050506040516020818303038152906040526040518082805190602001908083835b60208310151561232157805182526020820191506020810190506020830392506122fc565b6001836020036101000a03801982511681845116808217855250505050505090500191505060405180910390206040518263ffffffff167c0100000000000000000000000000000000000000000000000000000000028152600401808260001916600019168152602001915050602060405180830381600087803b1580156123a857600080fd5b505af11580156123bc573d6000803e3d6000fd5b505050506040513d60208110156123d257600080fd5b810190808051906020019092919050505090506000811115156123f457600080fd5b808311151561240257600080fd5b600260009054906101000a900473ffffffffffffffffffffffffffffffffffffffff1673ffffffffffffffffffffffffffffffffffffffff1663a9059cbb858386036040518363ffffffff167c0100000000000000000000000000000000000000000000000000000000028152600401808373ffffffffffffffffffffffffffffffffffffffff1673ffffffffffffffffffffffffffffffffffffffff16815260200182815260200192505050602060405180830381600087803b1580156124c957600080fd5b505af11580156124dd573d6000803e3d6000fd5b505050506040513d60208110156124f357600080fd5b810190808051906020019092919050505094505b50505050919050565b6000600160009054906101000a900473ffffffffffffffffffffffffffffffffffffffff1673ffffffffffffffffffffffffffffffffffffffff16637ae1cfca8360405160200180828152602001807f4a4f425f43414e43454c00000000000000000000000000000000000000000000815250600a019150506040516020818303038152906040526040518082805190602001908083835b6020831015156125cd57805182526020820191506020810190506020830392506125a8565b6001836020036101000a03801982511681845116808217855250505050505090500191505060405180910390206040518263ffffffff167c0100000000000000000000000000000000000000000000000000000000028152600401808260001916600019168152602001915050602060405180830381600087803b15801561265457600080fd5b505af1158015612668573d6000803e3d6000fd5b505050506040513d602081101561267e57600080fd5b81019080805190602001909291905050509050919050565b6000809054906101000a900473ffffffffffffffffffffffffffffffffffffffff1681565b6000809054906101000a900473ffffffffffffffffffffffffffffffffffffffff1673ffffffffffffffffffffffffffffffffffffffff163373ffffffffffffffffffffffffffffffffffffffff1614151561271657600080fd5b60003073ffffffffffffffffffffffffffffffffffffffff163111156127b6576000809054906101000a900473ffffffffffffffffffffffffffffffffffffffff1673ffffffffffffffffffffffffffffffffffffffff166108fc3073ffffffffffffffffffffffffffffffffffffffff16319081150290604051600060405180830381858888f193505050501580156127b4573d6000803e3d6000fd5b505b600073ffffffffffffffffffffffffffffffffffffffff168173ffffffffffffffffffffffffffffffffffffffff161415156129cc578073ffffffffffffffffffffffffffffffffffffffff1663a9059cbb6000809054906101000a900473ffffffffffffffffffffffffffffffffffffffff168373ffffffffffffffffffffffffffffffffffffffff166370a08231306040518263ffffffff167c0100000000000000000000000000000000000000000000000000000000028152600401808273ffffffffffffffffffffffffffffffffffffffff1673ffffffffffffffffffffffffffffffffffffffff168152602001915050602060405180830381600087803b1580156128c557600080fd5b505af11580156128d9573d6000803e3d6000fd5b505050506040513d60208110156128ef57600080fd5b81019080805190602001909291905050506040518363ffffffff167c0100000000000000000000000000000000000000000000000000000000028152600401808373ffffffffffffffffffffffffffffffffffffffff1673ffffffffffffffffffffffffffffffffffffffff16815260200182815260200192505050602060405180830381600087803b15801561298557600080fd5b505af1158015612999573d6000803e3d6000fd5b505050506040513d60208110156129af57600080fd5b810190808051906020019092919050505015156129cb57600080fd5b5b50565b6000809054906101000a900473ffffffffffffffffffffffffffffffffffffffff1673ffffffffffffffffffffffffffffffffffffffff163373ffffffffffffffffffffffffffffffffffffffff16141515612a2a57600080fd5b80600160006101000a81548173ffffffffffffffffffffffffffffffffffffffff021916908373ffffffffffffffffffffffffffffffffffffffff16021790555050565b6000823373ffffffffffffffffffffffffffffffffffffffff16600160009054906101000a900473ffffffffffffffffffffffffffffffffffffffff1673ffffffffffffffffffffffffffffffffffffffff166321f8a721612acf84614af0565b6040518263ffffffff167c0100000000000000000000000000000000000000000000000000000000028152600401808260001916600019168152602001915050602060405180830381600087803b158015612b2957600080fd5b505af1158015612b3d573d6000803e3d6000fd5b505050506040513d6020811015612b5357600080fd5b810190808051906020019092919050505073ffffffffffffffffffffffffffffffffffffffff16141515612b8657600080fd5b6002600160009054906101000a900473ffffffffffffffffffffffffffffffffffffffff1673ffffffffffffffffffffffffffffffffffffffff1663bd02d0f5612c05876040805190810160405280600a81526020017f4a4f425f53544154555300000000000000000000000000000000000000000000815250614b7b565b6040518263ffffffff167c0100000000000000000000000000000000000000000000000000000000028152600401808260001916600019168152602001915050602060405180830381600087803b158015612c5f57600080fd5b505af1158015612c73573d6000803e3d6000fd5b505050506040513d6020811015612c8957600080fd5b8101908080519060200190929190505050141515612ca657600080fd5b600083111515612cb557600080fd5b600160009054906101000a900473ffffffffffffffffffffffffffffffffffffffff1673ffffffffffffffffffffffffffffffffffffffff1663e2a4853a612d32866040805190810160405280600a81526020017f4a4f425f53544154555300000000000000000000000000000000000000000000815250614b7b565b60046040518363ffffffff167c010000000000000000000000000000000000000000000000000000000002815260040180836000191660001916815260200182815260200192505050600060405180830381600087803b158015612d9557600080fd5b505af1158015612da9573d6000803e3d6000fd5b50505050600160009054906101000a900473ffffffffffffffffffffffffffffffffffffffff1673ffffffffffffffffffffffffffffffffffffffff1663e2a4853a612e2a866040805190810160405280600a81526020017f4a4f425f524541534f4e00000000000000000000000000000000000000000000815250614b7b565b856040518363ffffffff167c010000000000000000000000000000000000000000000000000000000002815260040180836000191660001916815260200182815260200192505050600060405180830381600087803b158015612e8c57600080fd5b505af1158015612ea0573d6000803e3d6000fd5b50505050612fbf600160009054906101000a900473ffffffffffffffffffffffffffffffffffffffff1673ffffffffffffffffffffffffffffffffffffffff1663bd02d0f560405180807f52454a45435445445f5041594d454e545f4c494d49545f54494d455354414d50815250602001905060405180910390206040518263ffffffff167c0100000000000000000000000000000000000000000000000000000000028152600401808260001916600019168152602001915050602060405180830381600087803b158015612f7557600080fd5b505af1158015612f89573d6000803e3d6000fd5b505050506040513d6020811015612f9f57600080fd5b810190808051906020019092919050505042614ad490919063ffffffff16565b9150600160009054906101000a900473ffffffffffffffffffffffffffffffffffffffff1673ffffffffffffffffffffffffffffffffffffffff1663e2a4853a61303e866040805190810160405280602081526020017f52454a45435445445f5041594d454e545f4c494d49545f54494d455354414d50815250614b7b565b846040518363ffffffff167c010000000000000000000000000000000000000000000000000000000002815260040180836000191660001916815260200182815260200192505050600060405180830381600087803b1580156130a057600080fd5b505af11580156130b4573d6000803e3d6000fd5b505050503373ffffffffffffffffffffffffffffffffffffffff16847f71fc9bb22a5ef5db1169a5474a47c80961e2efb8b79e4f797fee422b64a2a4698585604051808381526020018281526020019250505060405180910390a350505050565b600080600160009054906101000a900473ffffffffffffffffffffffffffffffffffffffff1673ffffffffffffffffffffffffffffffffffffffff1663bd02d0f58460405160200180828152602001807f4a4f425f53544154555300000000000000000000000000000000000000000000815250600a019150506040516020818303038152906040526040518082805190602001908083835b6020831015156131d357805182526020820191506020810190506020830392506131ae565b6001836020036101000a03801982511681845116808217855250505050505090500191505060405180910390206040518263ffffffff167c0100000000000000000000000000000000000000000000000000000000028152600401808260001916600019168152602001915050602060405180830381600087803b15801561325a57600080fd5b505af115801561326e573d6000803e3d6000fd5b505050506040513d602081101561328457600080fd5b810190808051906020019092919050505014159050919050565b60008273ffffffffffffffffffffffffffffffffffffffff16600160009054906101000a900473ffffffffffffffffffffffffffffffffffffffff1673ffffffffffffffffffffffffffffffffffffffff166321f8a7216132fe85614af0565b6040518263ffffffff167c0100000000000000000000000000000000000000000000000000000000028152600401808260001916600019168152602001915050602060405180830381600087803b15801561335857600080fd5b505af115801561336c573d6000803e3d6000fd5b505050506040513d602081101561338257600080fd5b810190808051906020019092919050505073ffffffffffffffffffffffffffffffffffffffff1614905092915050565b6000806000833373ffffffffffffffffffffffffffffffffffffffff16600160009054906101000a900473ffffffffffffffffffffffffffffffffffffffff1673ffffffffffffffffffffffffffffffffffffffff166321f8a72161341684614af0565b6040518263ffffffff167c0100000000000000000000000000000000000000000000000000000000028152600401808260001916600019168152602001915050602060405180830381600087803b15801561347057600080fd5b505af1158015613484573d6000803e3d6000fd5b505050506040513d602081101561349a57600080fd5b810190808051906020019092919050505073ffffffffffffffffffffffffffffffffffffffff161415156134cd57600080fd5b600160009054906101000a900473ffffffffffffffffffffffffffffffffffffffff1673ffffffffffffffffffffffffffffffffffffffff1663bd02d0f561354a876040805190810160405280600a81526020017f4a4f425f53544154555300000000000000000000000000000000000000000000815250614b7b565b6040518263ffffffff167c0100000000000000000000000000000000000000000000000000000000028152600401808260001916600019168152602001915050602060405180830381600087803b1580156135a457600080fd5b505af11580156135b8573d6000803e3d6000fd5b505050506040513d60208110156135ce57600080fd5b81019080805190602001909291905050509350600284101515156135f157600080fd5b6004841115151561360157600080fd5b600160009054906101000a900473ffffffffffffffffffffffffffffffffffffffff1673ffffffffffffffffffffffffffffffffffffffff1663e2a4853a61367e876040805190810160405280600a81526020017f4a4f425f53544154555300000000000000000000000000000000000000000000815250614b7b565b60096040518363ffffffff167c010000000000000000000000000000000000000000000000000000000002815260040180836000191660001916815260200182815260200192505050600060405180830381600087803b1580156136e157600080fd5b505af11580156136f5573d6000803e3d6000fd5b50505050600160009054906101000a900473ffffffffffffffffffffffffffffffffffffffff1673ffffffffffffffffffffffffffffffffffffffff166321f8a721613776876040805190810160405280600a81526020017f465245454c414e43455200000000000000000000000000000000000000000000815250614b7b565b6040518263ffffffff167c0100000000000000000000000000000000000000000000000000000000028152600401808260001916600019168152602001915050602060405180830381600087803b1580156137d057600080fd5b505af11580156137e4573d6000803e3d6000fd5b505050506040513d60208110156137fa57600080fd5b81019080805190602001909291905050509250600160009054906101000a900473ffffffffffffffffffffffffffffffffffffffff1673ffffffffffffffffffffffffffffffffffffffff1663bd02d0f56138558786614c5c565b6040518263ffffffff167c0100000000000000000000000000000000000000000000000000000000028152600401808260001916600019168152602001915050602060405180830381600087803b1580156138af57600080fd5b505af11580156138c3573d6000803e3d6000fd5b505050506040513d60208110156138d957600080fd5b810190808051906020019092919050505091503373ffffffffffffffffffffffffffffffffffffffff16857fa9fd4e402d8a89b7b1fb812d03c71e1e167336b982cb798bd6db80b1ea94c5b560405160405180910390a35050505050565b600080600080600080600160009054906101000a900473ffffffffffffffffffffffffffffffffffffffff1673ffffffffffffffffffffffffffffffffffffffff166321f8a7216139bd896040805190810160405280600a81526020017f465245454c414e43455200000000000000000000000000000000000000000000815250614b7b565b6040518263ffffffff167c0100000000000000000000000000000000000000000000000000000000028152600401808260001916600019168152602001915050602060405180830381600087803b158015613a1757600080fd5b505af1158015613a2b573d6000803e3d6000fd5b505050506040513d6020811015613a4157600080fd5b81019080805190602001909291905050509550600160009054906101000a900473ffffffffffffffffffffffffffffffffffffffff1673ffffffffffffffffffffffffffffffffffffffff166321f8a721613a9b89614af0565b6040518263ffffffff167c0100000000000000000000000000000000000000000000000000000000028152600401808260001916600019168152602001915050602060405180830381600087803b158015613af557600080fd5b505af1158015613b09573d6000803e3d6000fd5b505050506040513d6020811015613b1f57600080fd5b810190808051906020019092919050505094508573ffffffffffffffffffffffffffffffffffffffff163373ffffffffffffffffffffffffffffffffffffffff161480613b9757508473ffffffffffffffffffffffffffffffffffffffff163373ffffffffffffffffffffffffffffffffffffffff16145b1515613ba257600080fd5b8573ffffffffffffffffffffffffffffffffffffffff163373ffffffffffffffffffffffffffffffffffffffff161415613f2b576002600160009054906101000a900473ffffffffffffffffffffffffffffffffffffffff1673ffffffffffffffffffffffffffffffffffffffff1663bd02d0f5613c558a6040805190810160405280600a81526020017f4a4f425f53544154555300000000000000000000000000000000000000000000815250614b7b565b6040518263ffffffff167c0100000000000000000000000000000000000000000000000000000000028152600401808260001916600019168152602001915050602060405180830381600087803b158015613caf57600080fd5b505af1158015613cc3573d6000803e3d6000fd5b505050506040513d6020811015613cd957600080fd5b8101908080519060200190929190505050141515613cf657600080fd5b600160009054906101000a900473ffffffffffffffffffffffffffffffffffffffff1673ffffffffffffffffffffffffffffffffffffffff1663bd02d0f5613d73896040805190810160405280601681526020017f4a4f425f46494e49534845445f54494d455354414d5000000000000000000000815250614b7b565b6040518263ffffffff167c0100000000000000000000000000000000000000000000000000000000028152600401808260001916600019168152602001915050602060405180830381600087803b158015613dcd57600080fd5b505af1158015613de1573d6000803e3d6000fd5b505050506040513d6020811015613df757600080fd5b81019080805190602001909291905050509350600160009054906101000a900473ffffffffffffffffffffffffffffffffffffffff1673ffffffffffffffffffffffffffffffffffffffff1663bd02d0f560405180807f5041594d454e545f4c494d49545f54494d455354414d50000000000000000000815250601701905060405180910390206040518263ffffffff167c0100000000000000000000000000000000000000000000000000000000028152600401808260001916600019168152602001915050602060405180830381600087803b158015613ed857600080fd5b505af1158015613eec573d6000803e3d6000fd5b505050506040513d6020811015613f0257600080fd5b810190808051906020019092919050505092504283850111151515613f2657600080fd5b61416f565b6004600160009054906101000a900473ffffffffffffffffffffffffffffffffffffffff1673ffffffffffffffffffffffffffffffffffffffff1663bd02d0f5613faa8a6040805190810160405280600a81526020017f4a4f425f53544154555300000000000000000000000000000000000000000000815250614b7b565b6040518263ffffffff167c0100000000000000000000000000000000000000000000000000000000028152600401808260001916600019168152602001915050602060405180830381600087803b15801561400457600080fd5b505af1158015614018573d6000803e3d6000fd5b505050506040513d602081101561402e57600080fd5b810190808051906020019092919050505014151561404b57600080fd5b600160009054906101000a900473ffffffffffffffffffffffffffffffffffffffff1673ffffffffffffffffffffffffffffffffffffffff1663bd02d0f56140c8896040805190810160405280602081526020017f52454a45435445445f5041594d454e545f4c494d49545f54494d455354414d50815250614b7b565b6040518263ffffffff167c0100000000000000000000000000000000000000000000000000000000028152600401808260001916600019168152602001915050602060405180830381600087803b15801561412257600080fd5b505af1158015614136573d6000803e3d6000fd5b505050506040513d602081101561414c57600080fd5b8101908080519060200190929190505050915042821115151561416e57600080fd5b5b600160009054906101000a900473ffffffffffffffffffffffffffffffffffffffff1673ffffffffffffffffffffffffffffffffffffffff1663e2a4853a6141ec896040805190810160405280600a81526020017f4a4f425f53544154555300000000000000000000000000000000000000000000815250614b7b565b60056040518363ffffffff167c010000000000000000000000000000000000000000000000000000000002815260040180836000191660001916815260200182815260200192505050600060405180830381600087803b15801561424f57600080fd5b505af1158015614263573d6000803e3d6000fd5b50505050600160009054906101000a900473ffffffffffffffffffffffffffffffffffffffff1673ffffffffffffffffffffffffffffffffffffffff1663bd02d0f56142af8989614c5c565b6040518263ffffffff167c0100000000000000000000000000000000000000000000000000000000028152600401808260001916600019168152602001915050602060405180830381600087803b15801561430957600080fd5b505af115801561431d573d6000803e3d6000fd5b505050506040513d602081101561433357600080fd5b810190808051906020019092919050505090503373ffffffffffffffffffffffffffffffffffffffff16877f68e025580f9927563397b7ace79c220c87b74dc551093ed5064fff4049990b7560405160405180910390a350505050505050565b6000806000806000600160009054906101000a900473ffffffffffffffffffffffffffffffffffffffff1673ffffffffffffffffffffffffffffffffffffffff1663bd02d0f5614418886040805190810160405280601681526020017f4a4f425f46494e49534845445f54494d455354414d5000000000000000000000815250614b7b565b6040518263ffffffff167c0100000000000000000000000000000000000000000000000000000000028152600401808260001916600019168152602001915050602060405180830381600087803b15801561447257600080fd5b505af1158015614486573d6000803e3d6000fd5b505050506040513d602081101561449c57600080fd5b81019080805190602001909291905050509250600160009054906101000a900473ffffffffffffffffffffffffffffffffffffffff1673ffffffffffffffffffffffffffffffffffffffff1663bd02d0f560405180807f5041594d454e545f4c494d49545f54494d455354414d50000000000000000000815250601701905060405180910390206040518263ffffffff167c0100000000000000000000000000000000000000000000000000000000028152600401808260001916600019168152602001915050602060405180830381600087803b15801561457d57600080fd5b505af1158015614591573d6000803e3d6000fd5b505050506040513d60208110156145a757600080fd5b81019080805190602001909291905050509150600160009054906101000a900473ffffffffffffffffffffffffffffffffffffffff1673ffffffffffffffffffffffffffffffffffffffff1663bd02d0f5614637886040805190810160405280600a81526020017f4a4f425f53544154555300000000000000000000000000000000000000000000815250614b7b565b6040518263ffffffff167c0100000000000000000000000000000000000000000000000000000000028152600401808260001916600019168152602001915050602060405180830381600087803b15801561469157600080fd5b505af11580156146a5573d6000803e3d6000fd5b505050506040513d60208110156146bb57600080fd5b81019080805190602001909291905050509050806146e28385614ad490919063ffffffff16565b94509450505050915091565b6000600160009054906101000a900473ffffffffffffffffffffffffffffffffffffffff1673ffffffffffffffffffffffffffffffffffffffff1663bd02d0f58360405160200180828152602001807f4a4f425f45585049524544000000000000000000000000000000000000000000815250600b019150506040516020818303038152906040526040518082805190602001908083835b6020831015156147ab5780518252602082019150602081019050602083039250614786565b6001836020036101000a03801982511681845116808217855250505050505090500191505060405180910390206040518263ffffffff167c0100000000000000000000000000000000000000000000000000000000028152600401808260001916600019168152602001915050602060405180830381600087803b15801561483257600080fd5b505af1158015614846573d6000803e3d6000fd5b505050506040513d602081101561485c57600080fd5b810190808051906020019092919050505042119050919050565b600080600160009054906101000a900473ffffffffffffffffffffffffffffffffffffffff1673ffffffffffffffffffffffffffffffffffffffff166321f8a7218460405160200180828152602001807f465245454c414e43455200000000000000000000000000000000000000000000815250600a019150506040516020818303038152906040526040518082805190602001908083835b602083101515614934578051825260208201915060208101905060208303925061490f565b6001836020036101000a03801982511681845116808217855250505050505090500191505060405180910390206040518263ffffffff167c0100000000000000000000000000000000000000000000000000000000028152600401808260001916600019168152602001915050602060405180830381600087803b1580156149bb57600080fd5b505af11580156149cf573d6000803e3d6000fd5b505050506040513d60208110156149e557600080fd5b810190808051906020019092919050505073ffffffffffffffffffffffffffffffffffffffff1614159050919050565b600073ffffffffffffffffffffffffffffffffffffffff166000809054906101000a900473ffffffffffffffffffffffffffffffffffffffff1673ffffffffffffffffffffffffffffffffffffffff16141515614ac8576000809054906101000a900473ffffffffffffffffffffffffffffffffffffffff1673ffffffffffffffffffffffffffffffffffffffff163373ffffffffffffffffffffffffffffffffffffffff16141515614ac757600080fd5b5b614ad181614e50565b50565b60008183019050828110151515614ae757fe5b80905092915050565b600081604051602001808281526020019150506040516020818303038152906040526040518082805190602001908083835b602083101515614b475780518252602082019150602081019050602083039250614b22565b6001836020036101000a03801982511681845116808217855250505050505090500191505060405180910390209050919050565b600082826040516020018083815260200182805190602001908083835b602083101515614bbd5780518252602082019150602081019050602083039250614b98565b6001836020036101000a038019825116818451168082178552505050505050905001925050506040516020818303038152906040526040518082805190602001908083835b602083101515614c275780518252602082019150602081019050602083039250614c02565b6001836020036101000a0380198251168184511680821785525050505050509050019150506040518091039020905092915050565b60008282604051602001808381526020018273ffffffffffffffffffffffffffffffffffffffff1673ffffffffffffffffffffffffffffffffffffffff166c01000000000000000000000000028152601401925050506040516020818303038152906040526040518082805190602001908083835b602083101515614cf65780518252602082019150602081019050602083039250614cd1565b6001836020036101000a0380198251168184511680821785525050505050509050019150506040518091039020905092915050565b6000838383604051602001808481526020018373ffffffffffffffffffffffffffffffffffffffff1673ffffffffffffffffffffffffffffffffffffffff166c0100000000000000000000000002815260140182805190602001908083835b602083101515614daf5780518252602082019150602081019050602083039250614d8a565b6001836020036101000a03801982511681845116808217855250505050505090500193505050506040516020818303038152906040526040518082805190602001908083835b602083101515614e1a5780518252602082019150602081019050602083039250614df5565b6001836020036101000a038019825116818451168082178552505050505050905001915050604051809103902090509392505050565b600073ffffffffffffffffffffffffffffffffffffffff168173ffffffffffffffffffffffffffffffffffffffff1614151515614e8c57600080fd5b8073ffffffffffffffffffffffffffffffffffffffff166000809054906101000a900473ffffffffffffffffffffffffffffffffffffffff1673ffffffffffffffffffffffffffffffffffffffff167f8be0079c531659141344cd1fd0a4f28419497f9722a3daafe3b4186f6b6457e060405160405180910390a3806000806101000a81548173ffffffffffffffffffffffffffffffffffffffff021916908373ffffffffffffffffffffffffffffffffffffffff160217905550505600a165627a7a72305820784f29e327211f4e0ed8d8dbed4fd1207b303c8c995560bc881a6d38531d4e480029",
  "source": "/**\n * Created on 2018-08-13 10:32\n * @summary: \n * @author: Chris Nguyen\n */\npragma solidity ^0.4.24;\nimport './BBFreelancer.sol';\nimport './BBLib.sol';\nimport './zeppelin/token/ERC20/ERC20.sol';\n\n\n/**\n * @title BBFreelancerPayment\n */\ncontract BBFreelancerPayment is BBFreelancer{\n\n  event PaymentClaimed(uint256 indexed jobID, address indexed sender);\n  event PaymentAccepted(uint256 indexed jobID, address indexed sender);\n  event PaymentRejected(uint256 indexed jobID, address indexed sender, uint reason, uint256 rejectedTimestamp);\n  event DisputeFinalized(uint256 indexed jobID, address indexed winner);\n  event DepositMoney(address indexed sender, bytes32 indexed jobHash, address token, uint256 amount, uint256 etherAmount);\n\n\n  // hirer ok with finish Job\n  /**\n   * @dev \n   * @param jobID Job ID\n   */\n  function acceptPayment(uint256 jobID)  public \n  isOwnerJob(jobID) {\n    uint256 status = bbs.getUint(BBLib.toB32(jobID,'JOB_STATUS'));\n    require(status >= 2);\n    require(status <= 4);\n    bbs.setUint(BBLib.toB32(jobID,'JOB_STATUS'), 9);\n    address freelancer = bbs.getAddress(BBLib.toB32(jobID,'FREELANCER'));\n    uint256 bid = bbs.getUint(BBLib.toB32(jobID,freelancer));\n    //TODO release funs\n    //require(bbo.transfer(freelancer, bid)); //###\n\n    emit PaymentAccepted(jobID, msg.sender);\n\n  }\n  // hirer not ok with finish Job\n  /**\n   * @dev \n   * @param jobID Job ID\n   */\n  function rejectPayment(uint256 jobID, uint reason) public \n  isOwnerJob(jobID) {\n    require(bbs.getUint(BBLib.toB32(jobID,'JOB_STATUS')) == 2);\n    require(reason > 0);\n    bbs.setUint(BBLib.toB32(jobID,'JOB_STATUS'), 4);\n    bbs.setUint(BBLib.toB32(jobID,'JOB_REASON'), reason);\n    uint256 rejectedTimestamp = block.timestamp.add(bbs.getUint(keccak256('REJECTED_PAYMENT_LIMIT_TIMESTAMP')));\n    bbs.setUint(BBLib.toB32(jobID,'REJECTED_PAYMENT_LIMIT_TIMESTAMP'), rejectedTimestamp);\n   emit PaymentRejected(jobID, msg.sender, reason, rejectedTimestamp);\n\n  }\n  // freelancer claimeJob with finish Job but hirer not accept payment \n  // need proof of work\n  /**\n   * @dev \n   * @param jobID Job ID\n   */\n  function claimePayment(uint256 jobID) public\n  {\n    address freelancer = bbs.getAddress(BBLib.toB32(jobID,'FREELANCER'));\n    address jobOwner = bbs.getAddress(BBLib.toB32(jobID));\n    require(msg.sender == freelancer || msg.sender == jobOwner);\n    if(msg.sender == freelancer){\n      require(bbs.getUint(BBLib.toB32(jobID,'JOB_STATUS')) == 2);\n      uint256 finishDate = bbs.getUint(BBLib.toB32(jobID,'JOB_FINISHED_TIMESTAMP'));\n      uint256 paymentLimitTimestamp = bbs.getUint(keccak256('PAYMENT_LIMIT_TIMESTAMP'));\n      require((finishDate+paymentLimitTimestamp) <= now );\n    }else{\n      require(bbs.getUint(BBLib.toB32(jobID,'JOB_STATUS')) == 4);\n      uint256 rejectedEndTimestamp = bbs.getUint(BBLib.toB32(jobID,'REJECTED_PAYMENT_LIMIT_TIMESTAMP'));\n      require(rejectedEndTimestamp <= now );\n    }\n    bbs.setUint(BBLib.toB32(jobID,'JOB_STATUS'), 5);\n    uint256 bid = bbs.getUint(BBLib.toB32(jobID,freelancer));\n    //require(bbo.transfer(msg.sender, bid)); //###\n\n    emit PaymentClaimed(jobID, msg.sender);\n\n  }\n\n  /** \n  * @dev check payment status \n  **/\n  function checkPayment(uint256 jobID) public view returns(uint256, uint256){\n    uint256 finishDate = bbs.getUint(BBLib.toB32(jobID,'JOB_FINISHED_TIMESTAMP'));\n    uint256 paymentLimitTimestamp = bbs.getUint(keccak256('PAYMENT_LIMIT_TIMESTAMP'));\n    uint256 status = bbs.getUint(BBLib.toB32(jobID,'JOB_STATUS'));\n    return (status,finishDate.add(paymentLimitTimestamp));\n  }\n\n\n  function refundBBO(uint256 jobID) public  returns(bool) {\n      address owner = bbs.getAddress(BBLib.toB32(jobID));\n      uint256 lastDeposit = bbs.getUint(BBLib.toB32(jobID, owner, 'DEPOSIT'));\n      if(bbs.getBool(BBLib.toB32(jobID,'JOB_CANCEL')) == true) {\n          bbs.setUint(BBLib.toB32(jobID, owner,'DEPOSIT'), 0);\n          if(lastDeposit > 0) {\n            return bbo.transfer(owner, lastDeposit);\n          }else\n            return true;\n      } else {\n        address freelancer = bbs.getAddress(keccak256(abi.encodePacked(jobID, 'FREELANCER')));\n        uint256 bid = bbs.getUint(keccak256(abi.encodePacked(jobID,freelancer)));\n        require(bid > 0);\n        require(lastDeposit > bid);\n        return bbo.transfer(owner, lastDeposit - bid);\n      }\n\n  }\n\n  /**\n   * @dev finalize Dispute\n   * @param jobID The job ID \n   */\n  function finalizeDispute(uint256 jobID)  public returns(bool) {\n    require(bbs.getAddress(BBLib.toB32(jobID)) != 0x0);\n    require(bbs.getBool(BBLib.toB32(jobID, 'PAYMENT_FINALIZED'))!=true);\n\n    address winner = bbs.getAddress(BBLib.toB32(jobID, 'DISPUTE_WINNER'));\n    require(winner!=address(0x0));\n    address freelancer = bbs.getAddress(BBLib.toB32(jobID,'FREELANCER'));\n    address jobOwner = bbs.getAddress(BBLib.toB32(jobID));\n    uint256 bid = bbs.getUint(BBLib.toB32(jobID,freelancer));\n    require(winner==freelancer||winner==jobOwner);\n    bbs.setBool(BBLib.toB32(jobID, 'PAYMENT_FINALIZED'), true);\n    //require(bbo.transfer(winner, bid)); //#### \n    emit DisputeFinalized(jobID, winner);\n\n    return true;\n  } \n\n  function depositMoney(bytes jobHash,  address token, uint256 amount) payable public {\n    address wallet = this;\n    require(amount > 0);\n    \n    if(token != address(0x0)) {\n      require(ERC20(token).transferFrom(msg.sender, address(this), amount));\n      uint256 lastDeposit = bbs.getUint(keccak256(abi.encodePacked(jobHash, msg.sender, 'TOKEN')));\n      lastDeposit = lastDeposit.add(amount);\n      bbs.setUint(keccak256(abi.encodePacked(jobHash, msg.sender, 'TOKEN')),lastDeposit);\n\n    } else if(msg.value > 0) {\n        lastDeposit = bbs.getUint(keccak256(abi.encodePacked(jobHash, msg.sender, 'ETH')));\n        lastDeposit = lastDeposit.add(msg.value);\n        bbs.setUint(keccak256(abi.encodePacked(jobHash, msg.sender, 'ETH')),lastDeposit);\n    }\n  \n    emit DepositMoney(msg.sender, keccak256(abi.encodePacked(jobHash)), token ,amount, msg.value);\n\n  }\n}\n",
  "sourcePath": "/Users/trantho/Code/SmartContract/digital-contracts/src/contracts/BBFreelancerPayment.sol",
  "compiler": {
    "name": "solc",
    "version": "0.4.24+commit.e67f0147.Emscripten.clang"
  },
  "schemaVersion": "2.0.1",
  "updatedAt": "2018-12-20T07:35:09.097Z"
}