{
  "contractName": "BBVoting",
  "abi": [
    {
      "constant": true,
      "inputs": [],
      "name": "bbo",
      "outputs": [
        {
          "name": "",
          "type": "address"
        }
      ],
      "payable": false,
      "stateMutability": "view",
      "type": "function"
    },
    {
      "constant": true,
      "inputs": [],
      "name": "bbs",
      "outputs": [
        {
          "name": "",
          "type": "address"
        }
      ],
      "payable": false,
      "stateMutability": "view",
      "type": "function"
    },
    {
      "constant": true,
      "inputs": [],
      "name": "helper",
      "outputs": [
        {
          "name": "",
          "type": "address"
        }
      ],
      "payable": false,
      "stateMutability": "view",
      "type": "function"
    },
    {
      "constant": false,
      "inputs": [],
      "name": "renounceOwnership",
      "outputs": [],
      "payable": false,
      "stateMutability": "nonpayable",
      "type": "function"
    },
    {
      "constant": false,
      "inputs": [
        {
          "name": "BBOAddress",
          "type": "address"
        }
      ],
      "name": "setBBO",
      "outputs": [],
      "payable": false,
      "stateMutability": "nonpayable",
      "type": "function"
    },
    {
      "constant": true,
      "inputs": [],
      "name": "owner",
      "outputs": [
        {
          "name": "",
          "type": "address"
        }
      ],
      "payable": false,
      "stateMutability": "view",
      "type": "function"
    },
    {
      "constant": false,
      "inputs": [
        {
          "name": "anyToken",
          "type": "address"
        }
      ],
      "name": "emergencyERC20Drain",
      "outputs": [],
      "payable": false,
      "stateMutability": "nonpayable",
      "type": "function"
    },
    {
      "constant": false,
      "inputs": [
        {
          "name": "storageAddress",
          "type": "address"
        }
      ],
      "name": "setStorage",
      "outputs": [],
      "payable": false,
      "stateMutability": "nonpayable",
      "type": "function"
    },
    {
      "constant": false,
      "inputs": [
        {
          "name": "_newOwner",
          "type": "address"
        }
      ],
      "name": "transferOwnership",
      "outputs": [],
      "payable": false,
      "stateMutability": "nonpayable",
      "type": "function"
    },
    {
      "anonymous": false,
      "inputs": [
        {
          "indexed": true,
          "name": "pollID",
          "type": "uint256"
        },
        {
          "indexed": true,
          "name": "creator",
          "type": "address"
        }
      ],
      "name": "PollStarted",
      "type": "event"
    },
    {
      "anonymous": false,
      "inputs": [
        {
          "indexed": true,
          "name": "pollID",
          "type": "uint256"
        },
        {
          "indexed": true,
          "name": "isCancel",
          "type": "bool"
        }
      ],
      "name": "PollUpdated",
      "type": "event"
    },
    {
      "anonymous": false,
      "inputs": [
        {
          "indexed": true,
          "name": "pollID",
          "type": "uint256"
        },
        {
          "indexed": false,
          "name": "optionID",
          "type": "uint256"
        }
      ],
      "name": "PollOptionAdded",
      "type": "event"
    },
    {
      "anonymous": false,
      "inputs": [
        {
          "indexed": true,
          "name": "voter",
          "type": "address"
        },
        {
          "indexed": false,
          "name": "numTokens",
          "type": "uint256"
        }
      ],
      "name": "VotingRightsGranted",
      "type": "event"
    },
    {
      "anonymous": false,
      "inputs": [
        {
          "indexed": true,
          "name": "voter",
          "type": "address"
        },
        {
          "indexed": false,
          "name": "numTokens",
          "type": "uint256"
        }
      ],
      "name": "VotingRightsWithdrawn",
      "type": "event"
    },
    {
      "anonymous": false,
      "inputs": [
        {
          "indexed": true,
          "name": "voter",
          "type": "address"
        },
        {
          "indexed": true,
          "name": "pollID",
          "type": "uint256"
        }
      ],
      "name": "VoteCommitted",
      "type": "event"
    },
    {
      "anonymous": false,
      "inputs": [
        {
          "indexed": true,
          "name": "voter",
          "type": "address"
        },
        {
          "indexed": true,
          "name": "pollID",
          "type": "uint256"
        }
      ],
      "name": "VoteRevealed",
      "type": "event"
    },
    {
      "anonymous": false,
      "inputs": [
        {
          "indexed": true,
          "name": "previousOwner",
          "type": "address"
        }
      ],
      "name": "OwnershipRenounced",
      "type": "event"
    },
    {
      "anonymous": false,
      "inputs": [
        {
          "indexed": true,
          "name": "previousOwner",
          "type": "address"
        },
        {
          "indexed": true,
          "name": "newOwner",
          "type": "address"
        }
      ],
      "name": "OwnershipTransferred",
      "type": "event"
    },
    {
      "constant": false,
      "inputs": [
        {
          "name": "_helper",
          "type": "address"
        }
      ],
      "name": "setHelper",
      "outputs": [],
      "payable": false,
      "stateMutability": "nonpayable",
      "type": "function"
    },
    {
      "constant": false,
      "inputs": [
        {
          "name": "numTokens",
          "type": "uint256"
        }
      ],
      "name": "requestVotingRights",
      "outputs": [],
      "payable": false,
      "stateMutability": "nonpayable",
      "type": "function"
    },
    {
      "constant": false,
      "inputs": [
        {
          "name": "numTokens",
          "type": "uint256"
        }
      ],
      "name": "withdrawVotingRights",
      "outputs": [],
      "payable": false,
      "stateMutability": "nonpayable",
      "type": "function"
    },
    {
      "constant": false,
      "inputs": [
        {
          "name": "pollID",
          "type": "uint256"
        },
        {
          "name": "secretHash",
          "type": "bytes32"
        },
        {
          "name": "tokens",
          "type": "uint256"
        }
      ],
      "name": "commitVote",
      "outputs": [],
      "payable": false,
      "stateMutability": "nonpayable",
      "type": "function"
    },
    {
      "constant": false,
      "inputs": [
        {
          "name": "pollID",
          "type": "uint256"
        },
        {
          "name": "choice",
          "type": "uint256"
        },
        {
          "name": "salt",
          "type": "uint256"
        }
      ],
      "name": "revealVote",
      "outputs": [],
      "payable": false,
      "stateMutability": "nonpayable",
      "type": "function"
    },
    {
      "constant": false,
      "inputs": [
        {
          "name": "pollID",
          "type": "uint256"
        },
        {
          "name": "isCancel",
          "type": "bool"
        },
        {
          "name": "commitDuration",
          "type": "uint256"
        },
        {
          "name": "revealDuration",
          "type": "uint256"
        }
      ],
      "name": "updatePoll",
      "outputs": [
        {
          "name": "success",
          "type": "bool"
        }
      ],
      "payable": false,
      "stateMutability": "nonpayable",
      "type": "function"
    },
    {
      "constant": false,
      "inputs": [
        {
          "name": "extraData",
          "type": "bytes"
        },
        {
          "name": "addOptionDuration",
          "type": "uint256"
        },
        {
          "name": "commitDuration",
          "type": "uint256"
        },
        {
          "name": "revealDuration",
          "type": "uint256"
        }
      ],
      "name": "startPoll",
      "outputs": [
        {
          "name": "pollID",
          "type": "uint256"
        }
      ],
      "payable": false,
      "stateMutability": "nonpayable",
      "type": "function"
    },
    {
      "constant": false,
      "inputs": [
        {
          "name": "pollID",
          "type": "uint256"
        },
        {
          "name": "pollOption",
          "type": "bytes"
        }
      ],
      "name": "addPollOption",
      "outputs": [
        {
          "name": "success",
          "type": "bool"
        }
      ],
      "payable": false,
      "stateMutability": "nonpayable",
      "type": "function"
    }
  ],
  "bytecode": "0x60806040526000600160006101000a81548173ffffffffffffffffffffffffffffffffffffffff021916908373ffffffffffffffffffffffffffffffffffffffff1602179055506000600260006101000a81548173ffffffffffffffffffffffffffffffffffffffff021916908373ffffffffffffffffffffffffffffffffffffffff1602179055506000600360006101000a81548173ffffffffffffffffffffffffffffffffffffffff021916908373ffffffffffffffffffffffffffffffffffffffff160217905550336000806101000a81548173ffffffffffffffffffffffffffffffffffffffff021916908373ffffffffffffffffffffffffffffffffffffffff1602179055506143da806101196000396000f3006080604052600436106100f1576000357c0100000000000000000000000000000000000000000000000000000000900463ffffffff1680631e89bf06146100f65780631fde23a41461014d57806363b0e66a146101a4578063715018a6146101fb5780637937f46d146102125780638da5cb5b1461025557806390e8d82f146102ac5780639137c1a7146102ef578063986ccc7f14610332578063a25236fe14610375578063b0cbea9f146103a2578063b11d8bb814610407578063bd002e1e14610448578063cbff158f146104e3578063e7b1d43c1461056e578063f2fde38b1461059b578063fa07153a146105de575b600080fd5b34801561010257600080fd5b5061010b610623565b604051808273ffffffffffffffffffffffffffffffffffffffff1673ffffffffffffffffffffffffffffffffffffffff16815260200191505060405180910390f35b34801561015957600080fd5b50610162610649565b604051808273ffffffffffffffffffffffffffffffffffffffff1673ffffffffffffffffffffffffffffffffffffffff16815260200191505060405180910390f35b3480156101b057600080fd5b506101b961066f565b604051808273ffffffffffffffffffffffffffffffffffffffff1673ffffffffffffffffffffffffffffffffffffffff16815260200191505060405180910390f35b34801561020757600080fd5b50610210610695565b005b34801561021e57600080fd5b50610253600480360381019080803573ffffffffffffffffffffffffffffffffffffffff169060200190929190505050610797565b005b34801561026157600080fd5b5061026a610836565b604051808273ffffffffffffffffffffffffffffffffffffffff1673ffffffffffffffffffffffffffffffffffffffff16815260200191505060405180910390f35b3480156102b857600080fd5b506102ed600480360381019080803573ffffffffffffffffffffffffffffffffffffffff16906020019092919050505061085b565b005b3480156102fb57600080fd5b50610330600480360381019080803573ffffffffffffffffffffffffffffffffffffffff169060200190929190505050610b6f565b005b34801561033e57600080fd5b50610373600480360381019080803573ffffffffffffffffffffffffffffffffffffffff169060200190929190505050610c0e565b005b34801561038157600080fd5b506103a060048036038101908080359060200190929190505050610cad565b005b3480156103ae57600080fd5b506103ed600480360381019080803590602001909291908035151590602001909291908035906020019092919080359060200190929190505050610f1e565b604051808215151515815260200191505060405180910390f35b34801561041357600080fd5b506104466004803603810190808035906020019092919080359060200190929190803590602001909291905050506110a6565b005b34801561045457600080fd5b506104cd600480360381019080803590602001908201803590602001908080601f0160208091040260200160405190810160405280939291908181526020018383808284378201915050505050509192919290803590602001909291908035906020019092919080359060200190929190505050611c45565b6040518082815260200191505060405180910390f35b3480156104ef57600080fd5b5061055460048036038101908080359060200190929190803590602001908201803590602001908080601f0160208091040260200160405190810160405280939291908181526020018383808284378201915050505050509192919290505050612409565b604051808215151515815260200191505060405180910390f35b34801561057a57600080fd5b5061059960048036038101908080359060200190929190505050612685565b005b3480156105a757600080fd5b506105dc600480360381019080803573ffffffffffffffffffffffffffffffffffffffff169060200190929190505050612923565b005b3480156105ea57600080fd5b50610621600480360381019080803590602001909291908035600019169060200190929190803590602001909291905050506129e2565b005b600260009054906101000a900473ffffffffffffffffffffffffffffffffffffffff1681565b600160009054906101000a900473ffffffffffffffffffffffffffffffffffffffff1681565b600360009054906101000a900473ffffffffffffffffffffffffffffffffffffffff1681565b6000809054906101000a900473ffffffffffffffffffffffffffffffffffffffff1673ffffffffffffffffffffffffffffffffffffffff163373ffffffffffffffffffffffffffffffffffffffff161415156106f057600080fd5b6000809054906101000a900473ffffffffffffffffffffffffffffffffffffffff1673ffffffffffffffffffffffffffffffffffffffff167ff8df31144d9c2f0f6b59d69b8b98abd5459d07f2742c4df920b25aae33c6482060405160405180910390a260008060006101000a81548173ffffffffffffffffffffffffffffffffffffffff021916908373ffffffffffffffffffffffffffffffffffffffff160217905550565b6000809054906101000a900473ffffffffffffffffffffffffffffffffffffffff1673ffffffffffffffffffffffffffffffffffffffff163373ffffffffffffffffffffffffffffffffffffffff161415156107f257600080fd5b80600260006101000a81548173ffffffffffffffffffffffffffffffffffffffff021916908373ffffffffffffffffffffffffffffffffffffffff16021790555050565b6000809054906101000a900473ffffffffffffffffffffffffffffffffffffffff1681565b6000809054906101000a900473ffffffffffffffffffffffffffffffffffffffff1673ffffffffffffffffffffffffffffffffffffffff163373ffffffffffffffffffffffffffffffffffffffff161415156108b657600080fd5b60003073ffffffffffffffffffffffffffffffffffffffff16311115610956576000809054906101000a900473ffffffffffffffffffffffffffffffffffffffff1673ffffffffffffffffffffffffffffffffffffffff166108fc3073ffffffffffffffffffffffffffffffffffffffff16319081150290604051600060405180830381858888f19350505050158015610954573d6000803e3d6000fd5b505b600073ffffffffffffffffffffffffffffffffffffffff168173ffffffffffffffffffffffffffffffffffffffff16141515610b6c578073ffffffffffffffffffffffffffffffffffffffff1663a9059cbb6000809054906101000a900473ffffffffffffffffffffffffffffffffffffffff168373ffffffffffffffffffffffffffffffffffffffff166370a08231306040518263ffffffff167c0100000000000000000000000000000000000000000000000000000000028152600401808273ffffffffffffffffffffffffffffffffffffffff1673ffffffffffffffffffffffffffffffffffffffff168152602001915050602060405180830381600087803b158015610a6557600080fd5b505af1158015610a79573d6000803e3d6000fd5b505050506040513d6020811015610a8f57600080fd5b81019080805190602001909291905050506040518363ffffffff167c0100000000000000000000000000000000000000000000000000000000028152600401808373ffffffffffffffffffffffffffffffffffffffff1673ffffffffffffffffffffffffffffffffffffffff16815260200182815260200192505050602060405180830381600087803b158015610b2557600080fd5b505af1158015610b39573d6000803e3d6000fd5b505050506040513d6020811015610b4f57600080fd5b81019080805190602001909291905050501515610b6b57600080fd5b5b50565b6000809054906101000a900473ffffffffffffffffffffffffffffffffffffffff1673ffffffffffffffffffffffffffffffffffffffff163373ffffffffffffffffffffffffffffffffffffffff16141515610bca57600080fd5b80600160006101000a81548173ffffffffffffffffffffffffffffffffffffffff021916908373ffffffffffffffffffffffffffffffffffffffff16021790555050565b6000809054906101000a900473ffffffffffffffffffffffffffffffffffffffff1673ffffffffffffffffffffffffffffffffffffffff163373ffffffffffffffffffffffffffffffffffffffff16141515610c6957600080fd5b80600360006101000a81548173ffffffffffffffffffffffffffffffffffffffff021916908373ffffffffffffffffffffffffffffffffffffffff16021790555050565b6000600160009054906101000a900473ffffffffffffffffffffffffffffffffffffffff1673ffffffffffffffffffffffffffffffffffffffff1663bd02d0f5610d2c336040805190810160405280600b81526020017f5354414b45445f564f544500000000000000000000000000000000000000000081525061315a565b6040518263ffffffff167c0100000000000000000000000000000000000000000000000000000000028152600401808260001916600019168152602001915050602060405180830381600087803b158015610d8657600080fd5b505af1158015610d9a573d6000803e3d6000fd5b505050506040513d6020811015610db057600080fd5b81019080805190602001909291905050509050600160009054906101000a900473ffffffffffffffffffffffffffffffffffffffff1673ffffffffffffffffffffffffffffffffffffffff1663e2a4853a610e40336040805190810160405280600b81526020017f5354414b45445f564f544500000000000000000000000000000000000000000081525061315a565b610e53858561327690919063ffffffff16565b6040518363ffffffff167c010000000000000000000000000000000000000000000000000000000002815260040180836000191660001916815260200182815260200192505050600060405180830381600087803b158015610eb457600080fd5b505af1158015610ec8573d6000803e3d6000fd5b505050503373ffffffffffffffffffffffffffffffffffffffff167f4bdec44a53feb3aabedf51c989ff2b6aebe7369d3974f57c304758a8537281e1836040518082815260200191505060405180910390a25050565b600080600080600360009054906101000a900473ffffffffffffffffffffffffffffffffffffffff1673ffffffffffffffffffffffffffffffffffffffff1663b85fb20f896040518263ffffffff167c01000000000000000000000000000000000000000000000000000000000281526004018082815260200191505060a060405180830381600087803b158015610fb557600080fd5b505af1158015610fc9573d6000803e3d6000fd5b505050506040513d60a0811015610fdf57600080fd5b810190808051906020019092919080519060200190929190805190602001909291908051906020019092919080519060200190929190505050945050509250925060018314151561102f57600080fd5b428110151561103d57600080fd5b3373ffffffffffffffffffffffffffffffffffffffff168273ffffffffffffffffffffffffffffffffffffffff1614151561107757600080fd5b861561108d5761108688613292565b935061109b565b6110988887876133c6565b93505b505050949350505050565b600080600080600080600080600360009054906101000a900473ffffffffffffffffffffffffffffffffffffffff1673ffffffffffffffffffffffffffffffffffffffff1663b85fb20f8c6040518263ffffffff167c01000000000000000000000000000000000000000000000000000000000281526004018082815260200191505060a060405180830381600087803b15801561114357600080fd5b505af1158015611157573d6000803e3d6000fd5b505050506040513d60a081101561116d57600080fd5b8101908080519060200190929190805190602001909291908051906020019092919080519060200190929190805190602001909291905050509a509a5050505042881015156111bb57600080fd5b42871115156111c957600080fd5b600160009054906101000a900473ffffffffffffffffffffffffffffffffffffffff1673ffffffffffffffffffffffffffffffffffffffff1663bd02d0f56112468d6040805190810160405280600681526020017f5354415455530000000000000000000000000000000000000000000000000000815250613628565b6040518263ffffffff167c0100000000000000000000000000000000000000000000000000000000028152600401808260001916600019168152602001915050602060405180830381600087803b1580156112a057600080fd5b505af11580156112b4573d6000803e3d6000fd5b505050506040513d60208110156112ca57600080fd5b81019080805190602001909291905050509550600186101515156112ed57600080fd5b600160009054906101000a900473ffffffffffffffffffffffffffffffffffffffff1673ffffffffffffffffffffffffffffffffffffffff1663bd02d0f561136a336040805190810160405280600b81526020017f5354414b45445f564f544500000000000000000000000000000000000000000081525061315a565b6040518263ffffffff167c0100000000000000000000000000000000000000000000000000000000028152600401808260001916600019168152602001915050602060405180830381600087803b1580156113c457600080fd5b505af11580156113d8573d6000803e3d6000fd5b505050506040513d60208110156113ee57600080fd5b81019080805190602001909291905050509450600160009054906101000a900473ffffffffffffffffffffffffffffffffffffffff1673ffffffffffffffffffffffffffffffffffffffff1663bd02d0f561147f8d6040805190810160405280600581526020017f564f54455300000000000000000000000000000000000000000000000000000081525033613709565b6040518263ffffffff167c0100000000000000000000000000000000000000000000000000000000028152600401808260001916600019168152602001915050602060405180830381600087803b1580156114d957600080fd5b505af11580156114ed573d6000803e3d6000fd5b505050506040513d602081101561150357600080fd5b8101908080519060200190929190505050935083851015151561152557600080fd5b61152f8a8a61382e565b92506116a2600160009054906101000a900473ffffffffffffffffffffffffffffffffffffffff1673ffffffffffffffffffffffffffffffffffffffff1663c031a1806115b28e6040805190810160405280600b81526020017f5345435245545f4841534800000000000000000000000000000000000000000081525033613709565b6040518263ffffffff167c0100000000000000000000000000000000000000000000000000000000028152600401808260001916600019168152602001915050600060405180830381600087803b15801561160c57600080fd5b505af1158015611620573d6000803e3d6000fd5b505050506040513d6000823e3d601f19601f82011682018060405250602081101561164a57600080fd5b81019080805164010000000081111561166257600080fd5b8281019050602081018481111561167857600080fd5b815185600182028301116401000000008211171561169557600080fd5b50509291905050506138c2565b9150816000191683600019161415156116ba57600080fd5b6000600160009054906101000a900473ffffffffffffffffffffffffffffffffffffffff1673ffffffffffffffffffffffffffffffffffffffff1663bd02d0f561173a8e6040805190810160405280600681526020017f43484f494345000000000000000000000000000000000000000000000000000081525033613709565b6040518263ffffffff167c0100000000000000000000000000000000000000000000000000000000028152600401808260001916600019168152602001915050602060405180830381600087803b15801561179457600080fd5b505af11580156117a8573d6000803e3d6000fd5b505050506040513d60208110156117be57600080fd5b81019080805190602001909291905050501415156117db57600080fd5b600160009054906101000a900473ffffffffffffffffffffffffffffffffffffffff1673ffffffffffffffffffffffffffffffffffffffff1663bd02d0f56118598d6040805190810160405280600881526020017f564f54455f464f520000000000000000000000000000000000000000000000008152508e61399d565b6040518263ffffffff167c0100000000000000000000000000000000000000000000000000000000028152600401808260001916600019168152602001915050602060405180830381600087803b1580156118b357600080fd5b505af11580156118c7573d6000803e3d6000fd5b505050506040513d60208110156118dd57600080fd5b81019080805190602001909291905050509050600160009054906101000a900473ffffffffffffffffffffffffffffffffffffffff1673ffffffffffffffffffffffffffffffffffffffff1663e2a4853a61196e8d6040805190810160405280600881526020017f564f54455f464f520000000000000000000000000000000000000000000000008152508e61399d565b611981878561327690919063ffffffff16565b6040518363ffffffff167c010000000000000000000000000000000000000000000000000000000002815260040180836000191660001916815260200182815260200192505050600060405180830381600087803b1580156119e257600080fd5b505af11580156119f6573d6000803e3d6000fd5b50505050600160009054906101000a900473ffffffffffffffffffffffffffffffffffffffff1673ffffffffffffffffffffffffffffffffffffffff1663e2a4853a611a788d6040805190810160405280600681526020017f43484f494345000000000000000000000000000000000000000000000000000081525033613709565b8c6040518363ffffffff167c010000000000000000000000000000000000000000000000000000000002815260040180836000191660001916815260200182815260200192505050600060405180830381600087803b158015611ada57600080fd5b505af1158015611aee573d6000803e3d6000fd5b505050506001861415611bf457600160009054906101000a900473ffffffffffffffffffffffffffffffffffffffff1673ffffffffffffffffffffffffffffffffffffffff1663e2a4853a611b788d6040805190810160405280600681526020017f5354415455530000000000000000000000000000000000000000000000000000815250613628565b60026040518363ffffffff167c010000000000000000000000000000000000000000000000000000000002815260040180836000191660001916815260200182815260200192505050600060405180830381600087803b158015611bdb57600080fd5b505af1158015611bef573d6000803e3d6000fd5b505050505b8a3373ffffffffffffffffffffffffffffffffffffffff167f522b45c661375abb939dc17b4b600412c93af64fcbe24859a73539d01bb4eec860405160405180910390a35050505050505050505050565b6000806000806000600160009054906101000a900473ffffffffffffffffffffffffffffffffffffffff1673ffffffffffffffffffffffffffffffffffffffff1663bd02d0f5611cc96040805190810160405280600c81526020017f504f4c4c5f434f554e5445520000000000000000000000000000000000000000815250613a87565b6040518263ffffffff167c0100000000000000000000000000000000000000000000000000000000028152600401808260001916600019168152602001915050602060405180830381600087803b158015611d2357600080fd5b505af1158015611d37573d6000803e3d6000fd5b505050506040513d6020811015611d4d57600080fd5b81019080805190602001909291905050509350611d7460018561327690919063ffffffff16565b9450600160009054906101000a900473ffffffffffffffffffffffffffffffffffffffff1673ffffffffffffffffffffffffffffffffffffffff1663e2a4853a611df26040805190810160405280600c81526020017f504f4c4c5f434f554e5445520000000000000000000000000000000000000000815250613a87565b876040518363ffffffff167c010000000000000000000000000000000000000000000000000000000002815260040180836000191660001916815260200182815260200192505050600060405180830381600087803b158015611e5457600080fd5b505af1158015611e68573d6000803e3d6000fd5b50505050600160009054906101000a900473ffffffffffffffffffffffffffffffffffffffff1673ffffffffffffffffffffffffffffffffffffffff1663ca446dd9611ee9876040805190810160405280600581526020017f4f574e4552000000000000000000000000000000000000000000000000000000815250613628565b336040518363ffffffff167c01000000000000000000000000000000000000000000000000000000000281526004018083600019166000191681526020018273ffffffffffffffffffffffffffffffffffffffff1673ffffffffffffffffffffffffffffffffffffffff16815260200192505050600060405180830381600087803b158015611f7757600080fd5b505af1158015611f8b573d6000803e3d6000fd5b50505050611fa2884261327690919063ffffffff16565b9250611fb7878461327690919063ffffffff16565b9150611fcc868361327690919063ffffffff16565b9050600160009054906101000a900473ffffffffffffffffffffffffffffffffffffffff1673ffffffffffffffffffffffffffffffffffffffff1663e2a4853a61204b876040805190810160405280600681526020017f5354415455530000000000000000000000000000000000000000000000000000815250613628565b60016040518363ffffffff167c010000000000000000000000000000000000000000000000000000000002815260040180836000191660001916815260200182815260200192505050600060405180830381600087803b1580156120ae57600080fd5b505af11580156120c2573d6000803e3d6000fd5b50505050600160009054906101000a900473ffffffffffffffffffffffffffffffffffffffff1673ffffffffffffffffffffffffffffffffffffffff1663e2a4853a612143876040805190810160405280601181526020017f4144444f5054494f4e5f454e4444415445000000000000000000000000000000815250613628565b856040518363ffffffff167c010000000000000000000000000000000000000000000000000000000002815260040180836000191660001916815260200182815260200192505050600060405180830381600087803b1580156121a557600080fd5b505af11580156121b9573d6000803e3d6000fd5b50505050600160009054906101000a900473ffffffffffffffffffffffffffffffffffffffff1673ffffffffffffffffffffffffffffffffffffffff1663e2a4853a61223a876040805190810160405280600e81526020017f434f4d4d49545f454e4444415445000000000000000000000000000000000000815250613628565b846040518363ffffffff167c010000000000000000000000000000000000000000000000000000000002815260040180836000191660001916815260200182815260200192505050600060405180830381600087803b15801561229c57600080fd5b505af11580156122b0573d6000803e3d6000fd5b50505050600160009054906101000a900473ffffffffffffffffffffffffffffffffffffffff1673ffffffffffffffffffffffffffffffffffffffff1663e2a4853a612331876040805190810160405280600e81526020017f52455645414c5f454e4444415445000000000000000000000000000000000000815250613628565b836040518363ffffffff167c010000000000000000000000000000000000000000000000000000000002815260040180836000191660001916815260200182815260200192505050600060405180830381600087803b15801561239357600080fd5b505af11580156123a7573d6000803e3d6000fd5b505050506123b5858a613b5f565b503373ffffffffffffffffffffffffffffffffffffffff16857f2ee249e80f49d04a4beade589f2f9f21eef3aeda8f13fab333d1ab92b4869e3a60405160405180910390a384945050505050949350505050565b6000806000600360009054906101000a900473ffffffffffffffffffffffffffffffffffffffff1673ffffffffffffffffffffffffffffffffffffffff1663b85fb20f866040518263ffffffff167c01000000000000000000000000000000000000000000000000000000000281526004018082815260200191505060a060405180830381600087803b15801561249f57600080fd5b505af11580156124b3573d6000803e3d6000fd5b505050506040513d60a08110156124c957600080fd5b8101908080519060200190929190805190602001909291908051906020019092919080519060200190929190805190602001909291905050505050509150915060018214151561251857600080fd5b3373ffffffffffffffffffffffffffffffffffffffff168173ffffffffffffffffffffffffffffffffffffffff1614151561255257600080fd5b42600160009054906101000a900473ffffffffffffffffffffffffffffffffffffffff1673ffffffffffffffffffffffffffffffffffffffff1663bd02d0f56125d0886040805190810160405280601181526020017f4144444f5054494f4e5f454e4444415445000000000000000000000000000000815250613628565b6040518263ffffffff167c0100000000000000000000000000000000000000000000000000000000028152600401808260001916600019168152602001915050602060405180830381600087803b15801561262a57600080fd5b505af115801561263e573d6000803e3d6000fd5b505050506040513d602081101561265457600080fd5b810190808051906020019092919050505011151561267157600080fd5b61267b8585613b5f565b9250505092915050565b6000600160009054906101000a900473ffffffffffffffffffffffffffffffffffffffff1673ffffffffffffffffffffffffffffffffffffffff1663bd02d0f5612704336040805190810160405280600b81526020017f5354414b45445f564f544500000000000000000000000000000000000000000081525061315a565b6040518263ffffffff167c0100000000000000000000000000000000000000000000000000000000028152600401808260001916600019168152602001915050602060405180830381600087803b15801561275e57600080fd5b505af1158015612772573d6000803e3d6000fd5b505050506040513d602081101561278857600080fd5b810190808051906020019092919050505090506000811115156127aa57600080fd5b6000821115156127b957600080fd5b8082111515156127c857600080fd5b600160009054906101000a900473ffffffffffffffffffffffffffffffffffffffff1673ffffffffffffffffffffffffffffffffffffffff1663e2a4853a612845336040805190810160405280600b81526020017f5354414b45445f564f544500000000000000000000000000000000000000000081525061315a565b612858858561416490919063ffffffff16565b6040518363ffffffff167c010000000000000000000000000000000000000000000000000000000002815260040180836000191660001916815260200182815260200192505050600060405180830381600087803b1580156128b957600080fd5b505af11580156128cd573d6000803e3d6000fd5b505050503373ffffffffffffffffffffffffffffffffffffffff167f2c88837e03c4eee367d64fb379bbf7dad76a371c52622230bcf8b79728b9c532836040518082815260200191505060405180910390a25050565b600073ffffffffffffffffffffffffffffffffffffffff166000809054906101000a900473ffffffffffffffffffffffffffffffffffffffff1673ffffffffffffffffffffffffffffffffffffffff161415156129d6576000809054906101000a900473ffffffffffffffffffffffffffffffffffffffff1673ffffffffffffffffffffffffffffffffffffffff163373ffffffffffffffffffffffffffffffffffffffff161415156129d557600080fd5b5b6129df8161417d565b50565b600080600080600160009054906101000a900473ffffffffffffffffffffffffffffffffffffffff1673ffffffffffffffffffffffffffffffffffffffff1663bd02d0f5612a65896040805190810160405280600681526020017f5354415455530000000000000000000000000000000000000000000000000000815250613628565b6040518263ffffffff167c0100000000000000000000000000000000000000000000000000000000028152600401808260001916600019168152602001915050602060405180830381600087803b158015612abf57600080fd5b505af1158015612ad3573d6000803e3d6000fd5b505050506040513d6020811015612ae957600080fd5b81019080805190602001909291905050509350600184141515612b0b57600080fd5b600360009054906101000a900473ffffffffffffffffffffffffffffffffffffffff1673ffffffffffffffffffffffffffffffffffffffff1663b85fb20f886040518263ffffffff167c01000000000000000000000000000000000000000000000000000000000281526004018082815260200191505060a060405180830381600087803b158015612b9c57600080fd5b505af1158015612bb0573d6000803e3d6000fd5b505050506040513d60a0811015612bc657600080fd5b810190808051906020019092919080519060200190929190805190602001909291908051906020019092919080519060200190929190505050509450945050504283101515612c1457600080fd5b4282111515612c2257600080fd5b6000600102866000191614151515612c3957600080fd5b600160009054906101000a900473ffffffffffffffffffffffffffffffffffffffff1673ffffffffffffffffffffffffffffffffffffffff1663bd02d0f5612cb6336040805190810160405280600b81526020017f5354414b45445f564f544500000000000000000000000000000000000000000081525061315a565b6040518263ffffffff167c0100000000000000000000000000000000000000000000000000000000028152600401808260001916600019168152602001915050602060405180830381600087803b158015612d1057600080fd5b505af1158015612d24573d6000803e3d6000fd5b505050506040513d6020811015612d3a57600080fd5b8101908080519060200190929190505050905084811015612d7157612d70612d6b828761416490919063ffffffff16565b610cad565b5b84600160009054906101000a900473ffffffffffffffffffffffffffffffffffffffff1673ffffffffffffffffffffffffffffffffffffffff1663bd02d0f5612def336040805190810160405280600b81526020017f5354414b45445f564f544500000000000000000000000000000000000000000081525061315a565b6040518263ffffffff167c0100000000000000000000000000000000000000000000000000000000028152600401808260001916600019168152602001915050602060405180830381600087803b158015612e4957600080fd5b505af1158015612e5d573d6000803e3d6000fd5b505050506040513d6020811015612e7357600080fd5b810190808051906020019092919050505010151515612e9157600080fd5b600160009054906101000a900473ffffffffffffffffffffffffffffffffffffffff1673ffffffffffffffffffffffffffffffffffffffff16632e28d084612f0f896040805190810160405280600b81526020017f5345435245545f4841534800000000000000000000000000000000000000000081525033613709565b886040516020018082600019166000191681526020019150506040516020818303038152906040526040518363ffffffff167c010000000000000000000000000000000000000000000000000000000002815260040180836000191660001916815260200180602001828103825283818151815260200191508051906020019080838360005b83811015612fb0578082015181840152602081019050612f95565b50505050905090810190601f168015612fdd5780820380516001836020036101000a031916815260200191505b509350505050600060405180830381600087803b158015612ffd57600080fd5b505af1158015613011573d6000803e3d6000fd5b50505050600160009054906101000a900473ffffffffffffffffffffffffffffffffffffffff1673ffffffffffffffffffffffffffffffffffffffff1663e2a4853a613093896040805190810160405280600581526020017f564f54455300000000000000000000000000000000000000000000000000000081525033613709565b876040518363ffffffff167c010000000000000000000000000000000000000000000000000000000002815260040180836000191660001916815260200182815260200192505050600060405180830381600087803b1580156130f557600080fd5b505af1158015613109573d6000803e3d6000fd5b50505050863373ffffffffffffffffffffffffffffffffffffffff167f3046f96b48725cd236ed445f0652eaf510e9be81e3dbdc79e65a143b6c89ae0460405160405180910390a350505050505050565b60008282604051602001808373ffffffffffffffffffffffffffffffffffffffff1673ffffffffffffffffffffffffffffffffffffffff166c0100000000000000000000000002815260140182805190602001908083835b6020831015156131d757805182526020820191506020810190506020830392506131b2565b6001836020036101000a038019825116818451168082178552505050505050905001925050506040516020818303038152906040526040518082805190602001908083835b602083101515613241578051825260208201915060208101905060208303925061321c565b6001836020036101000a0380198251168184511680821785525050505050509050019150506040518091039020905092915050565b6000818301905082811015151561328957fe5b80905092915050565b6000600160009054906101000a900473ffffffffffffffffffffffffffffffffffffffff1673ffffffffffffffffffffffffffffffffffffffff1663e2a4853a613311846040805190810160405280600681526020017f5354415455530000000000000000000000000000000000000000000000000000815250613628565b60006040518363ffffffff167c010000000000000000000000000000000000000000000000000000000002815260040180836000191660001916815260200182815260200192505050600060405180830381600087803b15801561337457600080fd5b505af1158015613388573d6000803e3d6000fd5b505050506001905060011515827f29cbd7f82d79fd179310d3da16de50c62c2972294874de79c07bb06b05deb74960405160405180910390a3919050565b6000600160009054906101000a900473ffffffffffffffffffffffffffffffffffffffff1673ffffffffffffffffffffffffffffffffffffffff1663e2a4853a613445866040805190810160405280600e81526020017f434f4d4d49545f454e4444415445000000000000000000000000000000000000815250613628565b613458864261327690919063ffffffff16565b6040518363ffffffff167c010000000000000000000000000000000000000000000000000000000002815260040180836000191660001916815260200182815260200192505050600060405180830381600087803b1580156134b957600080fd5b505af11580156134cd573d6000803e3d6000fd5b50505050600160009054906101000a900473ffffffffffffffffffffffffffffffffffffffff1673ffffffffffffffffffffffffffffffffffffffff1663e2a4853a61354e866040805190810160405280600e81526020017f52455645414c5f454e4444415445000000000000000000000000000000000000815250613628565b61357385613565884261327690919063ffffffff16565b61327690919063ffffffff16565b6040518363ffffffff167c010000000000000000000000000000000000000000000000000000000002815260040180836000191660001916815260200182815260200192505050600060405180830381600087803b1580156135d457600080fd5b505af11580156135e8573d6000803e3d6000fd5b505050506001905060001515847f29cbd7f82d79fd179310d3da16de50c62c2972294874de79c07bb06b05deb74960405160405180910390a39392505050565b600082826040516020018083815260200182805190602001908083835b60208310151561366a5780518252602082019150602081019050602083039250613645565b6001836020036101000a038019825116818451168082178552505050505050905001925050506040516020818303038152906040526040518082805190602001908083835b6020831015156136d457805182526020820191506020810190506020830392506136af565b6001836020036101000a0380198251168184511680821785525050505050509050019150506040518091039020905092915050565b60008383836040516020018084815260200183805190602001908083835b60208310151561374c5780518252602082019150602081019050602083039250613727565b6001836020036101000a0380198251168184511680821785525050505050509050018273ffffffffffffffffffffffffffffffffffffffff1673ffffffffffffffffffffffffffffffffffffffff166c0100000000000000000000000002815260140193505050506040516020818303038152906040526040518082805190602001908083835b6020831015156137f857805182526020820191506020810190506020830392506137d3565b6001836020036101000a038019825116818451168082178552505050505050905001915050604051809103902090509392505050565b6000828260405160200180838152602001828152602001925050506040516020818303038152906040526040518082805190602001908083835b60208310151561388d5780518252602082019150602081019050602083039250613868565b6001836020036101000a0380198251168184511680821785525050505050509050019150506040518091039020905092915050565b60008060008090505b6020811015613993576008810260ff7f010000000000000000000000000000000000000000000000000000000000000002858381518110151561390a57fe5b9060200101517f010000000000000000000000000000000000000000000000000000000000000090047f010000000000000000000000000000000000000000000000000000000000000002167effffffffffffffffffffffffffffffffffffffffffffffffffffffffffffff1916600019169060020a90048217915080806001019150506138cb565b8192505050919050565b60008383836040516020018084815260200183805190602001908083835b6020831015156139e057805182526020820191506020810190506020830392506139bb565b6001836020036101000a03801982511681845116808217855250505050505090500182815260200193505050506040516020818303038152906040526040518082805190602001908083835b602083101515613a515780518252602082019150602081019050602083039250613a2c565b6001836020036101000a038019825116818451168082178552505050505050905001915050604051809103902090509392505050565b6000816040516020018082805190602001908083835b602083101515613ac25780518252602082019150602081019050602083039250613a9d565b6001836020036101000a0380198251168184511680821785525050505050509050019150506040516020818303038152906040526040518082805190602001908083835b602083101515613b2b5780518252602082019150602081019050602083039250613b06565b6001836020036101000a03801982511681845116808217855250505050505090500191505060405180910390209050919050565b6000806000600160009054906101000a900473ffffffffffffffffffffffffffffffffffffffff1673ffffffffffffffffffffffffffffffffffffffff1663bd02d0f5613be2876040805190810160405280600681526020017f4f5054494f4e000000000000000000000000000000000000000000000000000081525088614277565b6040518263ffffffff167c0100000000000000000000000000000000000000000000000000000000028152600401808260001916600019168152602001915050602060405180830381600087803b158015613c3c57600080fd5b505af1158015613c50573d6000803e3d6000fd5b505050506040513d6020811015613c6657600080fd5b8101908080519060200190929190505050141515613c8357600080fd5b613da760018060009054906101000a900473ffffffffffffffffffffffffffffffffffffffff1673ffffffffffffffffffffffffffffffffffffffff1663bd02d0f5613d04886040805190810160405280600e81526020017f4f5054494f4e5f434f554e544552000000000000000000000000000000000000815250613628565b6040518263ffffffff167c0100000000000000000000000000000000000000000000000000000000028152600401808260001916600019168152602001915050602060405180830381600087803b158015613d5e57600080fd5b505af1158015613d72573d6000803e3d6000fd5b505050506040513d6020811015613d8857600080fd5b810190808051906020019092919050505061327690919063ffffffff16565b9050600160009054906101000a900473ffffffffffffffffffffffffffffffffffffffff1673ffffffffffffffffffffffffffffffffffffffff1663e2a4853a613e26866040805190810160405280600e81526020017f4f5054494f4e5f434f554e544552000000000000000000000000000000000000815250613628565b836040518363ffffffff167c010000000000000000000000000000000000000000000000000000000002815260040180836000191660001916815260200182815260200192505050600060405180830381600087803b158015613e8857600080fd5b505af1158015613e9c573d6000803e3d6000fd5b50505050600160009054906101000a900473ffffffffffffffffffffffffffffffffffffffff1673ffffffffffffffffffffffffffffffffffffffff16632e28d084613f1e866040805190810160405280600981526020017f495046535f4841534800000000000000000000000000000000000000000000008152508561399d565b856040518363ffffffff167c010000000000000000000000000000000000000000000000000000000002815260040180836000191660001916815260200180602001828103825283818151815260200191508051906020019080838360005b83811015613f98578082015181840152602081019050613f7d565b50505050905090810190601f168015613fc55780820380516001836020036101000a031916815260200191505b509350505050600060405180830381600087803b158015613fe557600080fd5b505af1158015613ff9573d6000803e3d6000fd5b50505050600160009054906101000a900473ffffffffffffffffffffffffffffffffffffffff1673ffffffffffffffffffffffffffffffffffffffff1663ca446dd961407b866040805190810160405280600781526020017f43524541544f52000000000000000000000000000000000000000000000000008152508561399d565b336040518363ffffffff167c01000000000000000000000000000000000000000000000000000000000281526004018083600019166000191681526020018273ffffffffffffffffffffffffffffffffffffffff1673ffffffffffffffffffffffffffffffffffffffff16815260200192505050600060405180830381600087803b15801561410957600080fd5b505af115801561411d573d6000803e3d6000fd5b5050505060019150837f43cd2b17fba6147abb930490d08cc7aa4cc51ac3a89b5166e909f60841dfa836826040518082815260200191505060405180910390a25092915050565b600082821115151561417257fe5b818303905092915050565b600073ffffffffffffffffffffffffffffffffffffffff168173ffffffffffffffffffffffffffffffffffffffff16141515156141b957600080fd5b8073ffffffffffffffffffffffffffffffffffffffff166000809054906101000a900473ffffffffffffffffffffffffffffffffffffffff1673ffffffffffffffffffffffffffffffffffffffff167f8be0079c531659141344cd1fd0a4f28419497f9722a3daafe3b4186f6b6457e060405160405180910390a3806000806101000a81548173ffffffffffffffffffffffffffffffffffffffff021916908373ffffffffffffffffffffffffffffffffffffffff16021790555050565b60008383836040516020018084815260200183805190602001908083835b6020831015156142ba5780518252602082019150602081019050602083039250614295565b6001836020036101000a03801982511681845116808217855250505050505090500182805190602001908083835b60208310151561430d57805182526020820191506020810190506020830392506142e8565b6001836020036101000a03801982511681845116808217855250505050505090500193505050506040516020818303038152906040526040518082805190602001908083835b6020831015156143785780518252602082019150602081019050602083039250614353565b6001836020036101000a0380198251168184511680821785525050505050509050019150506040518091039020905093925050505600a165627a7a723058204e4a5badb97eb4e5c39b0f49e7a510adfba48a62443b8554dbc4e539fb0df5350029",
  "source": "  /**\n * Created on 2018-08-13 10:20\n * @summary: \n * @author: Chris Nguyen\n */\npragma solidity ^0.4.24;\n\nimport './BBStandard.sol';\nimport './BBLib.sol';\nimport './BBVotingHelper.sol';\n/**\n * @title BBVoting contract \n */\ncontract BBVoting is BBStandard{\n  BBVotingHelper public helper = BBVotingHelper(0x0);\n  function setHelper(address _helper) onlyOwner public {\n    helper = BBVotingHelper(_helper);\n  }\n\n  event PollStarted(uint256 indexed pollID, address indexed creator);\n  event PollUpdated(uint256 indexed pollID,bool indexed isCancel);\n  event PollOptionAdded(uint256 indexed pollID, uint256 optionID);\n\n  event VotingRightsGranted(address indexed voter, uint256 numTokens);\n  event VotingRightsWithdrawn(address indexed voter, uint256 numTokens);\n\n  event VoteCommitted(address indexed voter, uint256 indexed pollID);\n  event VoteRevealed(address indexed voter, uint256 indexed pollID);\n  \n  /**\n   * @dev request voting rights\n   * \n   */\n  function requestVotingRights(uint256 numTokens) public {\n    //require(bbo.balanceOf(msg.sender) >= numTokens);\n    uint256 voteTokenBalance = bbs.getUint(BBLib.toB32(msg.sender,'STAKED_VOTE'));\n    //require(bbo.transferFrom(msg.sender, address(this), numTokens));\n    bbs.setUint(BBLib.toB32(msg.sender,'STAKED_VOTE'), voteTokenBalance.add(numTokens));\n    emit VotingRightsGranted(msg.sender, numTokens);\n  }\n  \n  /**\n   * @dev withdraw voting rights\n   * \n   */\n  function withdrawVotingRights(uint256 numTokens) public \n  {\n    uint256 voteTokenBalance = bbs.getUint(BBLib.toB32(msg.sender,'STAKED_VOTE'));\n    require (voteTokenBalance > 0);\n    require (numTokens > 0);\n    require (numTokens<= voteTokenBalance);\n    bbs.setUint(BBLib.toB32(msg.sender,'STAKED_VOTE'), voteTokenBalance.sub(numTokens));\n    //require(bbo.transfer(msg.sender, numTokens));\n    emit VotingRightsWithdrawn(msg.sender, numTokens);\n  }\n\n\n  /**\n   * @dev commitVote for poll\n   * @param pollID Job Hash\n   * @param secretHash Hash of Choice address and salt uint\n   */\n  function commitVote(uint256 pollID, bytes32 secretHash, uint256 tokens) public \n  {\n    //uint256 minVotes = bbs.getUint(keccak256('MIN_VOTES'));\n    //uint256 maxVotes = bbs.getUint(keccak256('MAX_VOTES'));\n    uint256 pollStatus = bbs.getUint(BBLib.toB32(pollID,'STATUS'));\n    require(pollStatus == 1);\n    //require(tokens >= minVotes);\n    //require(tokens <= maxVotes);\n    (,,uint256 addPollOptionEndDate,uint256 commitEndDate,) = helper.getPollStage(pollID);\n    \n    require(addPollOptionEndDate<now);\n    require(commitEndDate>now);\n    require(secretHash != 0);\n    \n    uint256 voteTokenBalance = bbs.getUint(BBLib.toB32(msg.sender,'STAKED_VOTE'));\n    if(voteTokenBalance<tokens){\n      requestVotingRights(tokens.sub(voteTokenBalance));\n    }\n    require(bbs.getUint(BBLib.toB32(msg.sender,'STAKED_VOTE')) >= tokens);\n    // add secretHash\n\n    bbs.setBytes(BBLib.toB32(pollID ,'SECRET_HASH',msg.sender), abi.encodePacked(secretHash));\n    bbs.setUint(BBLib.toB32(pollID ,'VOTES', msg.sender), tokens);\n    \n    emit VoteCommitted(msg.sender, pollID);\n  }\n\n\n  /**\n  * @dev revealVote for poll\n  * @param pollID Job Hash\n  * @param choice uint \n  * @param salt salt\n  */\n  function revealVote(uint256 pollID, uint choice, uint salt) public \n  {\n    (,,,uint256 commitEndDate, uint256 revealEndDate) = helper.getPollStage(pollID);\n    require(commitEndDate<now);\n    require(revealEndDate>now);\n    uint256 pollStatus = bbs.getUint(BBLib.toB32(pollID,'STATUS'));\n    require(pollStatus >= 1);\n    uint256 voteTokenBalance = bbs.getUint(BBLib.toB32(msg.sender,'STAKED_VOTE'));\n    uint256 votes = bbs.getUint(BBLib.toB32(pollID,'VOTES',msg.sender));\n    // check staked vote\n    require(voteTokenBalance>= votes);\n\n    bytes32 choiceHash = BBLib.toB32(choice,salt);\n\n    bytes32 secretHash = BBLib.bytesToBytes32(bbs.getBytes(BBLib.toB32(pollID,'SECRET_HASH',msg.sender)));\n    require(choiceHash == secretHash);\n    // make sure not reveal yet\n    require(bbs.getUint(BBLib.toB32(pollID,'CHOICE',msg.sender)) == 0x0);\n    uint256 numVote = bbs.getUint(BBLib.toB32(pollID,'VOTE_FOR',choice));\n    //save result poll\n    bbs.setUint(BBLib.toB32(pollID,'VOTE_FOR',choice), numVote.add(votes));\n    // save voter choice\n    bbs.setUint(BBLib.toB32(pollID,'CHOICE',msg.sender), choice);\n    // set has vote flag \n    if(pollStatus == 1)\n      bbs.setUint(BBLib.toB32(pollID,'STATUS'), 2);\n    emit VoteRevealed(msg.sender, pollID);\n  }\n\n\n  function updatePoll(uint256 pollID, bool isCancel, uint256 commitDuration,uint256 revealDuration) public returns(bool success) {\n    (uint256 pollStatus, address creator,,,uint256 revealEndDate) = helper.getPollStage(pollID);\n    require(pollStatus == 1);\n    require(revealEndDate < now);\n    require(creator == msg.sender);\n    if(isCancel){\n      return _doCancel(pollID);\n    }else{\n      return _doExtendPoll(pollID, commitDuration, revealDuration);\n    }\n  }\n\n  function _doCancel(uint256 pollID) private returns(bool success){\n    // TODO here\n    // set status to 0\n    bbs.setUint(BBLib.toB32(pollID,'STATUS'), 0);\n    success = true;\n    emit PollUpdated(pollID, true );\n\n  }\n\n  function _doExtendPoll(uint256 pollID, uint256 commitDuration,uint256 revealDuration) private returns(bool success){\n    bbs.setUint(BBLib.toB32(pollID,'COMMIT_ENDDATE'), block.timestamp.add(commitDuration));\n    bbs.setUint(BBLib.toB32(pollID,'REVEAL_ENDDATE'), block.timestamp.add(commitDuration).add(revealDuration));\n    success = true;\n    emit PollUpdated(pollID, false);\n  }\n\n  function startPoll(bytes extraData, uint256 addOptionDuration, uint256 commitDuration,uint256 revealDuration) public returns(uint256 pollID) {    \n    uint256 latestID  = bbs.getUint(BBLib.toB32('POLL_COUNTER'));\n    pollID = latestID.add(1);\n    bbs.setUint(BBLib.toB32('POLL_COUNTER'), pollID);\n    // save startPoll address\n    bbs.setAddress(BBLib.toB32(pollID, 'OWNER'), msg.sender);\n    // addPollOptionEndDate\n    uint256 addPollOptionEndDate = block.timestamp.add(addOptionDuration);\n    // commitEndDate\n    uint256 commitEndDate = addPollOptionEndDate.add(commitDuration);\n    // revealEndDate\n    uint256 revealEndDate = commitEndDate.add(revealDuration);\n    // save addPollOption, commit, reveal EndDate\n    bbs.setUint(BBLib.toB32(pollID,'STATUS'), 1);\n    bbs.setUint(BBLib.toB32(pollID,'ADDOPTION_ENDDATE'), addPollOptionEndDate);\n    bbs.setUint(BBLib.toB32(pollID,'COMMIT_ENDDATE'), commitEndDate);\n    bbs.setUint(BBLib.toB32(pollID,'REVEAL_ENDDATE'), revealEndDate);\n\n    _doAddPollOption(pollID, extraData);\n\n    emit PollStarted(pollID, msg.sender);\n    return pollID;\n  }\n  \n  function addPollOption(uint256 pollID, bytes pollOption) public returns(bool success){\n    (uint256 pollStatus, address creator,,,) = helper.getPollStage(pollID);\n    require(pollStatus == 1);\n    require(creator == msg.sender);\n    //todo check msg.sender\n    require(bbs.getUint(BBLib.toB32(pollID,'ADDOPTION_ENDDATE')) > now);\n    return _doAddPollOption(pollID, pollOption);\n  }\n  \n  function _doAddPollOption(uint256 pollID, bytes optionHashIPFS) private  returns(bool success){\n    // check optionID make sure this hash not saved yet\n    require(bbs.getUint(BBLib.toB32(pollID, 'OPTION', optionHashIPFS))== 0x0);\n    // get latestID + 1 for new ID\n    uint256 optionID = bbs.getUint(BBLib.toB32(pollID, 'OPTION_COUNTER')).add(1);\n    // save latestID\n    bbs.setUint(BBLib.toB32(pollID, 'OPTION_COUNTER'), optionID);\n    // save option\n    bbs.setBytes(BBLib.toB32(pollID, 'IPFS_HASH', optionID), optionHashIPFS);\n    bbs.setAddress(BBLib.toB32(pollID, 'CREATOR', optionID), msg.sender);\n    success = true;\n    emit PollOptionAdded(pollID, optionID);\n  }\n  \n}\n",
  "sourcePath": "/Users/trantho/Code/SmartContract/digital-contracts/src/contracts/BBVoting.sol",
  "compiler": {
    "name": "solc",
    "version": "0.4.24+commit.e67f0147.Emscripten.clang"
  },
  "schemaVersion": "2.0.1",
  "updatedAt": "2018-12-22T03:21:10.403Z"
}