{
  "contractName": "BigbomDigitalContract",
  "abi": [
    {
      "constant": false,
      "inputs": [],
      "name": "renounceOwnership",
      "outputs": [],
      "payable": false,
      "stateMutability": "nonpayable",
      "type": "function"
    },
    {
      "constant": true,
      "inputs": [],
      "name": "owner",
      "outputs": [
        {
          "name": "",
          "type": "address"
        }
      ],
      "payable": false,
      "stateMutability": "view",
      "type": "function"
    },
    {
      "constant": false,
      "inputs": [
        {
          "name": "_newOwner",
          "type": "address"
        }
      ],
      "name": "transferOwnership",
      "outputs": [],
      "payable": false,
      "stateMutability": "nonpayable",
      "type": "function"
    },
    {
      "anonymous": false,
      "inputs": [
        {
          "indexed": false,
          "name": "bboDocHash",
          "type": "bytes"
        },
        {
          "indexed": true,
          "name": "user",
          "type": "address"
        }
      ],
      "name": "BBODocumentSigned",
      "type": "event"
    },
    {
      "anonymous": false,
      "inputs": [
        {
          "indexed": true,
          "name": "previousOwner",
          "type": "address"
        }
      ],
      "name": "OwnershipRenounced",
      "type": "event"
    },
    {
      "anonymous": false,
      "inputs": [
        {
          "indexed": true,
          "name": "previousOwner",
          "type": "address"
        },
        {
          "indexed": true,
          "name": "newOwner",
          "type": "address"
        }
      ],
      "name": "OwnershipTransferred",
      "type": "event"
    },
    {
      "constant": false,
      "inputs": [
        {
          "name": "storageAddress",
          "type": "address"
        }
      ],
      "name": "setStorage",
      "outputs": [],
      "payable": false,
      "stateMutability": "nonpayable",
      "type": "function"
    },
    {
      "constant": false,
      "inputs": [],
      "name": "getStorage",
      "outputs": [
        {
          "name": "",
          "type": "address"
        }
      ],
      "payable": false,
      "stateMutability": "nonpayable",
      "type": "function"
    },
    {
      "constant": true,
      "inputs": [
        {
          "name": "bboDocHash",
          "type": "bytes"
        },
        {
          "name": "userSign",
          "type": "bytes"
        }
      ],
      "name": "verifyBBODocument",
      "outputs": [
        {
          "name": "",
          "type": "bool"
        }
      ],
      "payable": false,
      "stateMutability": "view",
      "type": "function"
    },
    {
      "constant": true,
      "inputs": [
        {
          "name": "bboDocHash",
          "type": "bytes"
        }
      ],
      "name": "getAddressesByDocHash",
      "outputs": [
        {
          "name": "",
          "type": "address[]"
        },
        {
          "name": "",
          "type": "bool[]"
        }
      ],
      "payable": false,
      "stateMutability": "view",
      "type": "function"
    },
    {
      "constant": true,
      "inputs": [
        {
          "name": "addr",
          "type": "address"
        }
      ],
      "name": "getDocuments",
      "outputs": [
        {
          "name": "",
          "type": "bytes"
        },
        {
          "name": "",
          "type": "uint256[]"
        }
      ],
      "payable": false,
      "stateMutability": "view",
      "type": "function"
    },
    {
      "constant": false,
      "inputs": [
        {
          "name": "bboDocHash",
          "type": "bytes"
        },
        {
          "name": "userSign",
          "type": "bytes"
        },
        {
          "name": "pendingAddresses",
          "type": "address[]"
        },
        {
          "name": "expiredTimestamp",
          "type": "uint256"
        }
      ],
      "name": "createAndSignBBODocument",
      "outputs": [],
      "payable": false,
      "stateMutability": "nonpayable",
      "type": "function"
    },
    {
      "constant": false,
      "inputs": [
        {
          "name": "bboDocHash",
          "type": "bytes"
        },
        {
          "name": "userSign",
          "type": "bytes"
        }
      ],
      "name": "signBBODocument",
      "outputs": [],
      "payable": false,
      "stateMutability": "nonpayable",
      "type": "function"
    }
  ],
  "bytecode": "0x60806040526000600160006101000a81548173ffffffffffffffffffffffffffffffffffffffff021916908373ffffffffffffffffffffffffffffffffffffffff160217905550336000806101000a81548173ffffffffffffffffffffffffffffffffffffffff021916908373ffffffffffffffffffffffffffffffffffffffff16021790555061417b806100956000396000f3006080604052600436106100a4576000357c0100000000000000000000000000000000000000000000000000000000900463ffffffff16806327f50a2d146100a95780633408f73a146101ad5780635b95f65e14610204578063715018a61461030a5780638da5cb5b146103215780639137c1a714610378578063b8aac3a5146103bb578063dac1182e146104b7578063f2fde38b14610566578063f686fa10146105a9575b600080fd5b3480156100b557600080fd5b506100ea600480360381019080803573ffffffffffffffffffffffffffffffffffffffff169060200190929190505050610670565b604051808060200180602001838103835285818151815260200191508051906020019080838360005b8381101561012e578082015181840152602081019050610113565b50505050905090810190601f16801561015b5780820380516001836020036101000a031916815260200191505b50838103825284818151815260200191508051906020019060200280838360005b8381101561019757808201518184015260208101905061017c565b5050505090500194505050505060405180910390f35b3480156101b957600080fd5b506101c2610db0565b604051808273ffffffffffffffffffffffffffffffffffffffff1673ffffffffffffffffffffffffffffffffffffffff16815260200191505060405180910390f35b34801561021057600080fd5b5061026b600480360381019080803590602001908201803590602001908080601f0160208091040260200160405190810160405280939291908181526020018383808284378201915050505050509192919290505050610e35565b604051808060200180602001838103835285818151815260200191508051906020019060200280838360005b838110156102b2578082015181840152602081019050610297565b50505050905001838103825284818151815260200191508051906020019060200280838360005b838110156102f45780820151818401526020810190506102d9565b5050505090500194505050505060405180910390f35b34801561031657600080fd5b5061031f6117c8565b005b34801561032d57600080fd5b506103366118ca565b604051808273ffffffffffffffffffffffffffffffffffffffff1673ffffffffffffffffffffffffffffffffffffffff16815260200191505060405180910390f35b34801561038457600080fd5b506103b9600480360381019080803573ffffffffffffffffffffffffffffffffffffffff1690602001909291905050506118ef565b005b3480156103c757600080fd5b506104b5600480360381019080803590602001908201803590602001908080601f0160208091040260200160405190810160405280939291908181526020018383808284378201915050505050509192919290803590602001908201803590602001908080601f0160208091040260200160405190810160405280939291908181526020018383808284378201915050505050509192919290803590602001908201803590602001908080602002602001604051908101604052809392919081815260200183836020028082843782019150505050505091929192908035906020019092919050505061198e565b005b3480156104c357600080fd5b50610564600480360381019080803590602001908201803590602001908080601f0160208091040260200160405190810160405280939291908181526020018383808284378201915050505050509192919290803590602001908201803590602001908080601f0160208091040260200160405190810160405280939291908181526020018383808284378201915050505050509192919290505050612964565b005b34801561057257600080fd5b506105a7600480360381019080803573ffffffffffffffffffffffffffffffffffffffff169060200190929190505050613393565b005b3480156105b557600080fd5b50610656600480360381019080803590602001908201803590602001908080601f0160208091040260200160405190810160405280939291908181526020018383808284378201915050505050509192919290803590602001908201803590602001908080601f0160208091040260200160405190810160405280939291908181526020018383808284378201915050505050509192919290505050613452565b604051808215151515815260200191505060405180910390f35b6060806060600060606000606060206040519081016040528060008152509450600160009054906101000a900473ffffffffffffffffffffffffffffffffffffffff1673ffffffffffffffffffffffffffffffffffffffff1663bd02d0f589604051602001808273ffffffffffffffffffffffffffffffffffffffff1673ffffffffffffffffffffffffffffffffffffffff166c010000000000000000000000000281526014019150506040516020818303038152906040526040518082805190602001908083835b60208310151561075e5780518252602082019150602081019050602083039250610739565b6001836020036101000a03801982511681845116808217855250505050505090500191505060405180910390206040518263ffffffff167c0100000000000000000000000000000000000000000000000000000000028152600401808260001916600019168152602001915050602060405180830381600087803b1580156107e557600080fd5b505af11580156107f9573d6000803e3d6000fd5b505050506040513d602081101561080f57600080fd5b81019080805190602001909291905050509350836040519080825280602002602001820160405280156108515781602001602082028038833980820191505090505b509250600191505b8382111515610da057600160009054906101000a900473ffffffffffffffffffffffffffffffffffffffff1673ffffffffffffffffffffffffffffffffffffffff1663c031a1808984604051602001808373ffffffffffffffffffffffffffffffffffffffff1673ffffffffffffffffffffffffffffffffffffffff166c01000000000000000000000000028152601401828152602001925050506040516020818303038152906040526040518082805190602001908083835b6020831015156109385780518252602082019150602081019050602083039250610913565b6001836020036101000a03801982511681845116808217855250505050505090500191505060405180910390206040518263ffffffff167c0100000000000000000000000000000000000000000000000000000000028152600401808260001916600019168152602001915050600060405180830381600087803b1580156109bf57600080fd5b505af11580156109d3573d6000803e3d6000fd5b505050506040513d6000823e3d601f19601f8201168201806040525060208110156109fd57600080fd5b810190808051640100000000811115610a1557600080fd5b82810190506020810184811115610a2b57600080fd5b8151856001820283011164010000000082111715610a4857600080fd5b5050929190505050905084816040516020018082805190602001908083835b602083101515610a8c5780518252602082019150602081019050602083039250610a67565b6001836020036101000a038019825116818451168082178552505050505050905001807f2c000000000000000000000000000000000000000000000000000000000000008152506001019150506040516020818303038152906040526040516020018083805190602001908083835b602083101515610b205780518252602082019150602081019050602083039250610afb565b6001836020036101000a03801982511681845116808217855250505050505090500182805190602001908083835b602083101515610b735780518252602082019150602081019050602083039250610b4e565b6001836020036101000a038019825116818451168082178552505050505050905001925050506040516020818303038152906040529450600160009054906101000a900473ffffffffffffffffffffffffffffffffffffffff1673ffffffffffffffffffffffffffffffffffffffff1663bd02d0f5826040516020018082805190602001908083835b602083101515610c215780518252602082019150602081019050602083039250610bfc565b6001836020036101000a038019825116818451168082178552505050505050905001807f6578706972656454696d657374616d70000000000000000000000000000000008152506010019150506040516020818303038152906040526040518082805190602001908083835b602083101515610cb25780518252602082019150602081019050602083039250610c8d565b6001836020036101000a03801982511681845116808217855250505050505090500191505060405180910390206040518263ffffffff167c0100000000000000000000000000000000000000000000000000000000028152600401808260001916600019168152602001915050602060405180830381600087803b158015610d3957600080fd5b505af1158015610d4d573d6000803e3d6000fd5b505050506040513d6020811015610d6357600080fd5b81019080805190602001909291905050508360018403815181101515610d8557fe5b90602001906020020181815250508180600101925050610859565b8483965096505050505050915091565b60008060009054906101000a900473ffffffffffffffffffffffffffffffffffffffff1673ffffffffffffffffffffffffffffffffffffffff163373ffffffffffffffffffffffffffffffffffffffff16141515610e0d57600080fd5b600160009054906101000a900473ffffffffffffffffffffffffffffffffffffffff16905090565b60608060006060806000600160009054906101000a900473ffffffffffffffffffffffffffffffffffffffff1673ffffffffffffffffffffffffffffffffffffffff1663bd02d0f5886040516020018082805190602001908083835b602083101515610eb65780518252602082019150602081019050602083039250610e91565b6001836020036101000a0380198251168184511680821785525050505050509050019150506040516020818303038152906040526040518082805190602001908083835b602083101515610f1f5780518252602082019150602081019050602083039250610efa565b6001836020036101000a03801982511681845116808217855250505050505090500191505060405180910390206040518263ffffffff167c0100000000000000000000000000000000000000000000000000000000028152600401808260001916600019168152602001915050602060405180830381600087803b158015610fa657600080fd5b505af1158015610fba573d6000803e3d6000fd5b505050506040513d6020811015610fd057600080fd5b81019080805190602001909291905050509350836040519080825280602002602001820160405280156110125781602001602082028038833980820191505090505b509250836040519080825280602002602001820160405280156110445781602001602082028038833980820191505090505b509150600090505b838110156117b957600081141561127657600160009054906101000a900473ffffffffffffffffffffffffffffffffffffffff1673ffffffffffffffffffffffffffffffffffffffff166321f8a721886040516020018082805190602001908083835b6020831015156110d457805182526020820191506020810190506020830392506110af565b6001836020036101000a038019825116818451168082178552505050505050905001807f61646472657373000000000000000000000000000000000000000000000000008152506007019150506040516020818303038152906040526040518082805190602001908083835b6020831015156111655780518252602082019150602081019050602083039250611140565b6001836020036101000a03801982511681845116808217855250505050505090500191505060405180910390206040518263ffffffff167c0100000000000000000000000000000000000000000000000000000000028152600401808260001916600019168152602001915050602060405180830381600087803b1580156111ec57600080fd5b505af1158015611200573d6000803e3d6000fd5b505050506040513d602081101561121657600080fd5b8101908080519060200190929190505050838281518110151561123557fe5b9060200190602002019073ffffffffffffffffffffffffffffffffffffffff16908173ffffffffffffffffffffffffffffffffffffffff1681525050611493565b600160009054906101000a900473ffffffffffffffffffffffffffffffffffffffff1673ffffffffffffffffffffffffffffffffffffffff166321f8a72188836040516020018083805190602001908083835b6020831015156112ee57805182526020820191506020810190506020830392506112c9565b6001836020036101000a038019825116818451168082178552505050505050905001807f6164647265737300000000000000000000000000000000000000000000000000815250600701828152602001925050506040516020818303038152906040526040518082805190602001908083835b6020831015156113865780518252602082019150602081019050602083039250611361565b6001836020036101000a03801982511681845116808217855250505050505090500191505060405180910390206040518263ffffffff167c0100000000000000000000000000000000000000000000000000000000028152600401808260001916600019168152602001915050602060405180830381600087803b15801561140d57600080fd5b505af1158015611421573d6000803e3d6000fd5b505050506040513d602081101561143757600080fd5b8101908080519060200190929190505050838281518110151561145657fe5b9060200190602002019073ffffffffffffffffffffffffffffffffffffffff16908173ffffffffffffffffffffffffffffffffffffffff16815250505b604051806000019050604051809103902060001916600160009054906101000a900473ffffffffffffffffffffffffffffffffffffffff1673ffffffffffffffffffffffffffffffffffffffff1663c031a1808986858151811015156114f557fe5b906020019060200201516040516020018083805190602001908083835b6020831015156115375780518252602082019150602081019050602083039250611512565b6001836020036101000a038019825116818451168082178552505050505050905001807f7369676e617475726500000000000000000000000000000000000000000000008152506009018273ffffffffffffffffffffffffffffffffffffffff1673ffffffffffffffffffffffffffffffffffffffff166c01000000000000000000000000028152601401925050506040516020818303038152906040526040518082805190602001908083835b60208310151561160a57805182526020820191506020810190506020830392506115e5565b6001836020036101000a03801982511681845116808217855250505050505090500191505060405180910390206040518263ffffffff167c0100000000000000000000000000000000000000000000000000000000028152600401808260001916600019168152602001915050600060405180830381600087803b15801561169157600080fd5b505af11580156116a5573d6000803e3d6000fd5b505050506040513d6000823e3d601f19601f8201168201806040525060208110156116cf57600080fd5b8101908080516401000000008111156116e757600080fd5b828101905060208101848111156116fd57600080fd5b815185600182028301116401000000008211171561171a57600080fd5b50509291905050506040518082805190602001908083835b6020831015156117575780518252602082019150602081019050602083039250611732565b6001836020036101000a0380198251168184511680821785525050505050509050019150506040518091039020600019161415828281518110151561179857fe5b9060200190602002019015159081151581525050808060010191505061104c565b82829550955050505050915091565b6000809054906101000a900473ffffffffffffffffffffffffffffffffffffffff1673ffffffffffffffffffffffffffffffffffffffff163373ffffffffffffffffffffffffffffffffffffffff1614151561182357600080fd5b6000809054906101000a900473ffffffffffffffffffffffffffffffffffffffff1673ffffffffffffffffffffffffffffffffffffffff167ff8df31144d9c2f0f6b59d69b8b98abd5459d07f2742c4df920b25aae33c6482060405160405180910390a260008060006101000a81548173ffffffffffffffffffffffffffffffffffffffff021916908373ffffffffffffffffffffffffffffffffffffffff160217905550565b6000809054906101000a900473ffffffffffffffffffffffffffffffffffffffff1681565b6000809054906101000a900473ffffffffffffffffffffffffffffffffffffffff1673ffffffffffffffffffffffffffffffffffffffff163373ffffffffffffffffffffffffffffffffffffffff1614151561194a57600080fd5b80600160006101000a81548173ffffffffffffffffffffffffffffffffffffffff021916908373ffffffffffffffffffffffffffffffffffffffff16021790555050565b600084843373ffffffffffffffffffffffffffffffffffffffff166119c8826119b6856137b0565b6000191661390e90919063ffffffff16565b73ffffffffffffffffffffffffffffffffffffffff161415156119ea57600080fd5b868560008090505b8151811015611d17578181815181101515611a0957fe5b9060200190602002015173ffffffffffffffffffffffffffffffffffffffff163373ffffffffffffffffffffffffffffffffffffffff1614151515611a4d57600080fd5b60026000848484815181101515611a6057fe5b906020019060200201516040516020018083805190602001908083835b602083101515611aa25780518252602082019150602081019050602083039250611a7d565b6001836020036101000a0380198251168184511680821785525050505050509050018273ffffffffffffffffffffffffffffffffffffffff1673ffffffffffffffffffffffffffffffffffffffff166c01000000000000000000000000028152601401925050506040516020818303038152906040526040518082805190602001908083835b602083101515611b4d5780518252602082019150602081019050602083039250611b28565b6001836020036101000a03801982511681845116808217855250505050505090500191505060405180910390206000191660001916815260200190815260200160002060009054906101000a900460ff161515611d0557600160026000858585815181101515611bb957fe5b906020019060200201516040516020018083805190602001908083835b602083101515611bfb5780518252602082019150602081019050602083039250611bd6565b6001836020036101000a0380198251168184511680821785525050505050509050018273ffffffffffffffffffffffffffffffffffffffff1673ffffffffffffffffffffffffffffffffffffffff166c01000000000000000000000000028152601401925050506040516020818303038152906040526040518082805190602001908083835b602083101515611ca65780518252602082019150602081019050602083039250611c81565b6001836020036101000a03801982511681845116808217855250505050505090500191505060405180910390206000191660001916815260200190815260200160002060006101000a81548160ff021916908315150217905550611d0a565b600080fd5b80806001019150506119f2565b4287111515611d2557600080fd5b6000600160009054906101000a900473ffffffffffffffffffffffffffffffffffffffff1673ffffffffffffffffffffffffffffffffffffffff1663bd02d0f58c6040516020018082805190602001908083835b602083101515611d9e5780518252602082019150602081019050602083039250611d79565b6001836020036101000a0380198251168184511680821785525050505050509050019150506040516020818303038152906040526040518082805190602001908083835b602083101515611e075780518252602082019150602081019050602083039250611de2565b6001836020036101000a03801982511681845116808217855250505050505090500191505060405180910390206040518263ffffffff167c0100000000000000000000000000000000000000000000000000000000028152600401808260001916600019168152602001915050602060405180830381600087803b158015611e8e57600080fd5b505af1158015611ea2573d6000803e3d6000fd5b505050506040513d6020811015611eb857600080fd5b8101908080519060200190929190505050141515611ed557600080fd5b60008851111515611ee557600080fd5b6005885111151515611ef657600080fd5b600160009054906101000a900473ffffffffffffffffffffffffffffffffffffffff1673ffffffffffffffffffffffffffffffffffffffff1663e2a4853a8b6040516020018082805190602001908083835b602083101515611f6d5780518252602082019150602081019050602083039250611f48565b6001836020036101000a0380198251168184511680821785525050505050509050019150506040516020818303038152906040526040518082805190602001908083835b602083101515611fd65780518252602082019150602081019050602083039250611fb1565b6001836020036101000a038019825116818451168082178552505050505050905001915050604051809103902060018b51016040518363ffffffff167c010000000000000000000000000000000000000000000000000000000002815260040180836000191660001916815260200182815260200192505050600060405180830381600087803b15801561206957600080fd5b505af115801561207d573d6000803e3d6000fd5b50505050600160009054906101000a900473ffffffffffffffffffffffffffffffffffffffff1673ffffffffffffffffffffffffffffffffffffffff1663e2a4853a8b6040516020018082805190602001908083835b6020831015156120f857805182526020820191506020810190506020830392506120d3565b6001836020036101000a038019825116818451168082178552505050505050905001807f6578706972656454696d657374616d70000000000000000000000000000000008152506010019150506040516020818303038152906040526040518082805190602001908083835b6020831015156121895780518252602082019150602081019050602083039250612164565b6001836020036101000a0380198251168184511680821785525050505050509050019150506040518091039020896040518363ffffffff167c010000000000000000000000000000000000000000000000000000000002815260040180836000191660001916815260200182815260200192505050600060405180830381600087803b15801561221857600080fd5b505af115801561222c573d6000803e3d6000fd5b50505050600160009054906101000a900473ffffffffffffffffffffffffffffffffffffffff1673ffffffffffffffffffffffffffffffffffffffff1663ca446dd98b6040516020018082805190602001908083835b6020831015156122a75780518252602082019150602081019050602083039250612282565b6001836020036101000a038019825116818451168082178552505050505050905001807f61646472657373000000000000000000000000000000000000000000000000008152506007019150506040516020818303038152906040526040518082805190602001908083835b6020831015156123385780518252602082019150602081019050602083039250612313565b6001836020036101000a0380198251168184511680821785525050505050509050019150506040518091039020336040518363ffffffff167c01000000000000000000000000000000000000000000000000000000000281526004018083600019166000191681526020018273ffffffffffffffffffffffffffffffffffffffff1673ffffffffffffffffffffffffffffffffffffffff16815260200192505050600060405180830381600087803b1580156123f357600080fd5b505af1158015612407573d6000803e3d6000fd5b50505050600160009054906101000a900473ffffffffffffffffffffffffffffffffffffffff1673ffffffffffffffffffffffffffffffffffffffff16632e28d0848b336040516020018083805190602001908083835b602083101515612483578051825260208201915060208101905060208303925061245e565b6001836020036101000a038019825116818451168082178552505050505050905001807f7369676e617475726500000000000000000000000000000000000000000000008152506009018273ffffffffffffffffffffffffffffffffffffffff1673ffffffffffffffffffffffffffffffffffffffff166c01000000000000000000000000028152601401925050506040516020818303038152906040526040518082805190602001908083835b6020831015156125565780518252602082019150602081019050602083039250612531565b6001836020036101000a03801982511681845116808217855250505050505090500191505060405180910390208b6040518363ffffffff167c010000000000000000000000000000000000000000000000000000000002815260040180836000191660001916815260200180602001828103825283818151815260200191508051906020019080838360005b838110156125fd5780820151818401526020810190506125e2565b50505050905090810190601f16801561262a5780820380516001836020036101000a031916815260200191505b509350505050600060405180830381600087803b15801561264a57600080fd5b505af115801561265e573d6000803e3d6000fd5b5050505061266c338b613a06565b600095505b87518610156128a557600160009054906101000a900473ffffffffffffffffffffffffffffffffffffffff1673ffffffffffffffffffffffffffffffffffffffff1663ca446dd98b600189016040516020018083805190602001908083835b6020831015156126f557805182526020820191506020810190506020830392506126d0565b6001836020036101000a038019825116818451168082178552505050505050905001807f6164647265737300000000000000000000000000000000000000000000000000815250600701828152602001925050506040516020818303038152906040526040518082805190602001908083835b60208310151561278d5780518252602082019150602081019050602083039250612768565b6001836020036101000a03801982511681845116808217855250505050505090500191505060405180910390208a898151811015156127c857fe5b906020019060200201516040518363ffffffff167c01000000000000000000000000000000000000000000000000000000000281526004018083600019166000191681526020018273ffffffffffffffffffffffffffffffffffffffff1673ffffffffffffffffffffffffffffffffffffffff16815260200192505050600060405180830381600087803b15801561285f57600080fd5b505af1158015612873573d6000803e3d6000fd5b50505050612898888781518110151561288857fe5b906020019060200201518b613a06565b8580600101965050612671565b3373ffffffffffffffffffffffffffffffffffffffff167fbba840872e5552cf70c00b6b7c8209715ee5db2a46f17dcbcb46197fff9832048b6040518080602001828103825283818151815260200191508051906020019080838360005b8381101561291e578082015181840152602081019050612903565b50505050905090810190601f16801561294b5780820380516001836020036101000a031916815260200191505b509250505060405180910390a250505050505050505050565b81813373ffffffffffffffffffffffffffffffffffffffff1661299c8261298a856137b0565b6000191661390e90919063ffffffff16565b73ffffffffffffffffffffffffffffffffffffffff161415156129be57600080fd5b6000600160009054906101000a900473ffffffffffffffffffffffffffffffffffffffff1673ffffffffffffffffffffffffffffffffffffffff1663bd02d0f5866040516020018082805190602001908083835b602083101515612a375780518252602082019150602081019050602083039250612a12565b6001836020036101000a0380198251168184511680821785525050505050509050019150506040516020818303038152906040526040518082805190602001908083835b602083101515612aa05780518252602082019150602081019050602083039250612a7b565b6001836020036101000a03801982511681845116808217855250505050505090500191505060405180910390206040518263ffffffff167c0100000000000000000000000000000000000000000000000000000000028152600401808260001916600019168152602001915050602060405180830381600087803b158015612b2757600080fd5b505af1158015612b3b573d6000803e3d6000fd5b505050506040513d6020811015612b5157600080fd5b810190808051906020019092919050505014151515612b6f57600080fd5b826040518082805190602001908083835b602083101515612ba55780518252602082019150602081019050602083039250612b80565b6001836020036101000a038019825116818451168082178552505050505050905001915050604051809103902060001916600160009054906101000a900473ffffffffffffffffffffffffffffffffffffffff1673ffffffffffffffffffffffffffffffffffffffff1663c031a18086336040516020018083805190602001908083835b602083101515612c4e5780518252602082019150602081019050602083039250612c29565b6001836020036101000a038019825116818451168082178552505050505050905001807f7369676e617475726500000000000000000000000000000000000000000000008152506009018273ffffffffffffffffffffffffffffffffffffffff1673ffffffffffffffffffffffffffffffffffffffff166c01000000000000000000000000028152601401925050506040516020818303038152906040526040518082805190602001908083835b602083101515612d215780518252602082019150602081019050602083039250612cfc565b6001836020036101000a03801982511681845116808217855250505050505090500191505060405180910390206040518263ffffffff167c0100000000000000000000000000000000000000000000000000000000028152600401808260001916600019168152602001915050600060405180830381600087803b158015612da857600080fd5b505af1158015612dbc573d6000803e3d6000fd5b505050506040513d6000823e3d601f19601f820116820180604052506020811015612de657600080fd5b810190808051640100000000811115612dfe57600080fd5b82810190506020810184811115612e1457600080fd5b8151856001820283011164010000000082111715612e3157600080fd5b50509291905050506040518082805190602001908083835b602083101515612e6e5780518252602082019150602081019050602083039250612e49565b6001836020036101000a03801982511681845116808217855250505050505090500191505060405180910390206000191614151515612eac57600080fd5b42600160009054906101000a900473ffffffffffffffffffffffffffffffffffffffff1673ffffffffffffffffffffffffffffffffffffffff1663bd02d0f5866040516020018082805190602001908083835b602083101515612f245780518252602082019150602081019050602083039250612eff565b6001836020036101000a038019825116818451168082178552505050505050905001807f6578706972656454696d657374616d70000000000000000000000000000000008152506010019150506040516020818303038152906040526040518082805190602001908083835b602083101515612fb55780518252602082019150602081019050602083039250612f90565b6001836020036101000a03801982511681845116808217855250505050505090500191505060405180910390206040518263ffffffff167c0100000000000000000000000000000000000000000000000000000000028152600401808260001916600019168152602001915050602060405180830381600087803b15801561303c57600080fd5b505af1158015613050573d6000803e3d6000fd5b505050506040513d602081101561306657600080fd5b810190808051906020019092919050505011151561308357600080fd5b600160009054906101000a900473ffffffffffffffffffffffffffffffffffffffff1673ffffffffffffffffffffffffffffffffffffffff16632e28d08485336040516020018083805190602001908083835b6020831015156130fb57805182526020820191506020810190506020830392506130d6565b6001836020036101000a038019825116818451168082178552505050505050905001807f7369676e617475726500000000000000000000000000000000000000000000008152506009018273ffffffffffffffffffffffffffffffffffffffff1673ffffffffffffffffffffffffffffffffffffffff166c01000000000000000000000000028152601401925050506040516020818303038152906040526040518082805190602001908083835b6020831015156131ce57805182526020820191506020810190506020830392506131a9565b6001836020036101000a0380198251168184511680821785525050505050509050019150506040518091039020856040518363ffffffff167c010000000000000000000000000000000000000000000000000000000002815260040180836000191660001916815260200180602001828103825283818151815260200191508051906020019080838360005b8381101561327557808201518184015260208101905061325a565b50505050905090810190601f1680156132a25780820380516001836020036101000a031916815260200191505b509350505050600060405180830381600087803b1580156132c257600080fd5b505af11580156132d6573d6000803e3d6000fd5b505050503373ffffffffffffffffffffffffffffffffffffffff167fbba840872e5552cf70c00b6b7c8209715ee5db2a46f17dcbcb46197fff983204856040518080602001828103825283818151815260200191508051906020019080838360005b83811015613353578082015181840152602081019050613338565b50505050905090810190601f1680156133805780820380516001836020036101000a031916815260200191505b509250505060405180910390a250505050565b600073ffffffffffffffffffffffffffffffffffffffff166000809054906101000a900473ffffffffffffffffffffffffffffffffffffffff1673ffffffffffffffffffffffffffffffffffffffff16141515613446576000809054906101000a900473ffffffffffffffffffffffffffffffffffffffff1673ffffffffffffffffffffffffffffffffffffffff163373ffffffffffffffffffffffffffffffffffffffff1614151561344557600080fd5b5b61344f81613efe565b50565b60008061347483613462866137b0565b6000191661390e90919063ffffffff16565b9050826040518082805190602001908083835b6020831015156134ac5780518252602082019150602081019050602083039250613487565b6001836020036101000a038019825116818451168082178552505050505050905001915050604051809103902060001916600160009054906101000a900473ffffffffffffffffffffffffffffffffffffffff1673ffffffffffffffffffffffffffffffffffffffff1663c031a18086846040516020018083805190602001908083835b6020831015156135555780518252602082019150602081019050602083039250613530565b6001836020036101000a038019825116818451168082178552505050505050905001807f7369676e617475726500000000000000000000000000000000000000000000008152506009018273ffffffffffffffffffffffffffffffffffffffff1673ffffffffffffffffffffffffffffffffffffffff166c01000000000000000000000000028152601401925050506040516020818303038152906040526040518082805190602001908083835b6020831015156136285780518252602082019150602081019050602083039250613603565b6001836020036101000a03801982511681845116808217855250505050505090500191505060405180910390206040518263ffffffff167c0100000000000000000000000000000000000000000000000000000000028152600401808260001916600019168152602001915050600060405180830381600087803b1580156136af57600080fd5b505af11580156136c3573d6000803e3d6000fd5b505050506040513d6000823e3d601f19601f8201168201806040525060208110156136ed57600080fd5b81019080805164010000000081111561370557600080fd5b8281019050602081018481111561371b57600080fd5b815185600182028301116401000000008211171561373857600080fd5b50509291905050506040518082805190602001908083835b6020831015156137755780518252602082019150602081019050602083039250613750565b6001836020036101000a0380198251168184511680821785525050505050509050019150506040518091039020600019161491505092915050565b60006137bc8251613ff8565b8260405160200180807f19457468657265756d205369676e6564204d6573736167653a0a000000000000815250601a0183805190602001908083835b60208310151561381d57805182526020820191506020810190506020830392506137f8565b6001836020036101000a03801982511681845116808217855250505050505090500182805190602001908083835b602083101515613870578051825260208201915060208101905060208303925061384b565b6001836020036101000a038019825116818451168082178552505050505050905001925050506040516020818303038152906040526040518082805190602001908083835b6020831015156138da57805182526020820191506020810190506020830392506138b5565b6001836020036101000a03801982511681845116808217855250505050505090500191505060405180910390209050919050565b6000806000806041855114151561392857600093506139fd565b6020850151925060408501519150606085015160001a9050601b8160ff16101561395357601b810190505b601b8160ff161415801561396b5750601c8160ff1614155b1561397957600093506139fd565b600186828585604051600081526020016040526040518085600019166000191681526020018460ff1660ff1681526020018360001916600019168152602001826000191660001916815260200194505050505060206040516020810390808403906000865af11580156139f0573d6000803e3d6000fd5b5050506020604051035193505b50505092915050565b6000600160009054906101000a900473ffffffffffffffffffffffffffffffffffffffff1673ffffffffffffffffffffffffffffffffffffffff1663bd02d0f584604051602001808273ffffffffffffffffffffffffffffffffffffffff1673ffffffffffffffffffffffffffffffffffffffff166c010000000000000000000000000281526014019150506040516020818303038152906040526040518082805190602001908083835b602083101515613ad65780518252602082019150602081019050602083039250613ab1565b6001836020036101000a03801982511681845116808217855250505050505090500191505060405180910390206040518263ffffffff167c0100000000000000000000000000000000000000000000000000000000028152600401808260001916600019168152602001915050602060405180830381600087803b158015613b5d57600080fd5b505af1158015613b71573d6000803e3d6000fd5b505050506040513d6020811015613b8757600080fd5b810190808051906020019092919050505090508080600101915050600160009054906101000a900473ffffffffffffffffffffffffffffffffffffffff1673ffffffffffffffffffffffffffffffffffffffff1663e2a4853a84604051602001808273ffffffffffffffffffffffffffffffffffffffff1673ffffffffffffffffffffffffffffffffffffffff166c010000000000000000000000000281526014019150506040516020818303038152906040526040518082805190602001908083835b602083101515613c705780518252602082019150602081019050602083039250613c4b565b6001836020036101000a0380198251168184511680821785525050505050509050019150506040518091039020836040518363ffffffff167c010000000000000000000000000000000000000000000000000000000002815260040180836000191660001916815260200182815260200192505050600060405180830381600087803b158015613cff57600080fd5b505af1158015613d13573d6000803e3d6000fd5b50505050600160009054906101000a900473ffffffffffffffffffffffffffffffffffffffff1673ffffffffffffffffffffffffffffffffffffffff16632e28d0848483604051602001808373ffffffffffffffffffffffffffffffffffffffff1673ffffffffffffffffffffffffffffffffffffffff166c01000000000000000000000000028152601401828152602001925050506040516020818303038152906040526040518082805190602001908083835b602083101515613ded5780518252602082019150602081019050602083039250613dc8565b6001836020036101000a0380198251168184511680821785525050505050509050019150506040518091039020846040518363ffffffff167c010000000000000000000000000000000000000000000000000000000002815260040180836000191660001916815260200180602001828103825283818151815260200191508051906020019080838360005b83811015613e94578082015181840152602081019050613e79565b50505050905090810190601f168015613ec15780820380516001836020036101000a031916815260200191505b509350505050600060405180830381600087803b158015613ee157600080fd5b505af1158015613ef5573d6000803e3d6000fd5b50505050505050565b600073ffffffffffffffffffffffffffffffffffffffff168173ffffffffffffffffffffffffffffffffffffffff1614151515613f3a57600080fd5b8073ffffffffffffffffffffffffffffffffffffffff166000809054906101000a900473ffffffffffffffffffffffffffffffffffffffff1673ffffffffffffffffffffffffffffffffffffffff167f8be0079c531659141344cd1fd0a4f28419497f9722a3daafe3b4186f6b6457e060405160405180910390a3806000806101000a81548173ffffffffffffffffffffffffffffffffffffffff021916908373ffffffffffffffffffffffffffffffffffffffff16021790555050565b60606000806060600080861415614046576040805190810160405280600181526020017f30000000000000000000000000000000000000000000000000000000000000008152509450614146565b8593505b600084141515614070578280600101935050600a8481151561406857fe5b04935061404a565b826040519080825280601f01601f1916602001820160405280156140a35781602001602082028038833980820191505090505b5091506001830390505b60008614151561414257600a868115156140c357fe5b066030017f0100000000000000000000000000000000000000000000000000000000000000028282806001900393508151811015156140fe57fe5b9060200101907effffffffffffffffffffffffffffffffffffffffffffffffffffffffffffff1916908160001a905350600a8681151561413a57fe5b0495506140ad565b8194505b505050509190505600a165627a7a723058209f4d49d58f65f226f9d80aa4668e7a88bb71bc5254999f2cc3a3f17cc8d8cc490029",
  "source": "/**\n * Created on 2018-08-13 10:24\n * @summary: Document Sign \n * @author: Chris Nguyen\n */\npragma solidity ^0.4.24;\n\nimport './BBStorage.sol';\nimport './zeppelin/ownership/Ownable.sol';\nimport './zeppelin/ECRecovery.sol';\n\n/**\n * @title Document Sign contract \n */\ncontract BigbomDigitalContract is Ownable {\n  using ECRecovery for *;\n  BBStorage bbs = BBStorage(0x0);\n\n  mapping(bytes32=>bool) uniqueTemp;\n\n\n  /**\n   * @dev \n   * @param storageAddress the address of storage contract\n   */\n  function setStorage(address storageAddress) onlyOwner public {\n    bbs = BBStorage(storageAddress);\n  }\n  /**\n   * @dev \n   */\n  function getStorage()  onlyOwner public returns(address){\n   \n    return bbs;\n  }\n  // check the user is owner of his signature\n  modifier userIsOwnerSign(bytes bboDocHash, bytes userSign){\n  \trequire(bboDocHash.toEthSignedMessageHashBytes().recover(userSign) == msg.sender);\n  \t_;\n  }\n\n  //\n  modifier isUniqueAddress(bytes bboDocHash, address[] addresses){\n     for(uint i=0;i<addresses.length;i++){\n       // not include msg.sender\n       require(msg.sender!=addresses[i]);\n       // check addresses is unique\n       if(!uniqueTemp[keccak256(abi.encodePacked(bboDocHash,addresses[i]))]){\n         uniqueTemp[keccak256(abi.encodePacked(bboDocHash,addresses[i]))] = true;\n       }else{\n         revert();\n       }\n     }\n    _;\n  }\n  // get BBODocument by docHash\n  /**\n   * @dev \n   * @param bboDocHash the Document Hash\n   * @param userSign the signature of the User\n   */\n  function verifyBBODocument(bytes bboDocHash, bytes userSign) public view returns (bool) {\n  \taddress userAddr = bboDocHash.toEthSignedMessageHashBytes().recover(userSign);\n  \treturn keccak256(bbs.getBytes(keccak256(abi.encodePacked(bboDocHash,'signature', userAddr))))==keccak256(userSign);\n  }\n\n  // get list address & status by docHash\n  /**\n   * @dev \n   * @param bboDocHash the Document Hash\n   * @return address[]\n   * @return bool[]\n   */\n  function getAddressesByDocHash(bytes bboDocHash) public view returns(address[], bool[]){\n\n    uint docNum = bbs.getUint(keccak256(abi.encodePacked(bboDocHash)));\n    address[] memory addresses = new address[](docNum);\n    bool[] memory status = new bool[](docNum);\n    for(uint i=0;i<docNum;i++){\n      if(i==0)\n      addresses[i] = bbs.getAddress(keccak256(abi.encodePacked(bboDocHash,'address')));\n      else\n      addresses[i] = bbs.getAddress(keccak256(abi.encodePacked(bboDocHash,'address', i)));\n\n      status[i] = (keccak256(bbs.getBytes(keccak256(abi.encodePacked(bboDocHash,'signature', addresses[i]))))!=keccak256(\"\"));\n    }\n    return (addresses, status);\n  }\n  \n  \n  //get list signed document of user\n  /**\n   * @dev \n   * @param addr address of user\n   * @return uint[]\n   */\n  function getDocuments(address addr) public view returns(bytes, uint[]){\n    // get number of doc already\n    bytes memory docReturn = '';\n    uint256 docNumber = bbs.getUint(keccak256(abi.encodePacked(addr)));\n    uint[] memory expiredTimestamps = new uint[] (docNumber);\n    for(uint256 i=1;i<=docNumber;i++){\n     bytes memory dochash = bbs.getBytes(keccak256(abi.encodePacked(addr, i)));\n     docReturn = abi.encodePacked(docReturn, abi.encodePacked(dochash,','));\n     expiredTimestamps[i-1]=bbs.getUint(keccak256(abi.encodePacked(dochash, 'expiredTimestamp')));\n    }\n    return (docReturn, expiredTimestamps);\n  }\n  \n  // user Sign The Document\n  event BBODocumentSigned(bytes bboDocHash, address indexed user);\n  /**\n   * @dev \n   * @param bboDocHash the Document Hash\n   * @param userSign the signature of the User\n   * @param pendingAddresses list of invited address\n   * @param expiredTimestamp expired unit timestamp \n   */\n  function createAndSignBBODocument(bytes bboDocHash, bytes userSign, address[] pendingAddresses, uint expiredTimestamp) public \n   userIsOwnerSign(bboDocHash, userSign)\n   isUniqueAddress(bboDocHash, pendingAddresses)\n   {\n     // expiredTimestamp must > now\n     require(expiredTimestamp > now);\n     // docHash not existing\n  \t require(bbs.getUint(keccak256(abi.encodePacked(bboDocHash))) == 0x0);\n\n     // list pendingAddresses \n     require(pendingAddresses.length > 0);\n  \t \n     // maximum is 5 addresses\n     require(pendingAddresses.length <=5);\n\n     //new storage implements\n     // save number user of this docs\n     bbs.setUint(keccak256(abi.encodePacked(bboDocHash)), pendingAddresses.length + 1);\n     // set time\n     bbs.setUint(keccak256(abi.encodePacked(bboDocHash, 'expiredTimestamp')), expiredTimestamp);\n     // save first address is owner of the docs\n     bbs.setAddress(keccak256(abi.encodePacked(bboDocHash,'address')), msg.sender);\n     // save owner sign\n     bbs.setBytes(keccak256(abi.encodePacked(bboDocHash,'signature', msg.sender)), userSign);\n     // todo save bboDocHash to user address\n     setDocToAddress(msg.sender, bboDocHash);\n\n     // loop & save in pendingAddresses 2^8\n     for(uint i=0;i<pendingAddresses.length;i++){\n        bbs.setAddress(keccak256(abi.encodePacked(bboDocHash, 'address', i+1)), pendingAddresses[i]);\n        // save bboDocHash to user address\n        setDocToAddress(pendingAddresses[i], bboDocHash);\n     }\n     emit BBODocumentSigned(bboDocHash, msg.sender);\n     \n  }\n\n  /**\n   * @dev \n   * @param adr the address of the user\n   * @param docHash document hash\n   */\n  function setDocToAddress(address adr, bytes docHash) internal {\n    // get number of doc already\n     uint256 docNumber = bbs.getUint(keccak256(abi.encodePacked(adr)));\n     docNumber++;\n     // incres 1\n     bbs.setUint(keccak256(abi.encodePacked(adr)), docNumber);\n     // set doc hash\n     bbs.setBytes(keccak256(abi.encodePacked(adr, docNumber)), docHash);\n  }\n\n  /**\n   * @dev \n   * @param bboDocHash the Document Hash\n   * @param userSign the signature of the User\n   */\n  function signBBODocument(bytes bboDocHash, bytes userSign)public \n   userIsOwnerSign(bboDocHash, userSign)\n   {\n     // check already docHash\n     require(bbs.getUint(keccak256(abi.encodePacked(bboDocHash)))!=0x0);\n     // check already sign\n     require(keccak256(bbs.getBytes(keccak256(abi.encodePacked(bboDocHash,'signature', msg.sender))))!=keccak256(userSign));\n     // check expired \n     require(bbs.getUint(keccak256(abi.encodePacked(bboDocHash, 'expiredTimestamp'))) > now);\n     // save signature\n     bbs.setBytes(keccak256(abi.encodePacked(bboDocHash,'signature', msg.sender)), userSign);\n     emit BBODocumentSigned(bboDocHash, msg.sender);\n  }\n\n}\n",
  "sourcePath": "/Users/trantho/Code/SmartContract/digital-contracts/src/contracts/BigbomDigitalContract.sol",
  "compiler": {
    "name": "solc",
    "version": "0.4.24+commit.e67f0147.Emscripten.clang"
  },
  "schemaVersion": "2.0.1",
  "updatedAt": "2018-12-22T03:21:00.661Z"
}